{
  "_format": "hh-sol-artifact-1",
  "contractName": "ChildERC1155",
  "sourceName": "contracts/child/ChildERC1155.sol",
  "abi": [
    {
      "anonymous": false,
      "inputs": [
        {
          "indexed": true,
          "internalType": "address",
          "name": "account",
          "type": "address"
        },
        {
          "indexed": true,
          "internalType": "address",
          "name": "operator",
          "type": "address"
        },
        {
          "indexed": false,
          "internalType": "bool",
          "name": "approved",
          "type": "bool"
        }
      ],
      "name": "ApprovalForAll",
      "type": "event"
    },
    {
      "anonymous": false,
      "inputs": [
        {
          "indexed": false,
          "internalType": "uint8",
          "name": "version",
          "type": "uint8"
        }
      ],
      "name": "Initialized",
      "type": "event"
    },
    {
      "anonymous": false,
      "inputs": [
        {
          "indexed": false,
          "internalType": "address",
          "name": "userAddress",
          "type": "address"
        },
        {
          "indexed": false,
          "internalType": "address",
          "name": "relayerAddress",
          "type": "address"
        },
        {
          "indexed": false,
          "internalType": "bytes",
          "name": "functionSignature",
          "type": "bytes"
        }
      ],
      "name": "MetaTransactionExecuted",
      "type": "event"
    },
    {
      "anonymous": false,
      "inputs": [
        {
          "indexed": true,
          "internalType": "address",
          "name": "operator",
          "type": "address"
        },
        {
          "indexed": true,
          "internalType": "address",
          "name": "from",
          "type": "address"
        },
        {
          "indexed": true,
          "internalType": "address",
          "name": "to",
          "type": "address"
        },
        {
          "indexed": false,
          "internalType": "uint256[]",
          "name": "ids",
          "type": "uint256[]"
        },
        {
          "indexed": false,
          "internalType": "uint256[]",
          "name": "values",
          "type": "uint256[]"
        }
      ],
      "name": "TransferBatch",
      "type": "event"
    },
    {
      "anonymous": false,
      "inputs": [
        {
          "indexed": true,
          "internalType": "address",
          "name": "operator",
          "type": "address"
        },
        {
          "indexed": true,
          "internalType": "address",
          "name": "from",
          "type": "address"
        },
        {
          "indexed": true,
          "internalType": "address",
          "name": "to",
          "type": "address"
        },
        {
          "indexed": false,
          "internalType": "uint256",
          "name": "id",
          "type": "uint256"
        },
        {
          "indexed": false,
          "internalType": "uint256",
          "name": "value",
          "type": "uint256"
        }
      ],
      "name": "TransferSingle",
      "type": "event"
    },
    {
      "anonymous": false,
      "inputs": [
        {
          "indexed": false,
          "internalType": "string",
          "name": "value",
          "type": "string"
        },
        {
          "indexed": true,
          "internalType": "uint256",
          "name": "id",
          "type": "uint256"
        }
      ],
      "name": "URI",
      "type": "event"
    },
    {
      "inputs": [
        {
          "internalType": "address",
          "name": "account",
          "type": "address"
        },
        {
          "internalType": "uint256",
          "name": "id",
          "type": "uint256"
        }
      ],
      "name": "balanceOf",
      "outputs": [
        {
          "internalType": "uint256",
          "name": "",
          "type": "uint256"
        }
      ],
      "stateMutability": "view",
      "type": "function"
    },
    {
      "inputs": [
        {
          "internalType": "address[]",
          "name": "accounts",
          "type": "address[]"
        },
        {
          "internalType": "uint256[]",
          "name": "ids",
          "type": "uint256[]"
        }
      ],
      "name": "balanceOfBatch",
      "outputs": [
        {
          "internalType": "uint256[]",
          "name": "",
          "type": "uint256[]"
        }
      ],
      "stateMutability": "view",
      "type": "function"
    },
    {
      "inputs": [
        {
          "internalType": "address",
          "name": "from",
          "type": "address"
        },
        {
          "internalType": "uint256",
          "name": "id",
          "type": "uint256"
        },
        {
          "internalType": "uint256",
          "name": "amount",
          "type": "uint256"
        }
      ],
      "name": "burn",
      "outputs": [
        {
          "internalType": "bool",
          "name": "",
          "type": "bool"
        }
      ],
      "stateMutability": "nonpayable",
      "type": "function"
    },
    {
      "inputs": [
        {
          "internalType": "address",
          "name": "from",
          "type": "address"
        },
        {
          "internalType": "uint256[]",
          "name": "tokenIds",
          "type": "uint256[]"
        },
        {
          "internalType": "uint256[]",
          "name": "amounts",
          "type": "uint256[]"
        }
      ],
      "name": "burnBatch",
      "outputs": [
        {
          "internalType": "bool",
          "name": "",
          "type": "bool"
        }
      ],
      "stateMutability": "nonpayable",
      "type": "function"
    },
    {
      "inputs": [
        {
          "internalType": "address",
          "name": "userAddress",
          "type": "address"
        },
        {
          "internalType": "bytes",
          "name": "functionSignature",
          "type": "bytes"
        },
        {
          "internalType": "bytes32",
          "name": "sigR",
          "type": "bytes32"
        },
        {
          "internalType": "bytes32",
          "name": "sigS",
          "type": "bytes32"
        },
        {
          "internalType": "uint8",
          "name": "sigV",
          "type": "uint8"
        }
      ],
      "name": "executeMetaTransaction",
      "outputs": [
        {
          "internalType": "bytes",
          "name": "",
          "type": "bytes"
        }
      ],
      "stateMutability": "nonpayable",
      "type": "function"
    },
    {
      "inputs": [
        {
          "internalType": "address",
          "name": "user",
          "type": "address"
        }
      ],
      "name": "getNonce",
      "outputs": [
        {
          "internalType": "uint256",
          "name": "nonce",
          "type": "uint256"
        }
      ],
      "stateMutability": "view",
      "type": "function"
    },
    {
      "inputs": [
        {
          "internalType": "address",
          "name": "rootToken_",
          "type": "address"
        },
        {
          "internalType": "string",
          "name": "name_",
          "type": "string"
        },
        {
          "internalType": "string",
          "name": "uri_",
          "type": "string"
        }
      ],
      "name": "initialize",
      "outputs": [],
      "stateMutability": "nonpayable",
      "type": "function"
    },
    {
      "inputs": [
        {
          "internalType": "address",
          "name": "account",
          "type": "address"
        },
        {
          "internalType": "address",
          "name": "operator",
          "type": "address"
        }
      ],
      "name": "isApprovedForAll",
      "outputs": [
        {
          "internalType": "bool",
          "name": "",
          "type": "bool"
        }
      ],
      "stateMutability": "view",
      "type": "function"
    },
    {
      "inputs": [
        {
          "internalType": "address",
          "name": "account",
          "type": "address"
        },
        {
          "internalType": "uint256",
          "name": "id",
          "type": "uint256"
        },
        {
          "internalType": "uint256",
          "name": "amount",
          "type": "uint256"
        }
      ],
      "name": "mint",
      "outputs": [
        {
          "internalType": "bool",
          "name": "",
          "type": "bool"
        }
      ],
      "stateMutability": "nonpayable",
      "type": "function"
    },
    {
      "inputs": [
        {
          "internalType": "address[]",
          "name": "accounts",
          "type": "address[]"
        },
        {
          "internalType": "uint256[]",
          "name": "tokenIds",
          "type": "uint256[]"
        },
        {
          "internalType": "uint256[]",
          "name": "amounts",
          "type": "uint256[]"
        }
      ],
      "name": "mintBatch",
      "outputs": [
        {
          "internalType": "bool",
          "name": "",
          "type": "bool"
        }
      ],
      "stateMutability": "nonpayable",
      "type": "function"
    },
    {
      "inputs": [],
      "name": "predicate",
      "outputs": [
        {
          "internalType": "address",
          "name": "",
          "type": "address"
        }
      ],
      "stateMutability": "view",
      "type": "function"
    },
    {
      "inputs": [],
      "name": "rootToken",
      "outputs": [
        {
          "internalType": "address",
          "name": "",
          "type": "address"
        }
      ],
      "stateMutability": "view",
      "type": "function"
    },
    {
      "inputs": [
        {
          "internalType": "address",
          "name": "from",
          "type": "address"
        },
        {
          "internalType": "address",
          "name": "to",
          "type": "address"
        },
        {
          "internalType": "uint256[]",
          "name": "ids",
          "type": "uint256[]"
        },
        {
          "internalType": "uint256[]",
          "name": "amounts",
          "type": "uint256[]"
        },
        {
          "internalType": "bytes",
          "name": "data",
          "type": "bytes"
        }
      ],
      "name": "safeBatchTransferFrom",
      "outputs": [],
      "stateMutability": "nonpayable",
      "type": "function"
    },
    {
      "inputs": [
        {
          "internalType": "address",
          "name": "from",
          "type": "address"
        },
        {
          "internalType": "address",
          "name": "to",
          "type": "address"
        },
        {
          "internalType": "uint256",
          "name": "id",
          "type": "uint256"
        },
        {
          "internalType": "uint256",
          "name": "amount",
          "type": "uint256"
        },
        {
          "internalType": "bytes",
          "name": "data",
          "type": "bytes"
        }
      ],
      "name": "safeTransferFrom",
      "outputs": [],
      "stateMutability": "nonpayable",
      "type": "function"
    },
    {
      "inputs": [
        {
          "internalType": "address",
          "name": "operator",
          "type": "address"
        },
        {
          "internalType": "bool",
          "name": "approved",
          "type": "bool"
        }
      ],
      "name": "setApprovalForAll",
      "outputs": [],
      "stateMutability": "nonpayable",
      "type": "function"
    },
    {
      "inputs": [
        {
          "internalType": "bytes4",
          "name": "interfaceId",
          "type": "bytes4"
        }
      ],
      "name": "supportsInterface",
      "outputs": [
        {
          "internalType": "bool",
          "name": "",
          "type": "bool"
        }
      ],
      "stateMutability": "view",
      "type": "function"
    },
    {
      "inputs": [
        {
          "internalType": "uint256",
          "name": "",
          "type": "uint256"
        }
      ],
      "name": "uri",
      "outputs": [
        {
          "internalType": "string",
          "name": "",
          "type": "string"
        }
      ],
      "stateMutability": "view",
      "type": "function"
    }
  ],
  "bytecode": "0x608060405234801561001057600080fd5b5061295f806100206000396000f3fe608060405234801561001057600080fd5b50600436106100fa5760003560e01c80634e1273f4116100a2578063a22cb46511610071578063a22cb4651461024a578063e61987051461025d578063e985e9c51461026e578063f242432a146102aa578063f5298aca146102bd57600080fd5b80634e1273f4146101f157806357128683146102115780636b20c45414610224578063906571471461023757600080fd5b8062fdd58e146100ff57806301ffc9a7146101255780630c53c51c146101485780630e89341c14610168578063156e29f61461017b5780631f2d00651461018e5780632d0335ab146101b35780632eb2c2d6146101dc575b600080fd5b61011261010d366004611ae8565b6102d0565b6040519081526020015b60405180910390f35b610138610133366004611b28565b61036b565b604051901515815260200161011c565b61015b610156366004611b94565b6103bb565b60405161011c9190611c63565b61015b610176366004611c76565b610699565b610138610189366004611c8f565b61072d565b609f546001600160a01b03165b6040516001600160a01b03909116815260200161011c565b6101126101c1366004611cc2565b6001600160a01b031660009081526006602052604090205490565b6101ef6101ea366004611e26565b61077f565b005b6102046101ff366004611ecf565b6107dd565b60405161011c9190611fd4565b61013861021f36600461202b565b610906565b6101386102323660046120c4565b610a21565b6101ef610245366004612144565b610ac8565b6101ef6102583660046121b3565b610cea565b609e546001600160a01b031661019b565b61013861027c3660046121ef565b6001600160a01b039182166000908152606d6020908152604080832093909416825291909152205460ff1690565b6101ef6102b8366004612222565b610d00565b6101386102cb366004611c8f565b610d57565b60006001600160a01b0383166103405760405162461bcd60e51b815260206004820152602a60248201527f455243313135353a2061646472657373207a65726f206973206e6f742061207660448201526930b634b21037bbb732b960b11b60648201526084015b60405180910390fd5b506000818152606c602090815260408083206001600160a01b03861684529091529020545b92915050565b60006001600160e01b03198216636cdb3d1360e11b148061039c57506001600160e01b031982166303a24d0760e21b145b8061036557506301ffc9a760e01b6001600160e01b0319831614610365565b606060006103fe87878080601f016020809104026020016040519081016040528093929190818152602001838380828437600092019190915250610d8f92505050565b90506001600160e01b03196000358116908216036104845760405162461bcd60e51b815260206004820152603d60248201527f66756e6374696f6e5369676e61747572652063616e206e6f74206265206f662060448201527f657865637574654d6574615472616e73616374696f6e206d6574686f640000006064820152608401610337565b604080516060810182526001600160a01b038a16600081815260066020908152848220548452808401929092528351601f8b0183900483028101830185528a815290938301918b908b9081908401838280828437600092019190915250505091525090506104f58982888888610daa565b61054b5760405162461bcd60e51b815260206004820152602160248201527f5369676e657220616e64207369676e617475726520646f206e6f74206d6174636044820152600d60fb1b6064820152608401610337565b600660008a6001600160a01b03166001600160a01b031681526020019081526020016000206000815460010191905081905550600080306001600160a01b03168a8a8d6040516020016105a093929190612286565b60408051601f19818403018152908290526105ba916122ac565b6000604051808303816000865af19150503d80600081146105f7576040519150601f19603f3d011682016040523d82523d6000602084013e6105fc565b606091505b50915091508161064e5760405162461bcd60e51b815260206004820152601c60248201527f46756e6374696f6e2063616c6c206e6f74207375636365737366756c000000006044820152606401610337565b7f5845892132946850460bff5a0083f71031bc5bf9aadcd40f1de79423eac9b10b8b338c8c60405161068394939291906122c8565b60405180910390a19a9950505050505050505050565b6060606e80546106a890612314565b80601f01602080910402602001604051908101604052809291908181526020018280546106d490612314565b80156107215780601f106106f657610100808354040283529160200191610721565b820191906000526020600020905b81548152906001019060200180831161070457829003601f168201915b50505050509050919050565b609e546000906001600160a01b0316331461075a5760405162461bcd60e51b81526004016103379061234e565b61077584848460405180602001604052806000815250610e86565b5060019392505050565b610787610f95565b6001600160a01b0316856001600160a01b031614806107ad57506107ad8561027c610f95565b6107c95760405162461bcd60e51b815260040161033790612393565b6107d68585858585610fa4565b5050505050565b606081518351146108425760405162461bcd60e51b815260206004820152602960248201527f455243313135353a206163636f756e747320616e6420696473206c656e677468604482015268040dad2e6dac2e8c6d60bb1b6064820152608401610337565b600083516001600160401b0381111561085d5761085d611cdd565b604051908082528060200260200182016040528015610886578160200160208202803683370190505b50905060005b84518110156108fe576108d18582815181106108aa576108aa6123e1565b60200260200101518583815181106108c4576108c46123e1565b60200260200101516102d0565b8282815181106108e3576108e36123e1565b60209081029190910101526108f78161240d565b905061088c565b509392505050565b609e546000906001600160a01b031633146109335760405162461bcd60e51b81526004016103379061234e565b85848114801561094257508083145b61098e5760405162461bcd60e51b815260206004820181905260248201527f4368696c64455243313135353a206172726179206c656e206d69736d617463686044820152606401610337565b60005b81811015610a1257610a0a8989838181106109ae576109ae6123e1565b90506020020160208101906109c39190611cc2565b8888848181106109d5576109d56123e1565b905060200201358787858181106109ee576109ee6123e1565b9050602002013560405180602001604052806000815250610e86565b600101610991565b50600198975050505050505050565b609e546000906001600160a01b03163314610a4e5760405162461bcd60e51b81526004016103379061234e565b610abc8686868080602002602001604051908101604052809392919081815260200183836020028082843760009201919091525050604080516020808a0282810182019093528982529093508992508891829185019084908082843760009201919091525061114692505050565b50600195945050505050565b600754610100900460ff1615808015610ae85750600754600160ff909116105b80610b025750303b158015610b02575060075460ff166001145b610b655760405162461bcd60e51b815260206004820152602e60248201527f496e697469616c697a61626c653a20636f6e747261637420697320616c72656160448201526d191e481a5b9a5d1a585b1a5e995960921b6064820152608401610337565b6007805460ff191660011790558015610b88576007805461ff0019166101001790555b6001600160a01b038616610bde5760405162461bcd60e51b815260206004820181905260248201527f4368696c64455243313135353a204241445f494e495449414c495a4154494f4e6044820152606401610337565b609f80546001600160a01b0388166001600160a01b031991821617909155609e805490911633179055604080516020601f8501819004810282018101909252838152610c449185908590819084018382808284376000920191909152506112de92505050565b610c9c85858080601f016020809104026020016040519081016040528093929190818152602001838380828437600092019190915250506040805180820190915260018152603160f81b602082015291506113119050565b8015610ce2576007805461ff0019169055604051600181527f7f26b83ff96e1f2b6a682f133852f6798a09c465da95921460cefb38474024989060200160405180910390a15b505050505050565b610cfc610cf5610f95565b838361137d565b5050565b610d08610f95565b6001600160a01b0316856001600160a01b03161480610d2e5750610d2e8561027c610f95565b610d4a5760405162461bcd60e51b815260040161033790612393565b6107d6858585858561145d565b609e546000906001600160a01b03163314610d845760405162461bcd60e51b81526004016103379061234e565b610775848484611584565b60008151600003610da257506000919050565b506020015190565b6000806001610dc0610dbb88611684565b611701565b6040805160008152602081018083529290925260ff861690820152606081018790526080810186905260a0016020604051602081039080840390855afa158015610e0e573d6000803e3d6000fd5b5050604051601f1901519150506001600160a01b038116610e655760405162461bcd60e51b8152602060048201526011602482015270496e76616c6964207369676e617475726560781b6044820152606401610337565b866001600160a01b0316816001600160a01b03161491505095945050505050565b6001600160a01b038416610ee65760405162461bcd60e51b815260206004820152602160248201527f455243313135353a206d696e7420746f20746865207a65726f206164647265736044820152607360f81b6064820152608401610337565b6000610ef0610f95565b90506000610efd8561174f565b90506000610f0a8561174f565b90506000868152606c602090815260408083206001600160a01b038b16845290915281208054879290610f3e908490612426565b909155505060408051878152602081018790526001600160a01b03808a1692600092918716916000805160206128c7833981519152910160405180910390a4610f8c8360008989898961179a565b50505050505050565b6000610f9f6118f5565b905090565b8151835114610fc55760405162461bcd60e51b815260040161033790612439565b6001600160a01b038416610feb5760405162461bcd60e51b815260040161033790612481565b6000610ff5610f95565b905060005b84518110156110e0576000858281518110611017576110176123e1565b602002602001015190506000858381518110611035576110356123e1565b6020908102919091018101516000848152606c835260408082206001600160a01b038e1683529093529190912054909150818110156110865760405162461bcd60e51b8152600401610337906124c6565b6000838152606c602090815260408083206001600160a01b038e8116855292528083208585039055908b168252812080548492906110c5908490612426565b92505081905550505050806110d99061240d565b9050610ffa565b50846001600160a01b0316866001600160a01b0316826001600160a01b03167f4a39dc06d4c0dbc64b70af90fd698a233a518aa5d07e595d983b8c0526c8f7fb8787604051611130929190612510565b60405180910390a4610ce2818787878787611951565b6001600160a01b03831661116c5760405162461bcd60e51b81526004016103379061253e565b805182511461118d5760405162461bcd60e51b815260040161033790612439565b6000611197610f95565b604080516020810190915260009052905060005b83518110156112705760008482815181106111c8576111c86123e1565b6020026020010151905060008483815181106111e6576111e66123e1565b6020908102919091018101516000848152606c835260408082206001600160a01b038c1683529093529190912054909150818110156112375760405162461bcd60e51b815260040161033790612581565b6000928352606c602090815260408085206001600160a01b038b16865290915290922091039055806112688161240d565b9150506111ab565b5060006001600160a01b0316846001600160a01b0316826001600160a01b03167f4a39dc06d4c0dbc64b70af90fd698a233a518aa5d07e595d983b8c0526c8f7fb86866040516112c1929190612510565b60405180910390a460408051602081019091526000905250505050565b600754610100900460ff166113055760405162461bcd60e51b8152600401610337906125c5565b61130e81611a0c565b50565b815160208084019190912082519183019190912060038290556004819055466001557f8b73c3c69bb8fe3d512ecc4cf759cc79239f7b179b0ffacaa9a75d522b39400f61135f818484611a3c565b600055600280546001600160a01b0319163017905560055550505050565b816001600160a01b0316836001600160a01b0316036113f05760405162461bcd60e51b815260206004820152602960248201527f455243313135353a2073657474696e6720617070726f76616c20737461747573604482015268103337b91039b2b63360b91b6064820152608401610337565b6001600160a01b038381166000818152606d6020908152604080832094871680845294825291829020805460ff191686151590811790915591519182527f17307eab39ab6107e8899845ad3d59bd9653f200f220920489ca2b5937696c31910160405180910390a3505050565b6001600160a01b0384166114835760405162461bcd60e51b815260040161033790612481565b600061148d610f95565b9050600061149a8561174f565b905060006114a78561174f565b90506000868152606c602090815260408083206001600160a01b038c168452909152902054858110156114ec5760405162461bcd60e51b8152600401610337906124c6565b6000878152606c602090815260408083206001600160a01b038d8116855292528083208985039055908a1682528120805488929061152b908490612426565b909155505060408051888152602081018890526001600160a01b03808b16928c821692918816916000805160206128c7833981519152910160405180910390a4611579848a8a8a8a8a61179a565b505050505050505050565b6001600160a01b0383166115aa5760405162461bcd60e51b81526004016103379061253e565b60006115b4610f95565b905060006115c18461174f565b905060006115ce8461174f565b6040805160208082018352600091829052888252606c81528282206001600160a01b038b168352905220549091508481101561161c5760405162461bcd60e51b815260040161033790612581565b6000868152606c602090815260408083206001600160a01b038b81168086529184528285208a8703905582518b81529384018a90529092908816916000805160206128c7833981519152910160405180910390a4604080516020810190915260009052610f8c565b60006040518060800160405280604381526020016128e760439139805160209182012083518483015160408087015180519086012090516116e4950193845260208401929092526001600160a01b03166040830152606082015260800190565b604051602081830303815290604052805190602001209050919050565b600061036561170e611a85565b8360405161190160f01b6020820152602281018390526042810182905260009060620160405160208183030381529060405280519060200120905092915050565b60408051600180825281830190925260609160009190602080830190803683370190505090508281600081518110611789576117896123e1565b602090810291909101015292915050565b6001600160a01b0384163b15610ce25760405163f23a6e6160e01b81526001600160a01b0385169063f23a6e61906117de9089908990889088908890600401612610565b6020604051808303816000875af1925050508015611819575060408051601f3d908101601f1916820190925261181691810190612655565b60015b6118c557611825612672565b806308c379a00361185e575061183961268d565b806118445750611860565b8060405162461bcd60e51b81526004016103379190611c63565b505b60405162461bcd60e51b815260206004820152603460248201527f455243313135353a207472616e7366657220746f206e6f6e2d455243313135356044820152732932b1b2b4bb32b91034b6b83632b6b2b73a32b960611b6064820152608401610337565b6001600160e01b0319811663f23a6e6160e01b14610f8c5760405162461bcd60e51b815260040161033790612716565b600030330361194b57600080368080601f0160208091040260200160405190810160405280939291908181526020018383808284376000920191909152505050503601516001600160a01b0316915061194e9050565b50335b90565b6001600160a01b0384163b15610ce25760405163bc197c8160e01b81526001600160a01b0385169063bc197c8190611995908990899088908890889060040161275e565b6020604051808303816000875af19250505080156119d0575060408051601f3d908101601f191682019092526119cd91810190612655565b60015b6119dc57611825612672565b6001600160e01b0319811663bc197c8160e01b14610f8c5760405162461bcd60e51b815260040161033790612716565b600754610100900460ff16611a335760405162461bcd60e51b8152600401610337906125c5565b61130e81611ac0565b6040805160208101859052908101839052606081018290524660808201523060a082015260009060c0016040516020818303038152906040528051906020012090509392505050565b6002546000906001600160a01b031630148015611aa3575060015446145b15611aaf575060005490565b610f9f600554600354600454611a3c565b606e610cfc8282612807565b80356001600160a01b0381168114611ae357600080fd5b919050565b60008060408385031215611afb57600080fd5b611b0483611acc565b946020939093013593505050565b6001600160e01b03198116811461130e57600080fd5b600060208284031215611b3a57600080fd5b8135611b4581611b12565b9392505050565b60008083601f840112611b5e57600080fd5b5081356001600160401b03811115611b7557600080fd5b602083019150836020828501011115611b8d57600080fd5b9250929050565b60008060008060008060a08789031215611bad57600080fd5b611bb687611acc565b955060208701356001600160401b03811115611bd157600080fd5b611bdd89828a01611b4c565b9096509450506040870135925060608701359150608087013560ff81168114611c0557600080fd5b809150509295509295509295565b60005b83811015611c2e578181015183820152602001611c16565b50506000910152565b60008151808452611c4f816020860160208601611c13565b601f01601f19169290920160200192915050565b602081526000611b456020830184611c37565b600060208284031215611c8857600080fd5b5035919050565b600080600060608486031215611ca457600080fd5b611cad84611acc565b95602085013595506040909401359392505050565b600060208284031215611cd457600080fd5b611b4582611acc565b634e487b7160e01b600052604160045260246000fd5b601f8201601f191681016001600160401b0381118282101715611d1857611d18611cdd565b6040525050565b60006001600160401b03821115611d3857611d38611cdd565b5060051b60200190565b600082601f830112611d5357600080fd5b81356020611d6082611d1f565b604051611d6d8282611cf3565b83815260059390931b8501820192828101915086841115611d8d57600080fd5b8286015b84811015611da85780358352918301918301611d91565b509695505050505050565b600082601f830112611dc457600080fd5b81356001600160401b03811115611ddd57611ddd611cdd565b604051611df4601f8301601f191660200182611cf3565b818152846020838601011115611e0957600080fd5b816020850160208301376000918101602001919091529392505050565b600080600080600060a08688031215611e3e57600080fd5b611e4786611acc565b9450611e5560208701611acc565b935060408601356001600160401b0380821115611e7157600080fd5b611e7d89838a01611d42565b94506060880135915080821115611e9357600080fd5b611e9f89838a01611d42565b93506080880135915080821115611eb557600080fd5b50611ec288828901611db3565b9150509295509295909350565b60008060408385031215611ee257600080fd5b82356001600160401b0380821115611ef957600080fd5b818501915085601f830112611f0d57600080fd5b81356020611f1a82611d1f565b604051611f278282611cf3565b83815260059390931b8501820192828101915089841115611f4757600080fd5b948201945b83861015611f6c57611f5d86611acc565b82529482019490820190611f4c565b96505086013592505080821115611f8257600080fd5b50611f8f85828601611d42565b9150509250929050565b600081518084526020808501945080840160005b83811015611fc957815187529582019590820190600101611fad565b509495945050505050565b602081526000611b456020830184611f99565b60008083601f840112611ff957600080fd5b5081356001600160401b0381111561201057600080fd5b6020830191508360208260051b8501011115611b8d57600080fd5b6000806000806000806060878903121561204457600080fd5b86356001600160401b038082111561205b57600080fd5b6120678a838b01611fe7565b9098509650602089013591508082111561208057600080fd5b61208c8a838b01611fe7565b909650945060408901359150808211156120a557600080fd5b506120b289828a01611fe7565b979a9699509497509295939492505050565b6000806000806000606086880312156120dc57600080fd5b6120e586611acc565b945060208601356001600160401b038082111561210157600080fd5b61210d89838a01611fe7565b9096509450604088013591508082111561212657600080fd5b5061213388828901611fe7565b969995985093965092949392505050565b60008060008060006060868803121561215c57600080fd5b61216586611acc565b945060208601356001600160401b038082111561218157600080fd5b61218d89838a01611b4c565b909650945060408801359150808211156121a657600080fd5b5061213388828901611b4c565b600080604083850312156121c657600080fd5b6121cf83611acc565b9150602083013580151581146121e457600080fd5b809150509250929050565b6000806040838503121561220257600080fd5b61220b83611acc565b915061221960208401611acc565b90509250929050565b600080600080600060a0868803121561223a57600080fd5b61224386611acc565b945061225160208701611acc565b9350604086013592506060860135915060808601356001600160401b0381111561227a57600080fd5b611ec288828901611db3565b8284823760609190911b6bffffffffffffffffffffffff19169101908152601401919050565b600082516122be818460208701611c13565b9190910192915050565b6001600160a01b0385811682528416602082015260606040820181905281018290526000828460808401376000608084840101526080601f19601f850116830101905095945050505050565b600181811c9082168061232857607f821691505b60208210810361234857634e487b7160e01b600052602260045260246000fd5b50919050565b60208082526025908201527f4368696c64455243313135353a204f6e6c79207072656469636174652063616e6040820152640818d85b1b60da1b606082015260800190565b6020808252602e908201527f455243313135353a2063616c6c6572206973206e6f7420746f6b656e206f776e60408201526d195c881bdc88185c1c1c9bdd995960921b606082015260800190565b634e487b7160e01b600052603260045260246000fd5b634e487b7160e01b600052601160045260246000fd5b60006001820161241f5761241f6123f7565b5060010190565b80820180821115610365576103656123f7565b60208082526028908201527f455243313135353a2069647320616e6420616d6f756e7473206c656e677468206040820152670dad2e6dac2e8c6d60c31b606082015260800190565b60208082526025908201527f455243313135353a207472616e7366657220746f20746865207a65726f206164604082015264647265737360d81b606082015260800190565b6020808252602a908201527f455243313135353a20696e73756666696369656e742062616c616e636520666f60408201526939103a3930b739b332b960b11b606082015260800190565b6040815260006125236040830185611f99565b82810360208401526125358185611f99565b95945050505050565b60208082526023908201527f455243313135353a206275726e2066726f6d20746865207a65726f206164647260408201526265737360e81b606082015260800190565b60208082526024908201527f455243313135353a206275726e20616d6f756e7420657863656564732062616c604082015263616e636560e01b606082015260800190565b6020808252602b908201527f496e697469616c697a61626c653a20636f6e7472616374206973206e6f74206960408201526a6e697469616c697a696e6760a81b606082015260800190565b6001600160a01b03868116825285166020820152604081018490526060810183905260a06080820181905260009061264a90830184611c37565b979650505050505050565b60006020828403121561266757600080fd5b8151611b4581611b12565b600060033d111561194e5760046000803e5060005160e01c90565b600060443d101561269b5790565b6040516003193d81016004833e81513d6001600160401b0381602484011181841117156126ca57505050505090565b82850191508151818111156126e25750505050505090565b843d87010160208285010111156126fc5750505050505090565b61270b60208286010187611cf3565b509095945050505050565b60208082526028908201527f455243313135353a204552433131353552656365697665722072656a656374656040820152676420746f6b656e7360c01b606082015260800190565b6001600160a01b0386811682528516602082015260a06040820181905260009061278a90830186611f99565b828103606084015261279c8186611f99565b905082810360808401526127b08185611c37565b98975050505050505050565b601f82111561280257600081815260208120601f850160051c810160208610156127e35750805b601f850160051c820191505b81811015610ce2578281556001016127ef565b505050565b81516001600160401b0381111561282057612820611cdd565b6128348161282e8454612314565b846127bc565b602080601f83116001811461286957600084156128515750858301515b600019600386901b1c1916600185901b178555610ce2565b600085815260208120601f198616915b8281101561289857888601518255948401946001909101908401612879565b50858210156128b65787850151600019600388901b60f8161c191681555b5050505050600190811b0190555056fec3d58168c5ae7397731d063d5bbf3d657854427343f4c083240f7aacaa2d0f624d6574615472616e73616374696f6e2875696e74323536206e6f6e63652c616464726573732066726f6d2c62797465732066756e6374696f6e5369676e617475726529a2646970667358221220693788ee4744d529ea99b60c87a32c48cdba1494cabf179463eb26c57695cf6864736f6c63430008110033",
  "linkReferences": {},
  "deployedLinkReferences": {}
}