{
  "_format": "hh-sol-artifact-1",
  "contractName": "RootERC1155Predicate",
  "sourceName": "contracts/root/RootERC1155Predicate.sol",
  "abi": [
    {
      "anonymous": false,
      "inputs": [
        {
          "indexed": true,
          "internalType": "address",
          "name": "rootToken",
          "type": "address"
        },
        {
          "indexed": true,
          "internalType": "address",
          "name": "childToken",
          "type": "address"
        },
        {
          "indexed": false,
          "internalType": "address",
          "name": "depositor",
          "type": "address"
        },
        {
          "indexed": true,
          "internalType": "address",
          "name": "receiver",
          "type": "address"
        },
        {
          "indexed": false,
          "internalType": "uint256",
          "name": "tokenId",
          "type": "uint256"
        },
        {
          "indexed": false,
          "internalType": "uint256",
          "name": "amount",
          "type": "uint256"
        }
      ],
      "name": "ERC1155Deposit",
      "type": "event"
    },
    {
      "anonymous": false,
      "inputs": [
        {
          "indexed": true,
          "internalType": "address",
          "name": "rootToken",
          "type": "address"
        },
        {
          "indexed": true,
          "internalType": "address",
          "name": "childToken",
          "type": "address"
        },
        {
          "indexed": true,
          "internalType": "address",
          "name": "depositor",
          "type": "address"
        },
        {
          "indexed": false,
          "internalType": "address[]",
          "name": "receivers",
          "type": "address[]"
        },
        {
          "indexed": false,
          "internalType": "uint256[]",
          "name": "tokenIds",
          "type": "uint256[]"
        },
        {
          "indexed": false,
          "internalType": "uint256[]",
          "name": "amounts",
          "type": "uint256[]"
        }
      ],
      "name": "ERC1155DepositBatch",
      "type": "event"
    },
    {
      "anonymous": false,
      "inputs": [
        {
          "indexed": true,
          "internalType": "address",
          "name": "rootToken",
          "type": "address"
        },
        {
          "indexed": true,
          "internalType": "address",
          "name": "childToken",
          "type": "address"
        },
        {
          "indexed": false,
          "internalType": "address",
          "name": "withdrawer",
          "type": "address"
        },
        {
          "indexed": true,
          "internalType": "address",
          "name": "receiver",
          "type": "address"
        },
        {
          "indexed": false,
          "internalType": "uint256",
          "name": "tokenId",
          "type": "uint256"
        },
        {
          "indexed": false,
          "internalType": "uint256",
          "name": "amount",
          "type": "uint256"
        }
      ],
      "name": "ERC1155Withdraw",
      "type": "event"
    },
    {
      "anonymous": false,
      "inputs": [
        {
          "indexed": true,
          "internalType": "address",
          "name": "rootToken",
          "type": "address"
        },
        {
          "indexed": true,
          "internalType": "address",
          "name": "childToken",
          "type": "address"
        },
        {
          "indexed": true,
          "internalType": "address",
          "name": "withdrawer",
          "type": "address"
        },
        {
          "indexed": false,
          "internalType": "address[]",
          "name": "receivers",
          "type": "address[]"
        },
        {
          "indexed": false,
          "internalType": "uint256[]",
          "name": "tokenIds",
          "type": "uint256[]"
        },
        {
          "indexed": false,
          "internalType": "uint256[]",
          "name": "amounts",
          "type": "uint256[]"
        }
      ],
      "name": "ERC1155WithdrawBatch",
      "type": "event"
    },
    {
      "anonymous": false,
      "inputs": [
        {
          "indexed": false,
          "internalType": "uint8",
          "name": "version",
          "type": "uint8"
        }
      ],
      "name": "Initialized",
      "type": "event"
    },
    {
      "anonymous": false,
      "inputs": [
        {
          "indexed": true,
          "internalType": "address",
          "name": "rootToken",
          "type": "address"
        },
        {
          "indexed": true,
          "internalType": "address",
          "name": "childToken",
          "type": "address"
        }
      ],
      "name": "TokenMapped",
      "type": "event"
    },
    {
      "inputs": [],
      "name": "DEPOSIT_BATCH_SIG",
      "outputs": [
        {
          "internalType": "bytes32",
          "name": "",
          "type": "bytes32"
        }
      ],
      "stateMutability": "view",
      "type": "function"
    },
    {
      "inputs": [],
      "name": "DEPOSIT_SIG",
      "outputs": [
        {
          "internalType": "bytes32",
          "name": "",
          "type": "bytes32"
        }
      ],
      "stateMutability": "view",
      "type": "function"
    },
    {
      "inputs": [],
      "name": "MAP_TOKEN_SIG",
      "outputs": [
        {
          "internalType": "bytes32",
          "name": "",
          "type": "bytes32"
        }
      ],
      "stateMutability": "view",
      "type": "function"
    },
    {
      "inputs": [],
      "name": "WITHDRAW_BATCH_SIG",
      "outputs": [
        {
          "internalType": "bytes32",
          "name": "",
          "type": "bytes32"
        }
      ],
      "stateMutability": "view",
      "type": "function"
    },
    {
      "inputs": [],
      "name": "WITHDRAW_SIG",
      "outputs": [
        {
          "internalType": "bytes32",
          "name": "",
          "type": "bytes32"
        }
      ],
      "stateMutability": "view",
      "type": "function"
    },
    {
      "inputs": [],
      "name": "childERC1155Predicate",
      "outputs": [
        {
          "internalType": "address",
          "name": "",
          "type": "address"
        }
      ],
      "stateMutability": "view",
      "type": "function"
    },
    {
      "inputs": [],
      "name": "childTokenTemplate",
      "outputs": [
        {
          "internalType": "address",
          "name": "",
          "type": "address"
        }
      ],
      "stateMutability": "view",
      "type": "function"
    },
    {
      "inputs": [
        {
          "internalType": "contract IERC1155MetadataURI",
          "name": "rootToken",
          "type": "address"
        },
        {
          "internalType": "uint256",
          "name": "tokenId",
          "type": "uint256"
        },
        {
          "internalType": "uint256",
          "name": "amount",
          "type": "uint256"
        }
      ],
      "name": "deposit",
      "outputs": [],
      "stateMutability": "nonpayable",
      "type": "function"
    },
    {
      "inputs": [
        {
          "internalType": "contract IERC1155MetadataURI",
          "name": "rootToken",
          "type": "address"
        },
        {
          "internalType": "address[]",
          "name": "receivers",
          "type": "address[]"
        },
        {
          "internalType": "uint256[]",
          "name": "tokenIds",
          "type": "uint256[]"
        },
        {
          "internalType": "uint256[]",
          "name": "amounts",
          "type": "uint256[]"
        }
      ],
      "name": "depositBatch",
      "outputs": [],
      "stateMutability": "nonpayable",
      "type": "function"
    },
    {
      "inputs": [
        {
          "internalType": "contract IERC1155MetadataURI",
          "name": "rootToken",
          "type": "address"
        },
        {
          "internalType": "address",
          "name": "receiver",
          "type": "address"
        },
        {
          "internalType": "uint256",
          "name": "tokenId",
          "type": "uint256"
        },
        {
          "internalType": "uint256",
          "name": "amount",
          "type": "uint256"
        }
      ],
      "name": "depositTo",
      "outputs": [],
      "stateMutability": "nonpayable",
      "type": "function"
    },
    {
      "inputs": [],
      "name": "exitHelper",
      "outputs": [
        {
          "internalType": "address",
          "name": "",
          "type": "address"
        }
      ],
      "stateMutability": "view",
      "type": "function"
    },
    {
      "inputs": [
        {
          "internalType": "address",
          "name": "newStateSender",
          "type": "address"
        },
        {
          "internalType": "address",
          "name": "newExitHelper",
          "type": "address"
        },
        {
          "internalType": "address",
          "name": "newChildERC1155Predicate",
          "type": "address"
        },
        {
          "internalType": "address",
          "name": "newChildTokenTemplate",
          "type": "address"
        },
        {
          "internalType": "address",
          "name": "nativeTokenRootAddress",
          "type": "address"
        }
      ],
      "name": "initialize",
      "outputs": [],
      "stateMutability": "nonpayable",
      "type": "function"
    },
    {
      "inputs": [
        {
          "internalType": "contract IERC1155MetadataURI",
          "name": "rootToken",
          "type": "address"
        }
      ],
      "name": "mapToken",
      "outputs": [
        {
          "internalType": "address",
          "name": "childToken",
          "type": "address"
        }
      ],
      "stateMutability": "nonpayable",
      "type": "function"
    },
    {
      "inputs": [
        {
          "internalType": "address",
          "name": "",
          "type": "address"
        },
        {
          "internalType": "address",
          "name": "",
          "type": "address"
        },
        {
          "internalType": "uint256[]",
          "name": "",
          "type": "uint256[]"
        },
        {
          "internalType": "uint256[]",
          "name": "",
          "type": "uint256[]"
        },
        {
          "internalType": "bytes",
          "name": "",
          "type": "bytes"
        }
      ],
      "name": "onERC1155BatchReceived",
      "outputs": [
        {
          "internalType": "bytes4",
          "name": "",
          "type": "bytes4"
        }
      ],
      "stateMutability": "nonpayable",
      "type": "function"
    },
    {
      "inputs": [
        {
          "internalType": "address",
          "name": "",
          "type": "address"
        },
        {
          "internalType": "address",
          "name": "",
          "type": "address"
        },
        {
          "internalType": "uint256",
          "name": "",
          "type": "uint256"
        },
        {
          "internalType": "uint256",
          "name": "",
          "type": "uint256"
        },
        {
          "internalType": "bytes",
          "name": "",
          "type": "bytes"
        }
      ],
      "name": "onERC1155Received",
      "outputs": [
        {
          "internalType": "bytes4",
          "name": "",
          "type": "bytes4"
        }
      ],
      "stateMutability": "nonpayable",
      "type": "function"
    },
    {
      "inputs": [
        {
          "internalType": "uint256",
          "name": "",
          "type": "uint256"
        },
        {
          "internalType": "address",
          "name": "sender",
          "type": "address"
        },
        {
          "internalType": "bytes",
          "name": "data",
          "type": "bytes"
        }
      ],
      "name": "onL2StateReceive",
      "outputs": [],
      "stateMutability": "nonpayable",
      "type": "function"
    },
    {
      "inputs": [
        {
          "internalType": "address",
          "name": "",
          "type": "address"
        }
      ],
      "name": "rootTokenToChildToken",
      "outputs": [
        {
          "internalType": "address",
          "name": "",
          "type": "address"
        }
      ],
      "stateMutability": "view",
      "type": "function"
    },
    {
      "inputs": [],
      "name": "stateSender",
      "outputs": [
        {
          "internalType": "contract IStateSender",
          "name": "",
          "type": "address"
        }
      ],
      "stateMutability": "view",
      "type": "function"
    },
    {
      "inputs": [
        {
          "internalType": "bytes4",
          "name": "interfaceId",
          "type": "bytes4"
        }
      ],
      "name": "supportsInterface",
      "outputs": [
        {
          "internalType": "bool",
          "name": "",
          "type": "bool"
        }
      ],
      "stateMutability": "view",
      "type": "function"
    }
  ],
  "bytecode": "0x608060405234801561001057600080fd5b50611af7806100206000396000f3fe608060405234801561001057600080fd5b50600436106101215760003560e01c8063b68ad1e4116100ad578063d7c9e3ec11610071578063d7c9e3ec146102ea578063f23a6e6114610311578063f43cda8b14610330578063f4a120f714610343578063f64512551461035657600080fd5b8063b68ad1e414610238578063bc197c811461024b578063c5ac2b1c14610283578063cb10f94c146102aa578063d41f1771146102c357600080fd5b8063654715e6116100f4578063654715e6146101895780637efab4f5146101b457806395c7041c146101dd578063a78e111c146101f0578063b17680651461020357600080fd5b806301ffc9a7146101265780630efe6a8b1461014e5780631459457a146101635780634c4c45de14610176575b600080fd5b61013961013436600461114a565b61037d565b60405190151581526020015b60405180910390f35b61016161015c366004611193565b6103b4565b005b6101616101713660046111c8565b6103c5565b610161610184366004611284565b610635565b60025461019c906001600160a01b031681565b6040516001600160a01b039091168152602001610145565b61019c6101c2366004611330565b6004602052600090815260409020546001600160a01b031681565b60015461019c906001600160a01b031681565b6101616101fe36600461134d565b6106b3565b61022a7f7a8dc26796a1e50e6e190b70259f58f6a4edd5b22280ceecc82b687b8e98286981565b604051908152602001610145565b60035461019c906001600160a01b031681565b61026a6102593660046114d6565b63bc197c8160e01b95945050505050565b6040516001600160e01b03199091168152602001610145565b61022a7faf50c8eab81226bc79eee3a10e3fe25db1a2be7241130e392b0675df839b6d1881565b60005461019c906201000090046001600160a01b031681565b61022a7f87a7811f4bfedea3d341ad165680ae306b01aaeacc205d227629cf157dd9f82181565b61022a7f5fb452c5a8f2b7c7ef2984e2f1063c7ee9b80b110cdc98ccb98f6654e10b5ed281565b61026a61031f366004611583565b63f23a6e6160e01b95945050505050565b61016161033e3660046115eb565b6106c5565b61019c610351366004611330565b610894565b61022a7f2cef46a936bdc5b7e6e8c71aa04560c41cf7d88bb26901a7e7f4936ff02accad81565b60006001600160e01b03198216630271189760e51b14806103ae57506301ffc9a760e01b6001600160e01b03198316145b92915050565b6103c083338484610b2b565b505050565b600054610100900460ff16158080156103e55750600054600160ff909116105b806103ff5750303b1580156103ff575060005460ff166001145b6104675760405162461bcd60e51b815260206004820152602e60248201527f496e697469616c697a61626c653a20636f6e747261637420697320616c72656160448201526d191e481a5b9a5d1a585b1a5e995960921b60648201526084015b60405180910390fd5b6000805460ff19166001179055801561048a576000805461ff0019166101001790555b6001600160a01b038616158015906104aa57506001600160a01b03851615155b80156104be57506001600160a01b03841615155b80156104d257506001600160a01b03831615155b61052f5760405162461bcd60e51b815260206004820152602860248201527f526f6f74455243313135355072656469636174653a204241445f494e495449416044820152672624ad20aa24a7a760c11b606482015260840161045e565b6000805462010000600160b01b031916620100006001600160a01b038981169190910291909117909155600180546001600160a01b031990811688841617909155600280548216878416179055600380549091168583161790558216156105e7576001600160a01b03821660008181526004602052604080822080546001600160a01b03191661101090811790915590519092917f85920d35e6c72f6b2affffa04298b0cecfeba86e4a9f407df661f1cb8ab5e61791a35b801561062d576000805461ff0019169055604051600181527f7f26b83ff96e1f2b6a682f133852f6798a09c465da95921460cefb38474024989060200160405180910390a15b505050505050565b848314801561064357508481145b61069b5760405162461bcd60e51b8152602060048201526024808201527f526f6f74455243313135355072656469636174653a20494e56414c49445f4c4560448201526309c8ea8960e31b606482015260840161045e565b6106aa87878787878787610cc3565b50505050505050565b6106bf84848484610b2b565b50505050565b6001546001600160a01b0316331461072e5760405162461bcd60e51b815260206004820152602660248201527f526f6f74455243313135355072656469636174653a204f4e4c595f455849545f6044820152652422a62822a960d11b606482015260840161045e565b6002546001600160a01b0384811691161461079e5760405162461bcd60e51b815260206004820152602a60248201527f526f6f74455243313135355072656469636174653a204f4e4c595f4348494c446044820152695f50524544494341544560b01b606482015260840161045e565b7f7a8dc26796a1e50e6e190b70259f58f6a4edd5b22280ceecc82b687b8e9828696107cd602060008486611673565b6107d69161169d565b036107f5576107f06107eb8260208186611673565b610ea3565b6106bf565b7f5fb452c5a8f2b7c7ef2984e2f1063c7ee9b80b110cdc98ccb98f6654e10b5ed2610824602060008486611673565b61082d9161169d565b0361083c576107f08282610fa2565b60405162461bcd60e51b815260206004820152602760248201527f526f6f74455243313135355072656469636174653a20494e56414c49445f5349604482015266474e415455524560c81b606482015260840161045e565b60006001600160a01b0382166108f85760405162461bcd60e51b815260206004820152602360248201527f526f6f74455243313135355072656469636174653a20494e56414c49445f544f60448201526225a2a760e91b606482015260840161045e565b6001600160a01b03828116600090815260046020526040902054161561096c5760405162461bcd60e51b8152602060048201526024808201527f526f6f74455243313135355072656469636174653a20414c52454144595f4d416044820152631414115160e21b606482015260840161045e565b6003546040516bffffffffffffffffffffffff19606085901b166020820152610a1a916001600160a01b03169060340160408051808303601f190181529082905280516020909101206002546001600160a01b031660388301526f5af43d82803e903d91602b57fd5bf3ff60248301526014820192909252733d602d80600a3d3981f3363d3d373d3d3d363d73815260588101919091526037600c8201206078820152605560439091012090565b6001600160a01b03838116600081815260046020908152604080832080546001600160a01b031916878716179055915460025483517f2cef46a936bdc5b7e6e8c71aa04560c41cf7d88bb26901a7e7f4936ff02accad938101939093528284019490945282518083038401815260608301938490526316f1983160e01b909352949550620100009094048316936316f1983193610abc931691906064016116bb565b600060405180830381600087803b158015610ad657600080fd5b505af1158015610aea573d6000803e3d6000fd5b50506040516001600160a01b038085169350851691507f85920d35e6c72f6b2affffa04298b0cecfeba86e4a9f407df661f1cb8ab5e61790600090a3919050565b6000610b3685611103565b604051637921219560e11b81529091506001600160a01b0386169063f242432a90610b6b903390309088908890600401611719565b600060405180830381600087803b158015610b8557600080fd5b505af1158015610b99573d6000803e3d6000fd5b5050600054600254604080517f87a7811f4bfedea3d341ad165680ae306b01aaeacc205d227629cf157dd9f82160208201526001600160a01b038b8116828401523360608301528a8116608083015260a082018a905260c08083018a90528351808403909101815260e08301938490526316f1983160e01b90935262010000909404841695506316f198319450610c36939092169160e4016116bb565b600060405180830381600087803b158015610c5057600080fd5b505af1158015610c64573d6000803e3d6000fd5b505060408051338152602081018790529081018590526001600160a01b03808816935084811692508816907fbcbdf0c69f975f2a4085544938b054f02e77e87cbd055146d388c0be7120e04f9060600160405180910390a45050505050565b6000610cce88611103565b905060005b84811015610d7a57886001600160a01b031663f242432a3330898986818110610cfe57610cfe611751565b90506020020135888887818110610d1757610d17611751565b905060200201356040518563ffffffff1660e01b8152600401610d3d9493929190611719565b600060405180830381600087803b158015610d5757600080fd5b505af1158015610d6b573d6000803e3d6000fd5b50505050806001019050610cd3565b506000546002546040516001600160a01b03620100009093048316926316f19831921690610ddc907faf50c8eab81226bc79eee3a10e3fe25db1a2be7241130e392b0675df839b6d18908d9033908e908e908e908e908e908e906020016117e2565b6040516020818303038152906040526040518363ffffffff1660e01b8152600401610e089291906116bb565b600060405180830381600087803b158015610e2257600080fd5b505af1158015610e36573d6000803e3d6000fd5b50505050336001600160a01b0316816001600160a01b0316896001600160a01b03167f7e8ab6f25cb177d65db49b7a2197bb2a7df5757434857d411e2523b332a913e68a8a8a8a8a8a604051610e919695949392919061184d565b60405180910390a45050505050505050565b600080808080610eb586880188611896565b6001600160a01b03808616600090815260046020526040902054959a50939850919650945092501680610eea57610eea6118f1565b604051637921219560e11b81526001600160a01b0387169063f242432a90610f1c903090889088908890600401611719565b600060405180830381600087803b158015610f3657600080fd5b505af1158015610f4a573d6000803e3d6000fd5b5050604080516001600160a01b0389811682526020820188905291810186905281881693508482169250908916907fc42752949ca07109e6f25adcde4a9407be23e084b1d32ca2bce8aa55bf3dd62590606001610e91565b600080808080610fb486880188611907565b6001600160a01b03808616600090815260046020526040902054959b509399509197509550935016905080610feb57610feb6118f1565b60005b83518110156110b157866001600160a01b031663f242432a3087848151811061101957611019611751565b602002602001015187858151811061103357611033611751565b602002602001015187868151811061104d5761104d611751565b60200260200101516040518563ffffffff1660e01b81526004016110749493929190611719565b600060405180830381600087803b15801561108e57600080fd5b505af11580156110a2573d6000803e3d6000fd5b50505050806001019050610fee565b50846001600160a01b0316816001600160a01b0316876001600160a01b03167fce612e98b81c726375e7c2395409e74ee0a29b22f7641ea5a8ce8508616448c0878787604051610e9193929190611a4c565b6001600160a01b03808216600090815260046020526040902054168061112f5761112c82610894565b90505b6001600160a01b038116611145576111456118f1565b919050565b60006020828403121561115c57600080fd5b81356001600160e01b03198116811461117457600080fd5b9392505050565b6001600160a01b038116811461119057600080fd5b50565b6000806000606084860312156111a857600080fd5b83356111b38161117b565b95602085013595506040909401359392505050565b600080600080600060a086880312156111e057600080fd5b85356111eb8161117b565b945060208601356111fb8161117b565b9350604086013561120b8161117b565b9250606086013561121b8161117b565b9150608086013561122b8161117b565b809150509295509295909350565b60008083601f84011261124b57600080fd5b5081356001600160401b0381111561126257600080fd5b6020830191508360208260051b850101111561127d57600080fd5b9250929050565b60008060008060008060006080888a03121561129f57600080fd5b87356112aa8161117b565b965060208801356001600160401b03808211156112c657600080fd5b6112d28b838c01611239565b909850965060408a01359150808211156112eb57600080fd5b6112f78b838c01611239565b909650945060608a013591508082111561131057600080fd5b5061131d8a828b01611239565b989b979a50959850939692959293505050565b60006020828403121561134257600080fd5b81356111748161117b565b6000806000806080858703121561136357600080fd5b843561136e8161117b565b9350602085013561137e8161117b565b93969395505050506040820135916060013590565b634e487b7160e01b600052604160045260246000fd5b604051601f8201601f191681016001600160401b03811182821017156113d1576113d1611393565b604052919050565b60006001600160401b038211156113f2576113f2611393565b5060051b60200190565b600082601f83011261140d57600080fd5b8135602061142261141d836113d9565b6113a9565b82815260059290921b8401810191818101908684111561144157600080fd5b8286015b8481101561145c5780358352918301918301611445565b509695505050505050565b600082601f83011261147857600080fd5b81356001600160401b0381111561149157611491611393565b6114a4601f8201601f19166020016113a9565b8181528460208386010111156114b957600080fd5b816020850160208301376000918101602001919091529392505050565b600080600080600060a086880312156114ee57600080fd5b85356114f98161117b565b945060208601356115098161117b565b935060408601356001600160401b038082111561152557600080fd5b61153189838a016113fc565b9450606088013591508082111561154757600080fd5b61155389838a016113fc565b9350608088013591508082111561156957600080fd5b5061157688828901611467565b9150509295509295909350565b600080600080600060a0868803121561159b57600080fd5b85356115a68161117b565b945060208601356115b68161117b565b9350604086013592506060860135915060808601356001600160401b038111156115df57600080fd5b61157688828901611467565b6000806000806060858703121561160157600080fd5b8435935060208501356116138161117b565b925060408501356001600160401b038082111561162f57600080fd5b818701915087601f83011261164357600080fd5b81358181111561165257600080fd5b88602082850101111561166457600080fd5b95989497505060200194505050565b6000808585111561168357600080fd5b8386111561169057600080fd5b5050820193919092039150565b803560208310156103ae57600019602084900360031b1b1692915050565b60018060a01b038316815260006020604081840152835180604085015260005b818110156116f7578581018301518582016060015282016116db565b506000606082860101526060601f19601f830116850101925050509392505050565b6001600160a01b0394851681529290931660208301526040820152606081019190915260a06080820181905260009082015260c00190565b634e487b7160e01b600052603260045260246000fd5b8183526000602080850194508260005b858110156117a557813561178a8161117b565b6001600160a01b031687529582019590820190600101611777565b509495945050505050565b81835260006001600160fb1b038311156117c957600080fd5b8260051b80836020870137939093016020019392505050565b8981526001600160a01b0389811660208301528816604082015260c060608201819052600090611815908301888a611767565b82810360808401526118288187896117b0565b905082810360a084015261183d8185876117b0565b9c9b505050505050505050505050565b60608152600061186160608301888a611767565b82810360208401526118748187896117b0565b905082810360408401526118898185876117b0565b9998505050505050505050565b600080600080600060a086880312156118ae57600080fd5b85356118b98161117b565b945060208601356118c98161117b565b935060408601356118d98161117b565b94979396509394606081013594506080013592915050565b634e487b7160e01b600052600160045260246000fd5b60008060008060008060c0878903121561192057600080fd5b863595506020808801356119338161117b565b955060408801356119438161117b565b945060608801356001600160401b038082111561195f57600080fd5b818a0191508a601f83011261197357600080fd5b813561198161141d826113d9565b81815260059190911b8301840190848101908d8311156119a057600080fd5b938501935b828510156119c75784356119b88161117b565b825293850193908501906119a5565b9750505060808a01359250808311156119df57600080fd5b6119eb8b848c016113fc565b945060a08a0135925080831115611a0157600080fd5b5050611a0f89828a016113fc565b9150509295509295509295565b600081518084526020808501945080840160005b838110156117a557815187529582019590820190600101611a30565b606080825284519082018190526000906020906080840190828801845b82811015611a8e5781516001600160a01b031684529284019290840190600101611a69565b50505083810382850152611aa28187611a1c565b9150508281036040840152611ab78185611a1c565b969550505050505056fea2646970667358221220cdec0b7a06a1c20011ddd2fb004e5a4847df84f45d5e3d0094844deed103eef664736f6c63430008110033",
  "linkReferences": {},
  "deployedLinkReferences": {}
}