{
  "_format": "hh-sol-artifact-1",
  "contractName": "ForkParams",
  "sourceName": "contracts/child/ForkParams.sol",
  "abi": [
    {
      "inputs": [
        {
          "internalType": "address",
          "name": "newOwner",
          "type": "address"
        }
      ],
      "stateMutability": "nonpayable",
      "type": "constructor"
    },
    {
      "anonymous": false,
      "inputs": [
        {
          "indexed": true,
          "internalType": "address",
          "name": "previousOwner",
          "type": "address"
        },
        {
          "indexed": true,
          "internalType": "address",
          "name": "newOwner",
          "type": "address"
        }
      ],
      "name": "OwnershipTransferred",
      "type": "event"
    },
    {
      "inputs": [
        {
          "internalType": "uint256",
          "name": "blockNumber",
          "type": "uint256"
        },
        {
          "internalType": "string",
          "name": "feature",
          "type": "string"
        }
      ],
      "name": "addNewFeature",
      "outputs": [],
      "stateMutability": "nonpayable",
      "type": "function"
    },
    {
      "inputs": [
        {
          "internalType": "bytes32",
          "name": "",
          "type": "bytes32"
        }
      ],
      "name": "featureToBlockNumber",
      "outputs": [
        {
          "internalType": "uint256",
          "name": "",
          "type": "uint256"
        }
      ],
      "stateMutability": "view",
      "type": "function"
    },
    {
      "inputs": [
        {
          "internalType": "string",
          "name": "feature",
          "type": "string"
        }
      ],
      "name": "isFeatureActivated",
      "outputs": [
        {
          "internalType": "bool",
          "name": "",
          "type": "bool"
        }
      ],
      "stateMutability": "view",
      "type": "function"
    },
    {
      "inputs": [],
      "name": "owner",
      "outputs": [
        {
          "internalType": "address",
          "name": "",
          "type": "address"
        }
      ],
      "stateMutability": "view",
      "type": "function"
    },
    {
      "inputs": [],
      "name": "renounceOwnership",
      "outputs": [],
      "stateMutability": "nonpayable",
      "type": "function"
    },
    {
      "inputs": [
        {
          "internalType": "address",
          "name": "newOwner",
          "type": "address"
        }
      ],
      "name": "transferOwnership",
      "outputs": [],
      "stateMutability": "nonpayable",
      "type": "function"
    },
    {
      "inputs": [
        {
          "internalType": "uint256",
          "name": "newBlockNumber",
          "type": "uint256"
        },
        {
          "internalType": "string",
          "name": "feature",
          "type": "string"
        }
      ],
      "name": "updateFeatureBlock",
      "outputs": [],
      "stateMutability": "nonpayable",
      "type": "function"
    }
  ],
  "bytecode": "0x608060405234801561001057600080fd5b5060405161071938038061071983398101604081905261002f91610097565b61003833610047565b61004181610047565b506100c7565b600080546001600160a01b038381166001600160a01b0319831681178455604051919092169283917f8be0079c531659141344cd1fd0a4f28419497f9722a3daafe3b4186f6b6457e09190a35050565b6000602082840312156100a957600080fd5b81516001600160a01b03811681146100c057600080fd5b9392505050565b610643806100d66000396000f3fe608060405234801561001057600080fd5b506004361061006d5760003560e01c80632428e2341461007257806336c60d6d1461009a578063715018a6146100c85780638da5cb5b146100d2578063c92f5d51146100ed578063cd6598bd14610100578063f2fde38b14610113575b600080fd5b61008561008036600461049d565b610126565b60405190151581526020015b60405180910390f35b6100ba6100a83660046104df565b60016020526000908152604090205481565b604051908152602001610091565b6100d06101ad565b005b6000546040516001600160a01b039091168152602001610091565b6100d06100fb3660046104f8565b6101c1565b6100d061010e3660046104f8565b610269565b6100d0610121366004610544565b610331565b600080600160008585604051602001610140929190610574565b604051602081830303815290604052805190602001208152602001908152602001600020549050806000036101905760405162461bcd60e51b8152600401610187906105a3565b60405180910390fd5b8043106101a15760019150506101a7565b60009150505b92915050565b6101b56103aa565b6101bf6000610404565b565b6101c96103aa565b600082826040516020016101de929190610574565b60408051601f1981840301815291815281516020928301206000818152600190935290822054909250908190036102275760405162461bcd60e51b8152600401610187906105a3565b43851015801561023657508043105b6102525760405162461bcd60e51b8152600401610187906105da565b506000908152600160205260409020929092555050565b6102716103aa565b438310156102915760405162461bcd60e51b8152600401610187906105da565b600082826040516020016102a6929190610574565b60408051601f198184030181529181528151602092830120600081815260019093529120549091501561031b5760405162461bcd60e51b815260206004820152601a60248201527f466f726b506172616d733a20464541545552455f4558495354530000000000006044820152606401610187565b6000908152600160205260409020929092555050565b6103396103aa565b6001600160a01b03811661039e5760405162461bcd60e51b815260206004820152602660248201527f4f776e61626c653a206e6577206f776e657220697320746865207a65726f206160448201526564647265737360d01b6064820152608401610187565b6103a781610404565b50565b6000546001600160a01b031633146101bf5760405162461bcd60e51b815260206004820181905260248201527f4f776e61626c653a2063616c6c6572206973206e6f7420746865206f776e65726044820152606401610187565b600080546001600160a01b038381166001600160a01b0319831681178455604051919092169283917f8be0079c531659141344cd1fd0a4f28419497f9722a3daafe3b4186f6b6457e09190a35050565b60008083601f84011261046657600080fd5b50813567ffffffffffffffff81111561047e57600080fd5b60208301915083602082850101111561049657600080fd5b9250929050565b600080602083850312156104b057600080fd5b823567ffffffffffffffff8111156104c757600080fd5b6104d385828601610454565b90969095509350505050565b6000602082840312156104f157600080fd5b5035919050565b60008060006040848603121561050d57600080fd5b83359250602084013567ffffffffffffffff81111561052b57600080fd5b61053786828701610454565b9497909650939450505050565b60006020828403121561055657600080fd5b81356001600160a01b038116811461056d57600080fd5b9392505050565b60208152816020820152818360408301376000818301604090810191909152601f909201601f19160101919050565b6020808252601f908201527f466f726b506172616d733a204e4f4e4558495354454e545f4645415455524500604082015260600190565b602080825260199082015278466f726b506172616d733a20494e56414c49445f424c4f434b60381b60408201526060019056fea26469706673582212207d178fb28c7c48c6dcb596a87e615066eefa3aad01680e577fd3fd70515f890764736f6c63430008110033",
  "linkReferences": {},
  "deployedLinkReferences": {}
}