{
  "_format": "hh-sol-artifact-1",
  "contractName": "NetworkParams",
  "sourceName": "contracts/child/NetworkParams.sol",
  "abi": [
    {
      "inputs": [
        {
          "internalType": "address",
          "name": "newOwner",
          "type": "address"
        },
        {
          "internalType": "uint256",
          "name": "newBlockGasLimit",
          "type": "uint256"
        },
        {
          "internalType": "uint256",
          "name": "newCheckpointBlockInterval",
          "type": "uint256"
        },
        {
          "internalType": "uint256",
          "name": "newMinStake",
          "type": "uint256"
        },
        {
          "internalType": "uint256",
          "name": "newMaxValidatorSetSize",
          "type": "uint256"
        }
      ],
      "stateMutability": "nonpayable",
      "type": "constructor"
    },
    {
      "anonymous": false,
      "inputs": [
        {
          "indexed": true,
          "internalType": "address",
          "name": "previousOwner",
          "type": "address"
        },
        {
          "indexed": true,
          "internalType": "address",
          "name": "newOwner",
          "type": "address"
        }
      ],
      "name": "OwnershipTransferred",
      "type": "event"
    },
    {
      "inputs": [],
      "name": "blockGasLimit",
      "outputs": [
        {
          "internalType": "uint256",
          "name": "",
          "type": "uint256"
        }
      ],
      "stateMutability": "view",
      "type": "function"
    },
    {
      "inputs": [],
      "name": "checkpointBlockInterval",
      "outputs": [
        {
          "internalType": "uint256",
          "name": "",
          "type": "uint256"
        }
      ],
      "stateMutability": "view",
      "type": "function"
    },
    {
      "inputs": [],
      "name": "maxValidatorSetSize",
      "outputs": [
        {
          "internalType": "uint256",
          "name": "",
          "type": "uint256"
        }
      ],
      "stateMutability": "view",
      "type": "function"
    },
    {
      "inputs": [],
      "name": "minStake",
      "outputs": [
        {
          "internalType": "uint256",
          "name": "",
          "type": "uint256"
        }
      ],
      "stateMutability": "view",
      "type": "function"
    },
    {
      "inputs": [],
      "name": "owner",
      "outputs": [
        {
          "internalType": "address",
          "name": "",
          "type": "address"
        }
      ],
      "stateMutability": "view",
      "type": "function"
    },
    {
      "inputs": [],
      "name": "renounceOwnership",
      "outputs": [],
      "stateMutability": "nonpayable",
      "type": "function"
    },
    {
      "inputs": [
        {
          "internalType": "uint256",
          "name": "newBlockGasLimit",
          "type": "uint256"
        }
      ],
      "name": "setNewBlockGasLimit",
      "outputs": [],
      "stateMutability": "nonpayable",
      "type": "function"
    },
    {
      "inputs": [
        {
          "internalType": "uint256",
          "name": "newCheckpointBlockInterval",
          "type": "uint256"
        }
      ],
      "name": "setNewCheckpointBlockInterval",
      "outputs": [],
      "stateMutability": "nonpayable",
      "type": "function"
    },
    {
      "inputs": [
        {
          "internalType": "uint256",
          "name": "newMaxValidatorSetSize",
          "type": "uint256"
        }
      ],
      "name": "setNewMaxValidatorSetSize",
      "outputs": [],
      "stateMutability": "nonpayable",
      "type": "function"
    },
    {
      "inputs": [
        {
          "internalType": "uint256",
          "name": "newMinStake",
          "type": "uint256"
        }
      ],
      "name": "setNewMinStake",
      "outputs": [],
      "stateMutability": "nonpayable",
      "type": "function"
    },
    {
      "inputs": [
        {
          "internalType": "address",
          "name": "newOwner",
          "type": "address"
        }
      ],
      "name": "transferOwnership",
      "outputs": [],
      "stateMutability": "nonpayable",
      "type": "function"
    }
  ],
  "bytecode": "0x608060405234801561001057600080fd5b5060405161066b38038061066b83398101604081905261002f91610137565b610038336100e7565b6001600160a01b0385161580159061004f57508315155b801561005a57508115155b801561006557508215155b801561007057508015155b6100c05760405162461bcd60e51b815260206004820152601c60248201527f4e6574776f726b506172616d733a20494e56414c49445f494e50555400000000604482015260640160405180910390fd5b60018490556002839055600382905560048190556100dd856100e7565b505050505061018c565b600080546001600160a01b038381166001600160a01b0319831681178455604051919092169283917f8be0079c531659141344cd1fd0a4f28419497f9722a3daafe3b4186f6b6457e09190a35050565b600080600080600060a0868803121561014f57600080fd5b85516001600160a01b038116811461016657600080fd5b602087015160408801516060890151608090990151929a91995097965090945092505050565b6104d08061019b6000396000f3fe608060405234801561001057600080fd5b50600436106100a95760003560e01c80638da5cb5b116100715780638da5cb5b146100f95780639b5f0ea314610114578063c31d154c14610127578063e8bd24e01461013a578063f2fde38b14610143578063fca011611461015657600080fd5b8063375b3c0a146100ae57806341c87e66146100ca57806350b64995146100d3578063715018a6146100e85780637877a797146100f0575b600080fd5b6100b760035481565b6040519081526020015b60405180910390f35b6100b760045481565b6100e66100e1366004610451565b610169565b005b6100e66101da565b6100b760015481565b6000546040516001600160a01b0390911681526020016100c1565b6100e6610122366004610451565b6101ee565b6100e6610135366004610451565b610261565b6100b760025481565b6100e661015136600461046a565b6102be565b6100e6610164366004610451565b610337565b6101716103a7565b806000036101d55760405162461bcd60e51b815260206004820152602660248201527f4e6574776f726b506172616d733a20494e56414c49445f424c4f434b5f47415360448201526517d31253525560d21b60648201526084015b60405180910390fd5b600155565b6101e26103a7565b6101ec6000610401565b565b6101f66103a7565b8060000361025c5760405162461bcd60e51b815260206004820152602d60248201527f4e6574776f726b506172616d733a20494e56414c49445f4d41585f56414c494460448201526c41544f525f5345545f53495a4560981b60648201526084016101cc565b600455565b6102696103a7565b806000036102b95760405162461bcd60e51b815260206004820181905260248201527f4e6574776f726b506172616d733a20494e56414c49445f4d494e5f5354414b4560448201526064016101cc565b600355565b6102c66103a7565b6001600160a01b03811661032b5760405162461bcd60e51b815260206004820152602660248201527f4f776e61626c653a206e6577206f776e657220697320746865207a65726f206160448201526564647265737360d01b60648201526084016101cc565b61033481610401565b50565b61033f6103a7565b806000036103a25760405162461bcd60e51b815260206004820152602a60248201527f4e6574776f726b506172616d733a20494e56414c49445f434845434b504f494e6044820152691517d25395115495905360b21b60648201526084016101cc565b600255565b6000546001600160a01b031633146101ec5760405162461bcd60e51b815260206004820181905260248201527f4f776e61626c653a2063616c6c6572206973206e6f7420746865206f776e657260448201526064016101cc565b600080546001600160a01b038381166001600160a01b0319831681178455604051919092169283917f8be0079c531659141344cd1fd0a4f28419497f9722a3daafe3b4186f6b6457e09190a35050565b60006020828403121561046357600080fd5b5035919050565b60006020828403121561047c57600080fd5b81356001600160a01b038116811461049357600080fd5b939250505056fea2646970667358221220863bf560b6cca05e29a2170d63286139bc925a03c54a7ba6f68ff9e7380133b364736f6c63430008110033",
  "linkReferences": {},
  "deployedLinkReferences": {}
}