{
  "_format": "hh-sol-artifact-1",
  "contractName": "MockValidatorStorage",
  "sourceName": "contracts/mocks/MockValidatorStorage.sol",
  "abi": [
    {
      "inputs": [],
      "name": "AmountZero",
      "type": "error"
    },
    {
      "inputs": [
        {
          "internalType": "address",
          "name": "validator",
          "type": "address"
        }
      ],
      "name": "Exists",
      "type": "error"
    },
    {
      "inputs": [
        {
          "internalType": "address",
          "name": "validator",
          "type": "address"
        }
      ],
      "name": "NotFound",
      "type": "error"
    },
    {
      "inputs": [],
      "name": "ACTIVE_VALIDATORS",
      "outputs": [
        {
          "internalType": "uint256",
          "name": "",
          "type": "uint256"
        }
      ],
      "stateMutability": "view",
      "type": "function"
    },
    {
      "inputs": [],
      "name": "activeValidators",
      "outputs": [
        {
          "internalType": "address[]",
          "name": "",
          "type": "address[]"
        }
      ],
      "stateMutability": "view",
      "type": "function"
    },
    {
      "inputs": [],
      "name": "allValidators",
      "outputs": [
        {
          "internalType": "address[]",
          "name": "",
          "type": "address[]"
        }
      ],
      "stateMutability": "view",
      "type": "function"
    },
    {
      "inputs": [
        {
          "internalType": "address",
          "name": "account",
          "type": "address"
        }
      ],
      "name": "balanceOf",
      "outputs": [
        {
          "internalType": "uint256",
          "name": "balance",
          "type": "uint256"
        }
      ],
      "stateMutability": "view",
      "type": "function"
    },
    {
      "inputs": [
        {
          "internalType": "address",
          "name": "account",
          "type": "address"
        },
        {
          "internalType": "uint256",
          "name": "amount",
          "type": "uint256"
        }
      ],
      "name": "insert",
      "outputs": [],
      "stateMutability": "nonpayable",
      "type": "function"
    },
    {
      "inputs": [],
      "name": "max",
      "outputs": [
        {
          "internalType": "address",
          "name": "account",
          "type": "address"
        },
        {
          "internalType": "uint256",
          "name": "balance",
          "type": "uint256"
        }
      ],
      "stateMutability": "view",
      "type": "function"
    },
    {
      "inputs": [],
      "name": "min",
      "outputs": [
        {
          "internalType": "address",
          "name": "account",
          "type": "address"
        },
        {
          "internalType": "uint256",
          "name": "balance",
          "type": "uint256"
        }
      ],
      "stateMutability": "view",
      "type": "function"
    },
    {
      "inputs": [
        {
          "internalType": "address",
          "name": "account",
          "type": "address"
        }
      ],
      "name": "remove",
      "outputs": [],
      "stateMutability": "nonpayable",
      "type": "function"
    }
  ],
  "bytecode": "0x608060405234801561001057600080fd5b50611d62806100206000396000f3fe608060405234801561001057600080fd5b50600436106100785760003560e01c80630fd0ae101461007d57806329092d0e146100925780636ac5db19146100a557806370a08231146100d1578063d2d49c4b146100f2578063f30589c314610107578063f88979451461010f578063fca31f8f14610117575b600080fd5b61009061008b366004611bec565b61011f565b005b6100906100a0366004611c16565b610189565b6100ad610197565b604080516001600160a01b0390931683526020830191909152015b60405180910390f35b6100e46100df366004611c16565b6101b5565b6040519081526020016100c8565b6100fa6101c8565b6040516100c89190611c31565b6100fa6102d4565b6100ad6103bb565b6100e4600581565b60408051610120810191829052600091819060a0820190849060049082845b81548152602001906001019080831161013e57505050918352505060208101849052600060408201819052606082015260016080909101529050610184600484836103c8565b505050565b61019460048261077f565b50565b6000806101a46004610b69565b91506101af826101b5565b90509091565b60006101c2600483610bca565b92915050565b60606000600560046001015410156101e2576005546101e5565b60055b905060008167ffffffffffffffff81111561020257610202611c7e565b60405190808252806020026020018201604052801561022b578160200160208202803683370190505b5090508160000361023c5792915050565b60006102486004610b69565b9050808260008151811061025e5761025e611c94565b6001600160a01b039092166020928302919091019091015260015b838110156102cb5761028c600483610c06565b9150818382815181106102a1576102a1611c94565b6001600160a01b0390921660209283029190910190910152806102c381611cc0565b915050610279565b50909392505050565b6060600060046001015467ffffffffffffffff8111156102f6576102f6611c7e565b60405190808252806020026020018201604052801561031f578160200160208202803683370190505b509050600061032e6004610b69565b9050808260008151811061034457610344611c94565b6001600160a01b039092166020928302919091019091015260015b6005548110156103b357610374600483610c06565b91508183828151811061038957610389611c94565b6001600160a01b0390921660209283029190910190910152806103ab81611cc0565b91505061035f565b509092915050565b6000806101a46004610d08565b6001600160a01b0382166103de576103de611cd9565b6103e88383610d64565b156104165760405163cda981d560e01b81526001600160a01b03831660048201526024015b60405180910390fd5b6001600160a01b0382166000908152600380850160205260409091208251839291909101906104489082906004611b82565b50602082810151600483015560408301516005830155606083015160068301556080909201516007909101805460ff191691151591909117905581015160000361049157505050565b82546000906001600160a01b0316816104aa8686610bca565b90505b6001600160a01b03821615610520578192506104c98683610bca565b8110156104f8576001600160a01b039182166000908152600387016020526040902060010154909116906104ad565b6001600160a01b039182166000908152600387016020526040902060020154909116906104ad565b6040518060a00160405280846001600160a01b0316815260200160006001600160a01b0316815260200160006001600160a01b0316815260200160011515815260200185815250866003016000876001600160a01b03166001600160a01b0316815260200190815260200160002060008201518160000160006101000a8154816001600160a01b0302191690836001600160a01b0316021790555060208201518160010160006101000a8154816001600160a01b0302191690836001600160a01b0316021790555060408201518160020160006101000a8154816001600160a01b0302191690836001600160a01b0316021790555060608201518160020160146101000a81548160ff021916908315150217905550608082015181600301600082015181600001906004610655929190611b82565b506020820151600482015560408201516005820155606082015160068201556080909101516007909101805460ff191691151591909117905550506001600160a01b0383166106bc5785546001600160a01b0319166001600160a01b038616178655610739565b6106c68684610bca565b811015610705576001600160a01b038381166000908152600388016020526040902060010180546001600160a01b031916918716919091179055610739565b6001600160a01b038381166000908152600388016020526040902060020180546001600160a01b0319169187169190911790555b6107438686610db5565b60018601805490600061075583611cc0565b919050555083602001518660020160008282546107729190611cef565b9091555050505050505050565b6001600160a01b03811661079557610795611cd9565b61079f8282610d64565b6107c757604051634b2990ed60e11b81526001600160a01b038216600482015260240161040d565b6001600160a01b0381811660009081526003840160205260408120600101549091829116158061081457506001600160a01b03838116600090815260038601602052604090206002015416155b1561082057508161088c565b506001600160a01b038083166000908152600385016020526040902060020154165b6001600160a01b038181166000908152600386016020526040902060010154161561088c576001600160a01b03908116600090815260038501602052604090206001015416610842565b6001600160a01b03818116600090815260038601602052604090206001015416156108d8576001600160a01b0380821660009081526003860160205260409020600101541691506108fb565b6001600160a01b0380821660009081526003860160205260409020600201541691505b6001600160a01b038082166000908152600386016020526040808220548584168352912080546001600160a01b0319169190921690811790915580156109d4576001600160a01b03808216600090815260038701602052604090206001015481169083160361099c576001600160a01b038181166000908152600387016020526040902060010180546001600160a01b0319169185169190911790556109ee565b6001600160a01b038181166000908152600387016020526040902060020180546001600160a01b0319169185169190911790556109ee565b84546001600160a01b0319166001600160a01b0384161785555b6001600160a01b038281166000818152600388016020526040902060020154600160a01b900460ff161591861614610ac957610a2b868487611102565b6001600160a01b03858116600090815260038801602052604080822060018082015488861680865284862092830180549288166001600160a01b03199384168117909155865284862080548316821790556002938401805494909301805494909716938216841787559285529284208054909316821790925590549152815460ff60a01b1916600160a01b9182900460ff1615159091021790559193915b8015610ad957610ad986856111fa565b6001600160a01b0383166000908152600387016020526040812080546001600160a01b0319908116825560018083018054909216909155600290910180546001600160a81b03191690558701805491610b3183611d02565b90915550506001600160a01b038316600090815260038701602052604081206007015460028801805491929091610772908490611d19565b80546001600160a01b03168015610bc5575b6001600160a01b0381811660009081526003840160205260409020600201541615610bc5576001600160a01b03908116600090815260038301602052604090206002015416610b7b565b919050565b6001600160a01b038116600090815260048301602090815260408083205460038601909252822060070154610bff9190611cef565b9392505050565b60006001600160a01b038216610c2f576040516365e52d5160e11b815260040160405180910390fd5b6001600160a01b0382811660009081526003850160205260409020600101541615610c86576001600160a01b038083166000908152600385016020526040902060010154610c7f918591166117c6565b90506101c2565b506001600160a01b038082166000908152600384016020526040902054165b6001600160a01b03811615801590610cde57506001600160a01b0380821660009081526003850160205260409020600101548382169116145b156101c2576001600160a01b03808216600090815260038501602052604090205491925016610ca5565b80546001600160a01b03168015610bc5575b6001600160a01b0381811660009081526003840160205260409020600101541615610bc5576001600160a01b03908116600090815260038301602052604090206001015416610d1a565b60006001600160a01b03821615801590610bff575082546001600160a01b0383811691161480610bff5750506001600160a01b03908116600090815260039290920160205260409091205416151590565b60005b82546001600160a01b03838116911614801590610e0257506001600160a01b0382811660009081526003850160205260408082205490921681522060020154600160a01b900460ff165b156110d4576001600160a01b03808316600090815260038501602052604080822054831680835281832054841683529120600101549091168103610f8a576001600160a01b0381811660009081526003860160205260408082205483168252808220600290810154909316808352912090910154909250600160a01b900460ff1615610eeb576001600160a01b0380821660008181526003870160205260408082206002808201805460ff60a01b1990811690915588871685528385208201805482169055825487168552928420018054909216600160a01b17909155919052541692506110ce565b6001600160a01b038082166000908152600386016020526040902060020154811690841603610f2157809250610f21848461181c565b506001600160a01b0380831660009081526003850160205260408082205483168083528183206002808201805460ff60a01b19908116909155825487168652938520018054909316600160a01b1790925591829052549091610f85918691166119cf565b6110ce565b6001600160a01b03818116600090815260038601602052604080822054831682528082206001015490921680825291902060020154909250600160a01b900460ff1615611034576001600160a01b0380821660008181526003870160205260408082206002808201805460ff60a01b1990811690915588871685528385208201805482169055825487168552928420018054909216600160a01b17909155919052541692506110ce565b6001600160a01b03808216600090815260038601602052604090206001015481169084160361106a5780925061106a84846119cf565b506001600160a01b0380831660009081526003850160205260408082205483168083528183206002808201805460ff60a01b19908116909155825487168652938520018054909316600160a01b17909255918290525490916110ce9186911661181c565b50610db8565b505080546001600160a01b03166000908152600390910160205260409020600201805460ff60a01b19169055565b6001600160a01b038082166000908152600385016020526040808220548584168352912080546001600160a01b031916919092169081179091558061115f5783546001600160a01b0319166001600160a01b0384161784556111f4565b6001600160a01b0380821660009081526003860160205260409020600101548116908316036111c0576001600160a01b038181166000908152600386016020526040902060010180546001600160a01b0319169185169190911790556111f4565b6001600160a01b038181166000908152600386016020526040902060020180546001600160a01b0319169185169190911790555b50505050565b60005b82546001600160a01b0383811691161480159061123f57506001600160a01b0382166000908152600384016020526040902060020154600160a01b900460ff16155b1561179b576001600160a01b0380831660008181526003860160205260408082205484168083529120600101549092169003611509576001600160a01b038181166000908152600386016020526040808220600290810154909316808352912090910154909250600160a01b900460ff1615611326576001600160a01b0380831660009081526003860160205260408082206002908101805460ff60a01b1990811690915593851683529120018054909116600160a01b179055611303848261181c565b6001600160a01b0380821660009081526003860160205260409020600201541691505b6001600160a01b0382811660009081526003860160205260408082206001015490921681522060020154600160a01b900460ff1615801561139957506001600160a01b038281166000908152600386016020526040808220600290810154909316825290200154600160a01b900460ff16155b156113d4576001600160a01b03821660009081526003850160205260409020600201805460ff60a01b1916600160a01b179055915081611795565b6001600160a01b038281166000908152600386016020526040808220600290810154909316825290200154600160a01b900460ff16611489576001600160a01b0380831660008181526003870160205260408082206001810154909416825281206002908101805460ff60a01b19908116909155929091529091018054909116600160a01b17905561146684836119cf565b6001600160a01b0380821660009081526003860160205260409020600201541691505b6001600160a01b0380821660009081526003860160205260408082206002908101805487861685528385208301805460ff600160a01b9384900416151590920260ff60a01b199283161781558254821690925590549094168352912001805490911690556114f7848261181c565b83546001600160a01b03169250611795565b6001600160a01b0381811660009081526003860160205260408082206001015490921680825291902060020154909250600160a01b900460ff16156115b9576001600160a01b0380831660009081526003860160205260408082206002908101805460ff60a01b1990811690915593851683529120018054909116600160a01b17905561159684826119cf565b6001600160a01b0380821660009081526003860160205260409020600101541691505b6001600160a01b038281166000908152600386016020526040808220600290810154909316825290200154600160a01b900460ff1615801561162c57506001600160a01b0382811660009081526003860160205260408082206001015490921681522060020154600160a01b900460ff16155b15611667576001600160a01b03821660009081526003850160205260409020600201805460ff60a01b1916600160a01b179055915081611795565b6001600160a01b0382811660009081526003860160205260408082206001015490921681522060020154600160a01b900460ff16611714576001600160a01b03808316600081815260038701602052604080822060029081018054909516835290822001805460ff60a01b19908116909155919052815416600160a01b1790556116f1848361181c565b6001600160a01b0380821660009081526003860160205260409020600101541691505b6001600160a01b038082166000908152600386016020526040808220600290810180548786168552838520808401805460ff600160a01b9485900416151590930260ff60a01b199384161790558254821690925560019091015490941683529120018054909116905561178784826119cf565b83546001600160a01b031692505b506111fd565b506001600160a01b03166000908152600390910160205260409020600201805460ff60a01b19169055565b60005b6001600160a01b0382811660009081526003850160205260409020600201541615611816576001600160a01b039182166000908152600384016020526040902060020154909116906117c9565b50919050565b6001600160a01b038082166000818152600385016020526040808220600281018054915482871680865293852060010154959094526001600160a01b03199091169385169384179055921690801561189f576001600160a01b038181166000908152600387016020526040902080546001600160a01b0319169186169190911790555b6001600160a01b038381166000908152600387016020526040902080546001600160a01b03191691841691821790556118f05784546001600160a01b0319166001600160a01b038416178555611985565b6001600160a01b038083166000908152600387016020526040902060010154811690851603611951576001600160a01b038281166000908152600387016020526040902060010180546001600160a01b031916918516919091179055611985565b6001600160a01b038281166000908152600387016020526040902060020180546001600160a01b0319169185169190911790555b50506001600160a01b039081166000818152600390940160205260408085206001018054939094166001600160a01b03199384168117909455928452919092208054909216179055565b6001600160a01b038082166000818152600385016020526040808220600181018054915482871680865293852060020154959094526001600160a01b031990911693851693841790559216908015611a52576001600160a01b038181166000908152600387016020526040902080546001600160a01b0319169186169190911790555b6001600160a01b038381166000908152600387016020526040902080546001600160a01b0319169184169182179055611aa35784546001600160a01b0319166001600160a01b038416178555611b38565b6001600160a01b038083166000908152600387016020526040902060020154811690851603611b04576001600160a01b038281166000908152600387016020526040902060020180546001600160a01b031916918516919091179055611b38565b6001600160a01b038281166000908152600387016020526040902060010180546001600160a01b0319169185169190911790555b50506001600160a01b039081166000818152600390940160205260408085206002018054939094166001600160a01b03199384168117909455928452919092208054909216179055565b8260048101928215611bb0579160200282015b82811115611bb0578251825591602001919060010190611b95565b50611bbc929150611bc0565b5090565b5b80821115611bbc5760008155600101611bc1565b80356001600160a01b0381168114610bc557600080fd5b60008060408385031215611bff57600080fd5b611c0883611bd5565b946020939093013593505050565b600060208284031215611c2857600080fd5b610bff82611bd5565b6020808252825182820181905260009190848201906040850190845b81811015611c725783516001600160a01b031683529284019291840191600101611c4d565b50909695505050505050565b634e487b7160e01b600052604160045260246000fd5b634e487b7160e01b600052603260045260246000fd5b634e487b7160e01b600052601160045260246000fd5b600060018201611cd257611cd2611caa565b5060010190565b634e487b7160e01b600052600160045260246000fd5b808201808211156101c2576101c2611caa565b600081611d1157611d11611caa565b506000190190565b818103818111156101c2576101c2611caa56fea2646970667358221220c38af5e46b33b5ce29e15cb25c658738a1a807591629cd8e66ea42be7043ca7e64736f6c63430008110033",
  "linkReferences": {},
  "deployedLinkReferences": {}
}