{
  "_format": "hh-sol-artifact-1",
  "contractName": "BN256G2",
  "sourceName": "contracts/common/BN256G2.sol",
  "abi": [
    {
      "inputs": [],
      "name": "G2_NEG_X_IM",
      "outputs": [
        {
          "internalType": "uint256",
          "name": "",
          "type": "uint256"
        }
      ],
      "stateMutability": "view",
      "type": "function"
    },
    {
      "inputs": [],
      "name": "G2_NEG_X_RE",
      "outputs": [
        {
          "internalType": "uint256",
          "name": "",
          "type": "uint256"
        }
      ],
      "stateMutability": "view",
      "type": "function"
    },
    {
      "inputs": [],
      "name": "G2_NEG_Y_IM",
      "outputs": [
        {
          "internalType": "uint256",
          "name": "",
          "type": "uint256"
        }
      ],
      "stateMutability": "view",
      "type": "function"
    },
    {
      "inputs": [],
      "name": "G2_NEG_Y_RE",
      "outputs": [
        {
          "internalType": "uint256",
          "name": "",
          "type": "uint256"
        }
      ],
      "stateMutability": "view",
      "type": "function"
    },
    {
      "inputs": [
        {
          "internalType": "uint256",
          "name": "pt1xx",
          "type": "uint256"
        },
        {
          "internalType": "uint256",
          "name": "pt1xy",
          "type": "uint256"
        },
        {
          "internalType": "uint256",
          "name": "pt1yx",
          "type": "uint256"
        },
        {
          "internalType": "uint256",
          "name": "pt1yy",
          "type": "uint256"
        },
        {
          "internalType": "uint256",
          "name": "pt2xx",
          "type": "uint256"
        },
        {
          "internalType": "uint256",
          "name": "pt2xy",
          "type": "uint256"
        },
        {
          "internalType": "uint256",
          "name": "pt2yx",
          "type": "uint256"
        },
        {
          "internalType": "uint256",
          "name": "pt2yy",
          "type": "uint256"
        }
      ],
      "name": "ecTwistAdd",
      "outputs": [
        {
          "internalType": "uint256",
          "name": "",
          "type": "uint256"
        },
        {
          "internalType": "uint256",
          "name": "",
          "type": "uint256"
        },
        {
          "internalType": "uint256",
          "name": "",
          "type": "uint256"
        },
        {
          "internalType": "uint256",
          "name": "",
          "type": "uint256"
        }
      ],
      "stateMutability": "view",
      "type": "function"
    },
    {
      "inputs": [
        {
          "internalType": "uint256",
          "name": "s",
          "type": "uint256"
        },
        {
          "internalType": "uint256",
          "name": "pt1xx",
          "type": "uint256"
        },
        {
          "internalType": "uint256",
          "name": "pt1xy",
          "type": "uint256"
        },
        {
          "internalType": "uint256",
          "name": "pt1yx",
          "type": "uint256"
        },
        {
          "internalType": "uint256",
          "name": "pt1yy",
          "type": "uint256"
        }
      ],
      "name": "ecTwistMul",
      "outputs": [
        {
          "internalType": "uint256",
          "name": "",
          "type": "uint256"
        },
        {
          "internalType": "uint256",
          "name": "",
          "type": "uint256"
        },
        {
          "internalType": "uint256",
          "name": "",
          "type": "uint256"
        },
        {
          "internalType": "uint256",
          "name": "",
          "type": "uint256"
        }
      ],
      "stateMutability": "view",
      "type": "function"
    },
    {
      "inputs": [],
      "name": "getFieldModulus",
      "outputs": [
        {
          "internalType": "uint256",
          "name": "",
          "type": "uint256"
        }
      ],
      "stateMutability": "pure",
      "type": "function"
    }
  ],
  "bytecode": "0x608060405234801561001057600080fd5b50610dfd806100206000396000f3fe608060405234801561001057600080fd5b506004361061006d5760003560e01c80635120675214610072578063779d890d146100ac578063783bde80146100c05780639b0c399a146100e7578063ad50f9c11461010e578063cbe96a5014610135578063defbcdee14610168575b600080fd5b6100997f1d9befcd05a5323e6da4d435f3b617cdb3af83285c2df711ef39c01571827f9d81565b6040519081526020015b60405180910390f35b600080516020610da8833981519152610099565b6100997f198e9393920d483a7260bfb731fb5d25f1aa493335a9e71297e485b7aef312c281565b6100997f1800deef121f1e76426a00665e5c4479674322d4f75edadd46debd5cd992f6ed81565b6100997f275dc4a288d1afb3cbb1ac09187524c7db36395df7be3b99e673b13a075a65ec81565b610148610143366004610c8c565b61017b565b6040805194855260208501939093529183015260608201526080016100a3565b610148610176366004610ce1565b61031a565b60008080808b15801561018c57508a155b8015610196575089155b80156101a0575088155b1561020a57871580156101b1575086155b80156101bb575085155b80156101c5575084155b6101fa576101d5888888886103b1565b6101fa5760405162461bcd60e51b81526004016101f190610d1c565b60405180910390fd5b508692508591508490508361030b565b87158015610216575086155b8015610220575085155b801561022a575084155b156102675761023b8c8c8c8c6103b1565b6102575760405162461bcd60e51b81526004016101f190610d1c565b508a92508991508890508761030b565b6102738c8c8c8c6103b1565b61028f5760405162461bcd60e51b81526004016101f190610d1c565b61029b888888886103b1565b6102b75760405162461bcd60e51b81526004016101f190610d1c565b60006102d18d8d8d8d600160008f8f8f8f60016000610466565b90506103018160005b602090810291909101519083015160408401516060850151608086015160a08701516106f1565b9450945094509450505b98509850985098945050505050565b600080808060018815801561032d575087155b8015610337575086155b8015610341575085155b15610355575060019750879550600061037d565b610361898989896103b1565b61037d5760405162461bcd60e51b81526004016101f190610d1c565b600061038f8b8b8b8b8b87600061075c565b905061039c8160006102da565b929e919d509b50909950975050505050505050565b60008060008060006103c5878789896107df565b90945092506103d6898981816107df565b90925090506103e782828b8b6107df565b90925090506103f884848484610850565b909450925061044884847f2b149d40ceb8aaae81be18991be06ac3b5b4c5e559dbefa33267e6dc24a138e57e9713b03af0fed4cd2cafadeed8fdf4a74fa084e52d1852e4a2bd0685c315d2610850565b909450925083158015610459575082155b9998505050505050505050565b61046e610c50565b8815801561047a575087155b156104bc578686868686868660005b60a089019290925260808801929092526060870192909252604086019290925260208581019390935290910201526106e1565b821580156104c8575081155b156104db578c8c8c8c8c8c866000610489565b6104e785858b8b6107df565b90955093506104f88b8b85856107df565b6060830152604082015261050e87878b8b6107df565b909750955061051f8d8d85856107df565b60a0830152608082018190528714801561053c575060a081015186145b15610581576040810151851480156105575750606081015184145b156105725761056a8d8d8d8d8d8d610892565b866000610489565b60016000818180808681610489565b61058d898985856107df565b90935091506105ad858583600260200201518460035b6020020151610850565b909d509b506105c887878360045b60200201518460056105a3565b909b5099506105d98b8b81816107df565b90995097506105fa89898360045b60200201518460055b60200201516107df565b909550935061060b89898d8d6107df565b909950975061061c898985856107df565b60a083015260808201526106328d8d81816107df565b9097509550610643878785856107df565b909750955061065487878b8b610850565b909750955061066585856002610ada565b909350915061067687878585610850565b90975095506106878b8b89896107df565b6020830152815261069a85858989610850565b909b5099506106ab8d8d8d8d6107df565b909b5099506106c5898983600260200201518460036105f0565b909d509b506106d68b8b8f8f610850565b606083015260408201525b9c9b505050505050505050505050565b600080600080600080610702610c6e565b61070c8989610b0d565b909350915061071d8d8d85856107df565b602083015281526107308b8b85856107df565b60608301819052604083018290528251602090930151929f929e50909c509a5098505050505050505050565b610764610c50565b87156107d45760018816156107a5578051602082015160408301516060840151608085015160a08601516107a29594939291908d8d8d8d8d8d610466565b90505b6107b3878787878787610892565b949b509299509097509550935091506107cd600289610d5e565b9750610764565b979650505050505050565b60008061081d600080516020610da8833981519152858809600080516020610da8833981519152858809600080516020610da8833981519152610b98565b600080516020610da883398151915280868809600080516020610da8833981519152868a09089150915094509492505050565b60008061086c8685600080516020610da8833981519152610b98565b6108858685600080516020610da8833981519152610b98565b9150915094509492505050565b6000806000806000806108a3610c50565b6108af8d8d6003610ada565b602083018190528183526108c591908f8f6107df565b602083015281526108d88b8b8b8b6107df565b90995097506108e98d8d8d8d6107df565b606083015260408201819052610909908260035b60200201518b8b6107df565b60608301526040820152805161092c908260015b602002015183518460016105f0565b6040830151919e509c5061094a908260035b60200201516008610ada565b60a083015260808201526109618d8d8360046105bb565b909d509b50610972898981816107df565b60a083015260808201526040810151606082015161099291906004610ada565b60608301819052604083018290526109ac91908f8f610850565b6060830152604082018190526109c49082600361091d565b606083015260408201526109da8b8b6008610ada565b602083018190528183526109f091908d8d6107df565b60208301819052818352610a0791908360046105e7565b602083015280825260408201516060830151610a25928460016105a3565b60608301526040820152610a3b8d8d6002610ada565b6020830152808252610a4f908260016108fd565b60208301528152610a6389898360046105e7565b60a083015260808201819052610a7b9082600561093e565b826004602002018360056020020191909152528060006020020151816001602002015182600260200201518360036020020151846004602002015185600560200201519650965096509650965096505096509650965096509650969050565b600080600080516020610da8833981519152838609600080516020610da883398151915284860991509150935093915050565b60008080610b4e600080516020610da883398151915280878809600080516020610da883398151915287880908600080516020610da8833981519152610bbc565b9050600080516020610da8833981519152818609600080516020610da8833981519152828609610b8c90600080516020610da8833981519152610d80565b92509250509250929050565b60008180610ba857610ba8610d48565b610bb28484610d80565b8508949350505050565b60008060405160208152602080820152602060408201528460608201526002840360808201528360a082015260208160c08360056107d05a03fa90519250905080610c495760405162461bcd60e51b815260206004820152601a60248201527f6572726f722077697468206d6f64756c617220696e766572736500000000000060448201526064016101f1565b5092915050565b6040518060c001604052806006906020820280368337509192915050565b60405180608001604052806004906020820280368337509192915050565b600080600080600080600080610100898b031215610ca957600080fd5b505086359860208801359850604088013597606081013597506080810135965060a0810135955060c0810135945060e0013592509050565b600080600080600060a08688031215610cf957600080fd5b505083359560208501359550604085013594606081013594506080013592509050565b602080825260129082015271706f696e74206e6f7420696e20637572766560701b604082015260600190565b634e487b7160e01b600052601260045260246000fd5b600082610d7b57634e487b7160e01b600052601260045260246000fd5b500490565b81810381811115610da157634e487b7160e01b600052601160045260246000fd5b9291505056fe30644e72e131a029b85045b68181585d97816a916871ca8d3c208c16d87cfd47a2646970667358221220bef62bc28068690954bff720632bf34d282621c8a9da6cc064b8d7b5b6d91bb564736f6c63430008110033",
  "linkReferences": {},
  "deployedLinkReferences": {}
}