{
  "_format": "hh-sol-artifact-1",
  "contractName": "ChildERC20",
  "sourceName": "contracts/child/ChildERC20.sol",
  "abi": [
    {
      "anonymous": false,
      "inputs": [
        {
          "indexed": true,
          "internalType": "address",
          "name": "owner",
          "type": "address"
        },
        {
          "indexed": true,
          "internalType": "address",
          "name": "spender",
          "type": "address"
        },
        {
          "indexed": false,
          "internalType": "uint256",
          "name": "value",
          "type": "uint256"
        }
      ],
      "name": "Approval",
      "type": "event"
    },
    {
      "anonymous": false,
      "inputs": [
        {
          "indexed": false,
          "internalType": "uint8",
          "name": "version",
          "type": "uint8"
        }
      ],
      "name": "Initialized",
      "type": "event"
    },
    {
      "anonymous": false,
      "inputs": [
        {
          "indexed": false,
          "internalType": "address",
          "name": "userAddress",
          "type": "address"
        },
        {
          "indexed": false,
          "internalType": "address",
          "name": "relayerAddress",
          "type": "address"
        },
        {
          "indexed": false,
          "internalType": "bytes",
          "name": "functionSignature",
          "type": "bytes"
        }
      ],
      "name": "MetaTransactionExecuted",
      "type": "event"
    },
    {
      "anonymous": false,
      "inputs": [
        {
          "indexed": true,
          "internalType": "address",
          "name": "from",
          "type": "address"
        },
        {
          "indexed": true,
          "internalType": "address",
          "name": "to",
          "type": "address"
        },
        {
          "indexed": false,
          "internalType": "uint256",
          "name": "value",
          "type": "uint256"
        }
      ],
      "name": "Transfer",
      "type": "event"
    },
    {
      "inputs": [
        {
          "internalType": "address",
          "name": "owner",
          "type": "address"
        },
        {
          "internalType": "address",
          "name": "spender",
          "type": "address"
        }
      ],
      "name": "allowance",
      "outputs": [
        {
          "internalType": "uint256",
          "name": "",
          "type": "uint256"
        }
      ],
      "stateMutability": "view",
      "type": "function"
    },
    {
      "inputs": [
        {
          "internalType": "address",
          "name": "spender",
          "type": "address"
        },
        {
          "internalType": "uint256",
          "name": "amount",
          "type": "uint256"
        }
      ],
      "name": "approve",
      "outputs": [
        {
          "internalType": "bool",
          "name": "",
          "type": "bool"
        }
      ],
      "stateMutability": "nonpayable",
      "type": "function"
    },
    {
      "inputs": [
        {
          "internalType": "address",
          "name": "account",
          "type": "address"
        }
      ],
      "name": "balanceOf",
      "outputs": [
        {
          "internalType": "uint256",
          "name": "",
          "type": "uint256"
        }
      ],
      "stateMutability": "view",
      "type": "function"
    },
    {
      "inputs": [
        {
          "internalType": "address",
          "name": "account",
          "type": "address"
        },
        {
          "internalType": "uint256",
          "name": "amount",
          "type": "uint256"
        }
      ],
      "name": "burn",
      "outputs": [
        {
          "internalType": "bool",
          "name": "",
          "type": "bool"
        }
      ],
      "stateMutability": "nonpayable",
      "type": "function"
    },
    {
      "inputs": [],
      "name": "decimals",
      "outputs": [
        {
          "internalType": "uint8",
          "name": "",
          "type": "uint8"
        }
      ],
      "stateMutability": "view",
      "type": "function"
    },
    {
      "inputs": [
        {
          "internalType": "address",
          "name": "spender",
          "type": "address"
        },
        {
          "internalType": "uint256",
          "name": "subtractedValue",
          "type": "uint256"
        }
      ],
      "name": "decreaseAllowance",
      "outputs": [
        {
          "internalType": "bool",
          "name": "",
          "type": "bool"
        }
      ],
      "stateMutability": "nonpayable",
      "type": "function"
    },
    {
      "inputs": [
        {
          "internalType": "address",
          "name": "userAddress",
          "type": "address"
        },
        {
          "internalType": "bytes",
          "name": "functionSignature",
          "type": "bytes"
        },
        {
          "internalType": "bytes32",
          "name": "sigR",
          "type": "bytes32"
        },
        {
          "internalType": "bytes32",
          "name": "sigS",
          "type": "bytes32"
        },
        {
          "internalType": "uint8",
          "name": "sigV",
          "type": "uint8"
        }
      ],
      "name": "executeMetaTransaction",
      "outputs": [
        {
          "internalType": "bytes",
          "name": "",
          "type": "bytes"
        }
      ],
      "stateMutability": "nonpayable",
      "type": "function"
    },
    {
      "inputs": [
        {
          "internalType": "address",
          "name": "user",
          "type": "address"
        }
      ],
      "name": "getNonce",
      "outputs": [
        {
          "internalType": "uint256",
          "name": "nonce",
          "type": "uint256"
        }
      ],
      "stateMutability": "view",
      "type": "function"
    },
    {
      "inputs": [
        {
          "internalType": "address",
          "name": "spender",
          "type": "address"
        },
        {
          "internalType": "uint256",
          "name": "addedValue",
          "type": "uint256"
        }
      ],
      "name": "increaseAllowance",
      "outputs": [
        {
          "internalType": "bool",
          "name": "",
          "type": "bool"
        }
      ],
      "stateMutability": "nonpayable",
      "type": "function"
    },
    {
      "inputs": [
        {
          "internalType": "address",
          "name": "rootToken_",
          "type": "address"
        },
        {
          "internalType": "string",
          "name": "name_",
          "type": "string"
        },
        {
          "internalType": "string",
          "name": "symbol_",
          "type": "string"
        },
        {
          "internalType": "uint8",
          "name": "decimals_",
          "type": "uint8"
        }
      ],
      "name": "initialize",
      "outputs": [],
      "stateMutability": "nonpayable",
      "type": "function"
    },
    {
      "inputs": [
        {
          "internalType": "address",
          "name": "account",
          "type": "address"
        },
        {
          "internalType": "uint256",
          "name": "amount",
          "type": "uint256"
        }
      ],
      "name": "mint",
      "outputs": [
        {
          "internalType": "bool",
          "name": "",
          "type": "bool"
        }
      ],
      "stateMutability": "nonpayable",
      "type": "function"
    },
    {
      "inputs": [],
      "name": "name",
      "outputs": [
        {
          "internalType": "string",
          "name": "",
          "type": "string"
        }
      ],
      "stateMutability": "view",
      "type": "function"
    },
    {
      "inputs": [],
      "name": "predicate",
      "outputs": [
        {
          "internalType": "address",
          "name": "",
          "type": "address"
        }
      ],
      "stateMutability": "view",
      "type": "function"
    },
    {
      "inputs": [],
      "name": "rootToken",
      "outputs": [
        {
          "internalType": "address",
          "name": "",
          "type": "address"
        }
      ],
      "stateMutability": "view",
      "type": "function"
    },
    {
      "inputs": [],
      "name": "symbol",
      "outputs": [
        {
          "internalType": "string",
          "name": "",
          "type": "string"
        }
      ],
      "stateMutability": "view",
      "type": "function"
    },
    {
      "inputs": [],
      "name": "totalSupply",
      "outputs": [
        {
          "internalType": "uint256",
          "name": "",
          "type": "uint256"
        }
      ],
      "stateMutability": "view",
      "type": "function"
    },
    {
      "inputs": [
        {
          "internalType": "address",
          "name": "to",
          "type": "address"
        },
        {
          "internalType": "uint256",
          "name": "amount",
          "type": "uint256"
        }
      ],
      "name": "transfer",
      "outputs": [
        {
          "internalType": "bool",
          "name": "",
          "type": "bool"
        }
      ],
      "stateMutability": "nonpayable",
      "type": "function"
    },
    {
      "inputs": [
        {
          "internalType": "address",
          "name": "from",
          "type": "address"
        },
        {
          "internalType": "address",
          "name": "to",
          "type": "address"
        },
        {
          "internalType": "uint256",
          "name": "amount",
          "type": "uint256"
        }
      ],
      "name": "transferFrom",
      "outputs": [
        {
          "internalType": "bool",
          "name": "",
          "type": "bool"
        }
      ],
      "stateMutability": "nonpayable",
      "type": "function"
    }
  ],
  "bytecode": "0x608060405234801561001057600080fd5b506118e3806100206000396000f3fe608060405234801561001057600080fd5b50600436106101165760003560e01c806340c10f19116100a2578063a457c2d711610071578063a457c2d71461026b578063a9059cbb1461027e578063dd62ed3e14610291578063e6198705146102a4578063f6d2ee86146102b557600080fd5b806340c10f191461021457806370a082311461022757806395d89b41146102505780639dc29fac1461025857600080fd5b80631f2d0065116100e95780631f2d00651461018157806323b872dd146101a65780632d0335ab146101b9578063313ce567146101e2578063395093511461020157600080fd5b806306fdde031461011b578063095ea7b3146101395780630c53c51c1461015c57806318160ddd1461016f575b600080fd5b6101236102ca565b6040516101309190611371565b60405180910390f35b61014c6101473660046113a7565b61035c565b6040519015158152602001610130565b61012361016a36600461142b565b610380565b603c545b604051908152602001610130565b606d546001600160a01b03165b6040516001600160a01b039091168152602001610130565b61014c6101b43660046114a1565b610663565b6101736101c73660046114dd565b6001600160a01b031660009081526006602052604090205490565b606d54600160a01b900460ff1660405160ff9091168152602001610130565b61014c61020f3660046113a7565b610691565b61014c6102223660046113a7565b6106bd565b6101736102353660046114dd565b6001600160a01b03166000908152603a602052604090205490565b6101236106fd565b61014c6102663660046113a7565b61070c565b61014c6102793660046113a7565b610743565b61014c61028c3660046113a7565b6107c9565b61017361029f3660046114f8565b6107e1565b606c546001600160a01b031661018e565b6102c86102c336600461152b565b61080c565b005b6060603d80546102d9906115af565b80601f0160208091040260200160405190810160405280929190818152602001828054610305906115af565b80156103525780601f1061032757610100808354040283529160200191610352565b820191906000526020600020905b81548152906001019060200180831161033557829003601f168201915b5050505050905090565b600080610367610a8c565b9050610374818585610a9b565b60019150505b92915050565b606060006103c387878080601f016020809104026020016040519081016040528093929190818152602001838380828437600092019190915250610bc092505050565b90506001600160e01b031960003581169082160361044e5760405162461bcd60e51b815260206004820152603d60248201527f66756e6374696f6e5369676e61747572652063616e206e6f74206265206f662060448201527f657865637574654d6574615472616e73616374696f6e206d6574686f6400000060648201526084015b60405180910390fd5b604080516060810182526001600160a01b038a16600081815260066020908152848220548452808401929092528351601f8b0183900483028101830185528a815290938301918b908b9081908401838280828437600092019190915250505091525090506104bf8982888888610bdb565b6105155760405162461bcd60e51b815260206004820152602160248201527f5369676e657220616e64207369676e617475726520646f206e6f74206d6174636044820152600d60fb1b6064820152608401610445565b600660008a6001600160a01b03166001600160a01b031681526020019081526020016000206000815460010191905081905550600080306001600160a01b03168a8a8d60405160200161056a939291906115e9565b60408051601f19818403018152908290526105849161160f565b6000604051808303816000865af19150503d80600081146105c1576040519150601f19603f3d011682016040523d82523d6000602084013e6105c6565b606091505b5091509150816106185760405162461bcd60e51b815260206004820152601c60248201527f46756e6374696f6e2063616c6c206e6f74207375636365737366756c000000006044820152606401610445565b7f5845892132946850460bff5a0083f71031bc5bf9aadcd40f1de79423eac9b10b8b338c8c60405161064d949392919061162b565b60405180910390a19a9950505050505050505050565b60008061066e610a8c565b905061067b858285610cb7565b610686858585610d31565b506001949350505050565b60008061069c610a8c565b90506103748185856106ae85896107e1565b6106b89190611677565b610a9b565b606c546000906001600160a01b031633146106ea5760405162461bcd60e51b815260040161044590611698565b6106f48383610eca565b50600192915050565b6060603e80546102d9906115af565b606c546000906001600160a01b031633146107395760405162461bcd60e51b815260040161044590611698565b6106f48383610f7a565b60008061074e610a8c565b9050600061075c82866107e1565b9050838110156107bc5760405162461bcd60e51b815260206004820152602560248201527f45524332303a2064656372656173656420616c6c6f77616e63652062656c6f77604482015264207a65726f60d81b6064820152608401610445565b6106868286868403610a9b565b6000806107d4610a8c565b9050610374818585610d31565b6001600160a01b039182166000908152603b6020908152604080832093909416825291909152205490565b600754610100900460ff161580801561082c5750600754600160ff909116105b806108465750303b158015610846575060075460ff166001145b6108a95760405162461bcd60e51b815260206004820152602e60248201527f496e697469616c697a61626c653a20636f6e747261637420697320616c72656160448201526d191e481a5b9a5d1a585b1a5e995960921b6064820152608401610445565b6007805460ff1916600117905580156108cc576007805461ff0019166101001790555b6001600160a01b038716158015906108e357508415155b80156108ee57508215155b61093a5760405162461bcd60e51b815260206004820152601e60248201527f4368696c6445524332303a204241445f494e495449414c495a4154494f4e00006044820152606401610445565b606d805460ff8416600160a01b026001600160a81b03199091166001600160a01b038a1617179055606c80546001600160a01b03191633179055604080516020601f88018190048102820181019092528681526109e591889088908190840183828082843760009201919091525050604080516020601f8a01819004810282018101909252888152925088915087908190840183828082843760009201919091525061109992505050565b610a3d86868080601f016020809104026020016040519081016040528093929190818152602001838380828437600092019190915250506040805180820190915260018152603160f81b602082015291506110ca9050565b8015610a83576007805461ff0019169055604051600181527f7f26b83ff96e1f2b6a682f133852f6798a09c465da95921460cefb38474024989060200160405180910390a15b50505050505050565b6000610a96611136565b905090565b6001600160a01b038316610afd5760405162461bcd60e51b8152602060048201526024808201527f45524332303a20617070726f76652066726f6d20746865207a65726f206164646044820152637265737360e01b6064820152608401610445565b6001600160a01b038216610b5e5760405162461bcd60e51b815260206004820152602260248201527f45524332303a20617070726f766520746f20746865207a65726f206164647265604482015261737360f01b6064820152608401610445565b6001600160a01b038381166000818152603b602090815260408083209487168084529482529182902085905590518481527f8c5be1e5ebec7d5bd14f71427d1e84f3dd0314c0f7b2291e5b200ac8c7c3b92591015b60405180910390a3505050565b60008151600003610bd357506000919050565b506020015190565b6000806001610bf1610bec88611192565b61120f565b6040805160008152602081018083529290925260ff861690820152606081018790526080810186905260a0016020604051602081039080840390855afa158015610c3f573d6000803e3d6000fd5b5050604051601f1901519150506001600160a01b038116610c965760405162461bcd60e51b8152602060048201526011602482015270496e76616c6964207369676e617475726560781b6044820152606401610445565b866001600160a01b0316816001600160a01b03161491505095945050505050565b6000610cc384846107e1565b90506000198114610d2b5781811015610d1e5760405162461bcd60e51b815260206004820152601d60248201527f45524332303a20696e73756666696369656e7420616c6c6f77616e63650000006044820152606401610445565b610d2b8484848403610a9b565b50505050565b6001600160a01b038316610d955760405162461bcd60e51b815260206004820152602560248201527f45524332303a207472616e736665722066726f6d20746865207a65726f206164604482015264647265737360d81b6064820152608401610445565b6001600160a01b038216610df75760405162461bcd60e51b815260206004820152602360248201527f45524332303a207472616e7366657220746f20746865207a65726f206164647260448201526265737360e81b6064820152608401610445565b6001600160a01b0383166000908152603a602052604090205481811015610e6f5760405162461bcd60e51b815260206004820152602660248201527f45524332303a207472616e7366657220616d6f756e7420657863656564732062604482015265616c616e636560d01b6064820152608401610445565b6001600160a01b038085166000818152603a6020526040808220868603905592861680825290839020805486019055915160008051602061188e83398151915290610ebd9086815260200190565b60405180910390a3610d2b565b6001600160a01b038216610f205760405162461bcd60e51b815260206004820152601f60248201527f45524332303a206d696e7420746f20746865207a65726f2061646472657373006044820152606401610445565b80603c6000828254610f329190611677565b90915550506001600160a01b0382166000818152603a602090815260408083208054860190555184815260008051602061188e833981519152910160405180910390a35b5050565b6001600160a01b038216610fda5760405162461bcd60e51b815260206004820152602160248201527f45524332303a206275726e2066726f6d20746865207a65726f206164647265736044820152607360f81b6064820152608401610445565b6001600160a01b0382166000908152603a60205260409020548181101561104e5760405162461bcd60e51b815260206004820152602260248201527f45524332303a206275726e20616d6f756e7420657863656564732062616c616e604482015261636560f01b6064820152608401610445565b6001600160a01b0383166000818152603a602090815260408083208686039055603c805487900390555185815291929160008051602061188e8339815191529101610bb3565b505050565b600754610100900460ff166110c05760405162461bcd60e51b8152600401610445906116db565b610f76828261125d565b815160208084019190912082519183019190912060038290556004819055466001557f8b73c3c69bb8fe3d512ecc4cf759cc79239f7b179b0ffacaa9a75d522b39400f61111881848461129d565b600055600280546001600160a01b0319163017905560055550505050565b600030330361118c57600080368080601f0160208091040260200160405190810160405280939291908181526020018383808284376000920191909152505050503601516001600160a01b0316915061118f9050565b50335b90565b600060405180608001604052806043815260200161184b60439139805160209182012083518483015160408087015180519086012090516111f2950193845260208401929092526001600160a01b03166040830152606082015260800190565b604051602081830303815290604052805190602001209050919050565b600061037a61121c6112e6565b8360405161190160f01b6020820152602281018390526042810182905260009060620160405160208183030381529060405280519060200120905092915050565b600754610100900460ff166112845760405162461bcd60e51b8152600401610445906116db565b603d611290838261178a565b50603e611094828261178a565b6040805160208101859052908101839052606081018290524660808201523060a082015260009060c0016040516020818303038152906040528051906020012090509392505050565b6002546000906001600160a01b031630148015611304575060015446145b15611310575060005490565b610a9660055460035460045461129d565b60005b8381101561133c578181015183820152602001611324565b50506000910152565b6000815180845261135d816020860160208601611321565b601f01601f19169290920160200192915050565b6020815260006113846020830184611345565b9392505050565b80356001600160a01b03811681146113a257600080fd5b919050565b600080604083850312156113ba57600080fd5b6113c38361138b565b946020939093013593505050565b60008083601f8401126113e357600080fd5b50813567ffffffffffffffff8111156113fb57600080fd5b60208301915083602082850101111561141357600080fd5b9250929050565b803560ff811681146113a257600080fd5b60008060008060008060a0878903121561144457600080fd5b61144d8761138b565b9550602087013567ffffffffffffffff81111561146957600080fd5b61147589828a016113d1565b90965094505060408701359250606087013591506114956080880161141a565b90509295509295509295565b6000806000606084860312156114b657600080fd5b6114bf8461138b565b92506114cd6020850161138b565b9150604084013590509250925092565b6000602082840312156114ef57600080fd5b6113848261138b565b6000806040838503121561150b57600080fd5b6115148361138b565b91506115226020840161138b565b90509250929050565b6000806000806000806080878903121561154457600080fd5b61154d8761138b565b9550602087013567ffffffffffffffff8082111561156a57600080fd5b6115768a838b016113d1565b9097509550604089013591508082111561158f57600080fd5b5061159c89828a016113d1565b909450925061149590506060880161141a565b600181811c908216806115c357607f821691505b6020821081036115e357634e487b7160e01b600052602260045260246000fd5b50919050565b8284823760609190911b6bffffffffffffffffffffffff19169101908152601401919050565b60008251611621818460208701611321565b9190910192915050565b6001600160a01b0385811682528416602082015260606040820181905281018290526000828460808401376000608084840101526080601f19601f850116830101905095945050505050565b8082018082111561037a57634e487b7160e01b600052601160045260246000fd5b60208082526023908201527f4368696c6445524332303a204f6e6c79207072656469636174652063616e2063604082015262185b1b60ea1b606082015260800190565b6020808252602b908201527f496e697469616c697a61626c653a20636f6e7472616374206973206e6f74206960408201526a6e697469616c697a696e6760a81b606082015260800190565b634e487b7160e01b600052604160045260246000fd5b601f82111561109457600081815260208120601f850160051c810160208610156117635750805b601f850160051c820191505b818110156117825782815560010161176f565b505050505050565b815167ffffffffffffffff8111156117a4576117a4611726565b6117b8816117b284546115af565b8461173c565b602080601f8311600181146117ed57600084156117d55750858301515b600019600386901b1c1916600185901b178555611782565b600085815260208120601f198616915b8281101561181c578886015182559484019460019091019084016117fd565b508582101561183a5787850151600019600388901b60f8161c191681555b5050505050600190811b0190555056fe4d6574615472616e73616374696f6e2875696e74323536206e6f6e63652c616464726573732066726f6d2c62797465732066756e6374696f6e5369676e617475726529ddf252ad1be2c89b69c2b068fc378daa952ba7f163c4a11628f55a4df523b3efa264697066735822122006e7874e62afcc37d931c31b2d4bea5f12ba721af845c8552d4733d66d6dcbb064736f6c63430008110033",
  "linkReferences": {},
  "deployedLinkReferences": {}
}