{
  "_format": "hh-sol-artifact-1",
  "contractName": "ChildERC721Predicate",
  "sourceName": "contracts/child/ChildERC721Predicate.sol",
  "abi": [
    {
      "inputs": [
        {
          "internalType": "string",
          "name": "only",
          "type": "string"
        }
      ],
      "name": "Unauthorized",
      "type": "error"
    },
    {
      "anonymous": false,
      "inputs": [
        {
          "indexed": false,
          "internalType": "uint8",
          "name": "version",
          "type": "uint8"
        }
      ],
      "name": "Initialized",
      "type": "event"
    },
    {
      "anonymous": false,
      "inputs": [
        {
          "indexed": true,
          "internalType": "address",
          "name": "rootToken",
          "type": "address"
        },
        {
          "indexed": true,
          "internalType": "address",
          "name": "childToken",
          "type": "address"
        },
        {
          "indexed": false,
          "internalType": "address",
          "name": "sender",
          "type": "address"
        },
        {
          "indexed": true,
          "internalType": "address",
          "name": "receiver",
          "type": "address"
        },
        {
          "indexed": false,
          "internalType": "uint256",
          "name": "tokenId",
          "type": "uint256"
        }
      ],
      "name": "L2ERC721Deposit",
      "type": "event"
    },
    {
      "anonymous": false,
      "inputs": [
        {
          "indexed": true,
          "internalType": "address",
          "name": "rootToken",
          "type": "address"
        },
        {
          "indexed": true,
          "internalType": "address",
          "name": "childToken",
          "type": "address"
        },
        {
          "indexed": true,
          "internalType": "address",
          "name": "sender",
          "type": "address"
        },
        {
          "indexed": false,
          "internalType": "address[]",
          "name": "receivers",
          "type": "address[]"
        },
        {
          "indexed": false,
          "internalType": "uint256[]",
          "name": "tokenIds",
          "type": "uint256[]"
        }
      ],
      "name": "L2ERC721DepositBatch",
      "type": "event"
    },
    {
      "anonymous": false,
      "inputs": [
        {
          "indexed": true,
          "internalType": "address",
          "name": "rootToken",
          "type": "address"
        },
        {
          "indexed": true,
          "internalType": "address",
          "name": "childToken",
          "type": "address"
        },
        {
          "indexed": false,
          "internalType": "address",
          "name": "sender",
          "type": "address"
        },
        {
          "indexed": true,
          "internalType": "address",
          "name": "receiver",
          "type": "address"
        },
        {
          "indexed": false,
          "internalType": "uint256",
          "name": "tokenId",
          "type": "uint256"
        }
      ],
      "name": "L2ERC721Withdraw",
      "type": "event"
    },
    {
      "anonymous": false,
      "inputs": [
        {
          "indexed": true,
          "internalType": "address",
          "name": "rootToken",
          "type": "address"
        },
        {
          "indexed": true,
          "internalType": "address",
          "name": "childToken",
          "type": "address"
        },
        {
          "indexed": true,
          "internalType": "address",
          "name": "sender",
          "type": "address"
        },
        {
          "indexed": false,
          "internalType": "address[]",
          "name": "receivers",
          "type": "address[]"
        },
        {
          "indexed": false,
          "internalType": "uint256[]",
          "name": "tokenIds",
          "type": "uint256[]"
        }
      ],
      "name": "L2ERC721WithdrawBatch",
      "type": "event"
    },
    {
      "anonymous": false,
      "inputs": [
        {
          "indexed": true,
          "internalType": "address",
          "name": "rootToken",
          "type": "address"
        },
        {
          "indexed": true,
          "internalType": "address",
          "name": "childToken",
          "type": "address"
        }
      ],
      "name": "L2TokenMapped",
      "type": "event"
    },
    {
      "inputs": [],
      "name": "DEPOSIT_BATCH_SIG",
      "outputs": [
        {
          "internalType": "bytes32",
          "name": "",
          "type": "bytes32"
        }
      ],
      "stateMutability": "view",
      "type": "function"
    },
    {
      "inputs": [],
      "name": "DEPOSIT_SIG",
      "outputs": [
        {
          "internalType": "bytes32",
          "name": "",
          "type": "bytes32"
        }
      ],
      "stateMutability": "view",
      "type": "function"
    },
    {
      "inputs": [],
      "name": "MAP_TOKEN_SIG",
      "outputs": [
        {
          "internalType": "bytes32",
          "name": "",
          "type": "bytes32"
        }
      ],
      "stateMutability": "view",
      "type": "function"
    },
    {
      "inputs": [],
      "name": "NATIVE_TOKEN_CONTRACT",
      "outputs": [
        {
          "internalType": "address",
          "name": "",
          "type": "address"
        }
      ],
      "stateMutability": "view",
      "type": "function"
    },
    {
      "inputs": [],
      "name": "NATIVE_TRANSFER_PRECOMPILE",
      "outputs": [
        {
          "internalType": "address",
          "name": "",
          "type": "address"
        }
      ],
      "stateMutability": "view",
      "type": "function"
    },
    {
      "inputs": [],
      "name": "NATIVE_TRANSFER_PRECOMPILE_GAS",
      "outputs": [
        {
          "internalType": "uint256",
          "name": "",
          "type": "uint256"
        }
      ],
      "stateMutability": "view",
      "type": "function"
    },
    {
      "inputs": [],
      "name": "SYSTEM",
      "outputs": [
        {
          "internalType": "address",
          "name": "",
          "type": "address"
        }
      ],
      "stateMutability": "view",
      "type": "function"
    },
    {
      "inputs": [],
      "name": "VALIDATOR_PKCHECK_PRECOMPILE",
      "outputs": [
        {
          "internalType": "address",
          "name": "",
          "type": "address"
        }
      ],
      "stateMutability": "view",
      "type": "function"
    },
    {
      "inputs": [],
      "name": "VALIDATOR_PKCHECK_PRECOMPILE_GAS",
      "outputs": [
        {
          "internalType": "uint256",
          "name": "",
          "type": "uint256"
        }
      ],
      "stateMutability": "view",
      "type": "function"
    },
    {
      "inputs": [],
      "name": "WITHDRAW_BATCH_SIG",
      "outputs": [
        {
          "internalType": "bytes32",
          "name": "",
          "type": "bytes32"
        }
      ],
      "stateMutability": "view",
      "type": "function"
    },
    {
      "inputs": [],
      "name": "WITHDRAW_SIG",
      "outputs": [
        {
          "internalType": "bytes32",
          "name": "",
          "type": "bytes32"
        }
      ],
      "stateMutability": "view",
      "type": "function"
    },
    {
      "inputs": [],
      "name": "childTokenTemplate",
      "outputs": [
        {
          "internalType": "address",
          "name": "",
          "type": "address"
        }
      ],
      "stateMutability": "view",
      "type": "function"
    },
    {
      "inputs": [
        {
          "internalType": "address",
          "name": "newL2StateSender",
          "type": "address"
        },
        {
          "internalType": "address",
          "name": "newStateReceiver",
          "type": "address"
        },
        {
          "internalType": "address",
          "name": "newRootERC721Predicate",
          "type": "address"
        },
        {
          "internalType": "address",
          "name": "newChildTokenTemplate",
          "type": "address"
        }
      ],
      "name": "initialize",
      "outputs": [],
      "stateMutability": "nonpayable",
      "type": "function"
    },
    {
      "inputs": [],
      "name": "l2StateSender",
      "outputs": [
        {
          "internalType": "contract IStateSender",
          "name": "",
          "type": "address"
        }
      ],
      "stateMutability": "view",
      "type": "function"
    },
    {
      "inputs": [
        {
          "internalType": "uint256",
          "name": "",
          "type": "uint256"
        },
        {
          "internalType": "address",
          "name": "sender",
          "type": "address"
        },
        {
          "internalType": "bytes",
          "name": "data",
          "type": "bytes"
        }
      ],
      "name": "onStateReceive",
      "outputs": [],
      "stateMutability": "nonpayable",
      "type": "function"
    },
    {
      "inputs": [],
      "name": "rootERC721Predicate",
      "outputs": [
        {
          "internalType": "address",
          "name": "",
          "type": "address"
        }
      ],
      "stateMutability": "view",
      "type": "function"
    },
    {
      "inputs": [
        {
          "internalType": "address",
          "name": "",
          "type": "address"
        }
      ],
      "name": "rootTokenToChildToken",
      "outputs": [
        {
          "internalType": "address",
          "name": "",
          "type": "address"
        }
      ],
      "stateMutability": "view",
      "type": "function"
    },
    {
      "inputs": [],
      "name": "stateReceiver",
      "outputs": [
        {
          "internalType": "address",
          "name": "",
          "type": "address"
        }
      ],
      "stateMutability": "view",
      "type": "function"
    },
    {
      "inputs": [
        {
          "internalType": "contract IChildERC721",
          "name": "childToken",
          "type": "address"
        },
        {
          "internalType": "uint256",
          "name": "tokenId",
          "type": "uint256"
        }
      ],
      "name": "withdraw",
      "outputs": [],
      "stateMutability": "nonpayable",
      "type": "function"
    },
    {
      "inputs": [
        {
          "internalType": "contract IChildERC721",
          "name": "childToken",
          "type": "address"
        },
        {
          "internalType": "address[]",
          "name": "receivers",
          "type": "address[]"
        },
        {
          "internalType": "uint256[]",
          "name": "tokenIds",
          "type": "uint256[]"
        }
      ],
      "name": "withdrawBatch",
      "outputs": [],
      "stateMutability": "nonpayable",
      "type": "function"
    },
    {
      "inputs": [
        {
          "internalType": "contract IChildERC721",
          "name": "childToken",
          "type": "address"
        },
        {
          "internalType": "address",
          "name": "receiver",
          "type": "address"
        },
        {
          "internalType": "uint256",
          "name": "tokenId",
          "type": "uint256"
        }
      ],
      "name": "withdrawTo",
      "outputs": [],
      "stateMutability": "nonpayable",
      "type": "function"
    }
  ],
  "bytecode": "0x608060405234801561001057600080fd5b50611efb806100206000396000f3fe608060405234801561001057600080fd5b50600436106101375760003560e01c8063b68ad1e4116100b8578063e0563ab11161007c578063e0563ab1146102c0578063eeb49945146102c9578063f3fef3a3146102dc578063f6451255146102ef578063f691325c14610316578063f8c8765e1461032957600080fd5b8063b68ad1e414610225578063c3b35a7e14610238578063c5ac2b1c1461024b578063d41f177114610272578063d7c9e3ec1461029957600080fd5b80636f33e695116100ff5780636f33e6951461019f5780637efab4f5146101b4578063947287cf146101dd57806397e5230d146101f4578063b1768065146101fe57600080fd5b806305dc2e8f1461013c5780631bc114ba1461016c578063284017f51461017f5780633b878c221461018857806351351d5314610191575b600080fd5b60345461014f906001600160a01b031681565b6040516001600160a01b0390911681526020015b60405180910390f35b60335461014f906001600160a01b031681565b61014f61202081565b61014f61101081565b61014f6002600160a01b0381565b6101b26101ad3660046115a6565b61033c565b005b61014f6101c2366004611628565b6037602052600090815260409020546001600160a01b031681565b6101e661520881565b604051908152602001610163565b6101e6620249f081565b6101e67f7a8dc26796a1e50e6e190b70259f58f6a4edd5b22280ceecc82b687b8e98286981565b60365461014f906001600160a01b031681565b6101b261024636600461164c565b610350565b6101e67faf50c8eab81226bc79eee3a10e3fe25db1a2be7241130e392b0675df839b6d1881565b6101e67f87a7811f4bfedea3d341ad165680ae306b01aaeacc205d227629cf157dd9f82181565b6101e67f5fb452c5a8f2b7c7ef2984e2f1063c7ee9b80b110cdc98ccb98f6654e10b5ed281565b61014f61203081565b6101b26102d736600461168d565b610360565b6101b26102ea366004611715565b610583565b6101e67f2cef46a936bdc5b7e6e8c71aa04560c41cf7d88bb26901a7e7f4936ff02accad81565b60355461014f906001600160a01b031681565b6101b2610337366004611741565b610592565b61034985858585856107d1565b5050505050565b61035b838383610ada565b505050565b6034546001600160a01b031633146103d15760405162461bcd60e51b815260206004820152602960248201527f4368696c644552433732315072656469636174653a204f4e4c595f53544154456044820152682fa922a1a2a4ab22a960b91b60648201526084015b60405180910390fd5b6035546001600160a01b038481169116146104405760405162461bcd60e51b815260206004820152602960248201527f4368696c644552433732315072656469636174653a204f4e4c595f524f4f545f60448201526850524544494341544560b81b60648201526084016103c8565b7f87a7811f4bfedea3d341ad165680ae306b01aaeacc205d227629cf157dd9f82161046f60206000848661179d565b610478916117c7565b036104975761049261048d826020818661179d565b610de3565b61057d565b7faf50c8eab81226bc79eee3a10e3fe25db1a2be7241130e392b0675df839b6d186104c660206000848661179d565b6104cf916117c7565b036104de57610492828261104e565b7f2cef46a936bdc5b7e6e8c71aa04560c41cf7d88bb26901a7e7f4936ff02accad61050d60206000848661179d565b610516916117c7565b036105255761049282826112a9565b60405162461bcd60e51b815260206004820152602760248201527f4368696c644552433732315072656469636174653a20494e56414c49445f5349604482015266474e415455524560c81b60648201526084016103c8565b50505050565b61058e823383610ada565b5050565b336002600160a01b03146105d65760405163973d02cb60e01b815260206004820152600a60248201526914d654d5115350d0531360b21b60448201526064016103c8565b600054610100900460ff16158080156105f65750600054600160ff909116105b806106105750303b158015610610575060005460ff166001145b6106735760405162461bcd60e51b815260206004820152602e60248201527f496e697469616c697a61626c653a20636f6e747261637420697320616c72656160448201526d191e481a5b9a5d1a585b1a5e995960921b60648201526084016103c8565b6000805460ff191660011790558015610696576000805461ff0019166101001790555b6001600160a01b038516158015906106b657506001600160a01b03841615155b80156106ca57506001600160a01b03831615155b80156106de57506001600160a01b03821615155b61073b5760405162461bcd60e51b815260206004820152602860248201527f4368696c644552433732315072656469636174653a204241445f494e495449416044820152672624ad20aa24a7a760c11b60648201526084016103c8565b603380546001600160a01b038088166001600160a01b031992831617909255603480548784169083161790556035805486841690831617905560368054928516929091169190911790558015610349576000805461ff0019169055604051600181527f7f26b83ff96e1f2b6a682f133852f6798a09c465da95921460cefb38474024989060200160405180910390a15050505050565b846107db81611417565b6107f75760405162461bcd60e51b81526004016103c8906117e5565b6000866001600160a01b0316631f2d00656040518163ffffffff1660e01b8152600401602060405180830381865afa158015610837573d6000803e3d6000fd5b505050506040513d601f19601f8201168201806040525081019061085b9190611827565b6001600160a01b0381811660009081526037602052604090205491925088811691161461089a5760405162461bcd60e51b81526004016103c890611844565b6001600160a01b0381166108b0576108b0611888565b306001600160a01b0316876001600160a01b031663e61987056040518163ffffffff1660e01b8152600401602060405180830381865afa1580156108f8573d6000803e3d6000fd5b505050506040513d601f19601f8201168201806040525081019061091c9190611827565b6001600160a01b03161461093257610932611888565b60405163b2dc5dc360e01b81526001600160a01b0388169063b2dc5dc390610962903390889088906004016118d0565b6020604051808303816000875af1158015610981573d6000803e3d6000fd5b505050506040513d601f19601f820116820180604052508101906109a591906118fe565b6109c15760405162461bcd60e51b81526004016103c890611920565b6033546035546040516001600160a01b03928316926316f19831921690610a18907f5fb452c5a8f2b7c7ef2984e2f1063c7ee9b80b110cdc98ccb98f6654e10b5ed290869033908d908d908d908d906020016119aa565b6040516020818303038152906040526040518363ffffffff1660e01b8152600401610a44929190611a44565b600060405180830381600087803b158015610a5e57600080fd5b505af1158015610a72573d6000803e3d6000fd5b50505050336001600160a01b0316876001600160a01b0316826001600160a01b03167fa80bc76d6e1849a9088a9c00a2aeaa54eeb78f15565a18da3e8873438976f52289898989604051610ac99493929190611a70565b60405180910390a450505050505050565b82610ae481611417565b610b005760405162461bcd60e51b81526004016103c8906117e5565b6000846001600160a01b0316631f2d00656040518163ffffffff1660e01b8152600401602060405180830381865afa158015610b40573d6000803e3d6000fd5b505050506040513d601f19601f82011682018060405250810190610b649190611827565b6001600160a01b03818116600090815260376020526040902054919250868116911614610ba35760405162461bcd60e51b81526004016103c890611844565b6001600160a01b038116610bb957610bb9611888565b306001600160a01b0316856001600160a01b031663e61987056040518163ffffffff1660e01b8152600401602060405180830381865afa158015610c01573d6000803e3d6000fd5b505050506040513d601f19601f82011682018060405250810190610c259190611827565b6001600160a01b031614610c3b57610c3b611888565b604051632770a7eb60e21b81526001600160a01b03861690639dc29fac90610c699033908790600401611aa2565b6020604051808303816000875af1158015610c88573d6000803e3d6000fd5b505050506040513d601f19601f82011682018060405250810190610cac91906118fe565b610cc85760405162461bcd60e51b81526004016103c890611920565b603354603554604080517f7a8dc26796a1e50e6e190b70259f58f6a4edd5b22280ceecc82b687b8e98286960208201526001600160a01b0385811682840152336060830152888116608083015260a08083018990528351808403909101815260c08301938490526316f1983160e01b909352938416936316f1983193610d539391169160c401611a44565b600060405180830381600087803b158015610d6d57600080fd5b505af1158015610d81573d6000803e3d6000fd5b50505050836001600160a01b0316856001600160a01b0316826001600160a01b03167f1e0ef6131232b1090efc3ec1cf7b53aa17f4b7cd8a4f9e033b49ee237379b0133387604051610dd4929190611aa2565b60405180910390a45050505050565b6000808080610df485870187611abb565b6001600160a01b0380851660009081526037602052604090205494985092965090945092501680610e375760405162461bcd60e51b81526004016103c890611844565b610e4081611417565b506000816001600160a01b0316631f2d00656040518163ffffffff1660e01b8152600401602060405180830381865afa158015610e81573d6000803e3d6000fd5b505050506040513d601f19601f82011682018060405250810190610ea59190611827565b9050856001600160a01b0316816001600160a01b031614610ec857610ec8611888565b6001600160a01b038116610ede57610ede611888565b306001600160a01b0316826001600160a01b031663e61987056040518163ffffffff1660e01b8152600401602060405180830381865afa158015610f26573d6000803e3d6000fd5b505050506040513d601f19601f82011682018060405250810190610f4a9190611827565b6001600160a01b031614610f6057610f60611888565b6040516340c10f1960e01b81526001600160a01b038316906340c10f1990610f8e9087908790600401611aa2565b6020604051808303816000875af1158015610fad573d6000803e3d6000fd5b505050506040513d601f19601f82011682018060405250810190610fd191906118fe565b610fed5760405162461bcd60e51b81526004016103c890611b0c565b836001600160a01b0316826001600160a01b0316876001600160a01b03167f37589fd8c906c19ea68eeb7e6b3e03efc06ff8aa4b1830588eba75f4375b1611888760405161103c929190611aa2565b60405180910390a45050505050505050565b600080808061105f85870187611c21565b6001600160a01b038085166000908152603760205260409020549499509297509095509350169050806110a45760405162461bcd60e51b81526004016103c890611844565b6110ad81611417565b506000816001600160a01b0316631f2d00656040518163ffffffff1660e01b8152600401602060405180830381865afa1580156110ee573d6000803e3d6000fd5b505050506040513d601f19601f820116820180604052508101906111129190611827565b9050856001600160a01b0316816001600160a01b03161461113557611135611888565b6001600160a01b03811661114b5761114b611888565b306001600160a01b0316826001600160a01b031663e61987056040518163ffffffff1660e01b8152600401602060405180830381865afa158015611193573d6000803e3d6000fd5b505050506040513d601f19601f820116820180604052508101906111b79190611827565b6001600160a01b0316146111cd576111cd611888565b604051637c88e3d960e01b81526001600160a01b03831690637c88e3d9906111fb9087908790600401611d13565b6020604051808303816000875af115801561121a573d6000803e3d6000fd5b505050506040513d601f19601f8201168201806040525081019061123e91906118fe565b61125a5760405162461bcd60e51b81526004016103c890611b0c565b846001600160a01b0316826001600160a01b0316876001600160a01b03167fc1b1a5c1b97cc8e5ac82b47496f5ebdadf9c7d119b30a116e2bdafd56f6ed475878760405161103c929190611d13565b600080806112b984860186611e06565b91955093509150506001600160a01b0383166112d7576112d7611888565b6001600160a01b0383811660009081526037602052604090205416156112ff576112ff611888565b6036546040516bffffffffffffffffffffffff19606086901b16602082015260009161134f916001600160a01b0390911690603401604051602081830303815290604052805190602001206114ac565b6001600160a01b038581166000908152603760205260409081902080546001600160a01b031916928416928317905551639065714760e01b8152919250906390657147906113a590879087908790600401611e85565b600060405180830381600087803b1580156113bf57600080fd5b505af11580156113d3573d6000803e3d6000fd5b50506040516001600160a01b038085169350871691507f46bd56f98e1b14fd35691959270a6e1edf7cb8fcd489e0f9dda89e46c0d1ff0d90600090a3505050505050565b6000816001600160a01b03163b60000361143357506000919050565b6040516301ffc9a760e01b81526380ac58cd60e01b60048201526001600160a01b038316906301ffc9a790602401602060405180830381865afa92505050801561149a575060408051601f3d908101601f19168201909252611497918101906118fe565b60015b6114a657506000919050565b92915050565b6000763d602d80600a3d3981f3363d3d373d3d3d363d730000008360601b60e81c176000526e5af43d82803e903d91602b57fd5bf38360781b1760205281603760096000f590506001600160a01b0381166114a65760405162461bcd60e51b8152602060048201526017602482015276115490cc4c4d8dce8818dc99585d194c8819985a5b1959604a1b60448201526064016103c8565b6001600160a01b038116811461155857600080fd5b50565b60008083601f84011261156d57600080fd5b5081356001600160401b0381111561158457600080fd5b6020830191508360208260051b850101111561159f57600080fd5b9250929050565b6000806000806000606086880312156115be57600080fd5b85356115c981611543565b945060208601356001600160401b03808211156115e557600080fd5b6115f189838a0161155b565b9096509450604088013591508082111561160a57600080fd5b506116178882890161155b565b969995985093965092949392505050565b60006020828403121561163a57600080fd5b813561164581611543565b9392505050565b60008060006060848603121561166157600080fd5b833561166c81611543565b9250602084013561167c81611543565b929592945050506040919091013590565b600080600080606085870312156116a357600080fd5b8435935060208501356116b581611543565b925060408501356001600160401b03808211156116d157600080fd5b818701915087601f8301126116e557600080fd5b8135818111156116f457600080fd5b88602082850101111561170657600080fd5b95989497505060200194505050565b6000806040838503121561172857600080fd5b823561173381611543565b946020939093013593505050565b6000806000806080858703121561175757600080fd5b843561176281611543565b9350602085013561177281611543565b9250604085013561178281611543565b9150606085013561179281611543565b939692955090935050565b600080858511156117ad57600080fd5b838611156117ba57600080fd5b5050820193919092039150565b803560208310156114a657600019602084900360031b1b1692915050565b60208082526022908201527f4368696c644552433732315072656469636174653a204e4f545f434f4e54524160408201526110d560f21b606082015260800190565b60006020828403121561183957600080fd5b815161164581611543565b60208082526024908201527f4368696c644552433732315072656469636174653a20554e4d41505045445f5460408201526327a5a2a760e11b606082015260800190565b634e487b7160e01b600052600160045260246000fd5b81835260006001600160fb1b038311156118b757600080fd5b8260051b80836020870137939093016020019392505050565b6001600160a01b03841681526040602082018190526000906118f5908301848661189e565b95945050505050565b60006020828403121561191057600080fd5b8151801515811461164557600080fd5b60208082526021908201527f4368696c644552433732315072656469636174653a204255524e5f4641494c456040820152601160fa1b606082015260800190565b8183526000602080850194508260005b8581101561199f57813561198481611543565b6001600160a01b031687529582019590820190600101611971565b509495945050505050565b8781526001600160a01b0387811660208301528616604082015260a0606082018190526000906119dd9083018688611961565b82810360808401526119f081858761189e565b9a9950505050505050505050565b6000815180845260005b81811015611a2457602081850181015186830182015201611a08565b506000602082860101526020601f19601f83011685010191505092915050565b6001600160a01b0383168152604060208201819052600090611a68908301846119fe565b949350505050565b604081526000611a84604083018688611961565b8281036020840152611a9781858761189e565b979650505050505050565b6001600160a01b03929092168252602082015260400190565b60008060008060808587031215611ad157600080fd5b8435611adc81611543565b93506020850135611aec81611543565b92506040850135611afc81611543565b9396929550929360600135925050565b60208082526021908201527f4368696c644552433732315072656469636174653a204d494e545f4641494c456040820152601160fa1b606082015260800190565b634e487b7160e01b600052604160045260246000fd5b604051601f8201601f191681016001600160401b0381118282101715611b8b57611b8b611b4d565b604052919050565b60006001600160401b03821115611bac57611bac611b4d565b5060051b60200190565b600082601f830112611bc757600080fd5b81356020611bdc611bd783611b93565b611b63565b82815260059290921b84018101918181019086841115611bfb57600080fd5b8286015b84811015611c165780358352918301918301611bff565b509695505050505050565b600080600080600060a08688031215611c3957600080fd5b85359450602080870135611c4c81611543565b94506040870135611c5c81611543565b935060608701356001600160401b0380821115611c7857600080fd5b818901915089601f830112611c8c57600080fd5b8135611c9a611bd782611b93565b81815260059190911b8301840190848101908c831115611cb957600080fd5b938501935b82851015611ce0578435611cd181611543565b82529385019390850190611cbe565b965050506080890135925080831115611cf857600080fd5b5050611d0688828901611bb6565b9150509295509295909350565b604080825283519082018190526000906020906060840190828701845b82811015611d555781516001600160a01b031684529284019290840190600101611d30565b5050508381038285015284518082528583019183019060005b81811015611d8a57835183529284019291840191600101611d6e565b5090979650505050505050565b600082601f830112611da857600080fd5b81356001600160401b03811115611dc157611dc1611b4d565b611dd4601f8201601f1916602001611b63565b818152846020838601011115611de957600080fd5b816020850160208301376000918101602001919091529392505050565b60008060008060808587031215611e1c57600080fd5b843593506020850135611e2e81611543565b925060408501356001600160401b0380821115611e4a57600080fd5b611e5688838901611d97565b93506060870135915080821115611e6c57600080fd5b50611e7987828801611d97565b91505092959194509250565b6001600160a01b0384168152606060208201819052600090611ea9908301856119fe565b8281036040840152611ebb81856119fe565b969550505050505056fea2646970667358221220268522f780e7ed46b57e237fb9e8f8739c54134f72de8d5e51d8c11076b4f3d964736f6c63430008110033",
  "linkReferences": {},
  "deployedLinkReferences": {}
}