{
  "_format": "hh-sol-artifact-1",
  "contractName": "StateReceivingContract",
  "sourceName": "contracts/mocks/StateReceivingContract.sol",
  "abi": [
    {
      "inputs": [],
      "name": "counter",
      "outputs": [
        {
          "internalType": "uint256",
          "name": "",
          "type": "uint256"
        }
      ],
      "stateMutability": "view",
      "type": "function"
    },
    {
      "inputs": [
        {
          "internalType": "uint256",
          "name": "",
          "type": "uint256"
        },
        {
          "internalType": "address",
          "name": "",
          "type": "address"
        },
        {
          "internalType": "bytes",
          "name": "data",
          "type": "bytes"
        }
      ],
      "name": "onStateReceive",
      "outputs": [
        {
          "internalType": "bytes32",
          "name": "",
          "type": "bytes32"
        }
      ],
      "stateMutability": "nonpayable",
      "type": "function"
    }
  ],
  "bytecode": "0x608060405234801561001057600080fd5b5061019e806100206000396000f3fe608060405234801561001057600080fd5b50600436106100365760003560e01c806361bc221a1461003b578063eeb4994514610056575b600080fd5b61004460005481565b60405190815260200160405180910390f35b610044610064366004610093565b600061007282840184610128565b6000808282546100829190610141565b909155505060005495945050505050565b600080600080606085870312156100a957600080fd5b8435935060208501356001600160a01b03811681146100c757600080fd5b9250604085013567ffffffffffffffff808211156100e457600080fd5b818701915087601f8301126100f857600080fd5b81358181111561010757600080fd5b88602082850101111561011957600080fd5b95989497505060200194505050565b60006020828403121561013a57600080fd5b5035919050565b8082018082111561016257634e487b7160e01b600052601160045260246000fd5b9291505056fea2646970667358221220142df80a2bf48569a69c9295b1924f05ad5cc218d4de6ba308c60b5dcd90500b64736f6c63430008110033",
  "linkReferences": {},
  "deployedLinkReferences": {}
}