{
  "_format": "hh-sol-artifact-1",
  "contractName": "RootERC20Predicate",
  "sourceName": "contracts/root/RootERC20Predicate.sol",
  "abi": [
    {
      "anonymous": false,
      "inputs": [
        {
          "indexed": true,
          "internalType": "address",
          "name": "rootToken",
          "type": "address"
        },
        {
          "indexed": true,
          "internalType": "address",
          "name": "childToken",
          "type": "address"
        },
        {
          "indexed": false,
          "internalType": "address",
          "name": "depositor",
          "type": "address"
        },
        {
          "indexed": true,
          "internalType": "address",
          "name": "receiver",
          "type": "address"
        },
        {
          "indexed": false,
          "internalType": "uint256",
          "name": "amount",
          "type": "uint256"
        }
      ],
      "name": "ERC20Deposit",
      "type": "event"
    },
    {
      "anonymous": false,
      "inputs": [
        {
          "indexed": true,
          "internalType": "address",
          "name": "rootToken",
          "type": "address"
        },
        {
          "indexed": true,
          "internalType": "address",
          "name": "childToken",
          "type": "address"
        },
        {
          "indexed": false,
          "internalType": "address",
          "name": "withdrawer",
          "type": "address"
        },
        {
          "indexed": true,
          "internalType": "address",
          "name": "receiver",
          "type": "address"
        },
        {
          "indexed": false,
          "internalType": "uint256",
          "name": "amount",
          "type": "uint256"
        }
      ],
      "name": "ERC20Withdraw",
      "type": "event"
    },
    {
      "anonymous": false,
      "inputs": [
        {
          "indexed": false,
          "internalType": "uint8",
          "name": "version",
          "type": "uint8"
        }
      ],
      "name": "Initialized",
      "type": "event"
    },
    {
      "anonymous": false,
      "inputs": [
        {
          "indexed": true,
          "internalType": "address",
          "name": "rootToken",
          "type": "address"
        },
        {
          "indexed": true,
          "internalType": "address",
          "name": "childToken",
          "type": "address"
        }
      ],
      "name": "TokenMapped",
      "type": "event"
    },
    {
      "inputs": [],
      "name": "DEPOSIT_SIG",
      "outputs": [
        {
          "internalType": "bytes32",
          "name": "",
          "type": "bytes32"
        }
      ],
      "stateMutability": "view",
      "type": "function"
    },
    {
      "inputs": [],
      "name": "MAP_TOKEN_SIG",
      "outputs": [
        {
          "internalType": "bytes32",
          "name": "",
          "type": "bytes32"
        }
      ],
      "stateMutability": "view",
      "type": "function"
    },
    {
      "inputs": [],
      "name": "WITHDRAW_SIG",
      "outputs": [
        {
          "internalType": "bytes32",
          "name": "",
          "type": "bytes32"
        }
      ],
      "stateMutability": "view",
      "type": "function"
    },
    {
      "inputs": [],
      "name": "childERC20Predicate",
      "outputs": [
        {
          "internalType": "address",
          "name": "",
          "type": "address"
        }
      ],
      "stateMutability": "view",
      "type": "function"
    },
    {
      "inputs": [],
      "name": "childTokenTemplate",
      "outputs": [
        {
          "internalType": "address",
          "name": "",
          "type": "address"
        }
      ],
      "stateMutability": "view",
      "type": "function"
    },
    {
      "inputs": [
        {
          "internalType": "contract IERC20Metadata",
          "name": "rootToken",
          "type": "address"
        },
        {
          "internalType": "uint256",
          "name": "amount",
          "type": "uint256"
        }
      ],
      "name": "deposit",
      "outputs": [],
      "stateMutability": "nonpayable",
      "type": "function"
    },
    {
      "inputs": [
        {
          "internalType": "contract IERC20Metadata",
          "name": "rootToken",
          "type": "address"
        },
        {
          "internalType": "address",
          "name": "receiver",
          "type": "address"
        },
        {
          "internalType": "uint256",
          "name": "amount",
          "type": "uint256"
        }
      ],
      "name": "depositTo",
      "outputs": [],
      "stateMutability": "nonpayable",
      "type": "function"
    },
    {
      "inputs": [],
      "name": "exitHelper",
      "outputs": [
        {
          "internalType": "address",
          "name": "",
          "type": "address"
        }
      ],
      "stateMutability": "view",
      "type": "function"
    },
    {
      "inputs": [
        {
          "internalType": "address",
          "name": "newStateSender",
          "type": "address"
        },
        {
          "internalType": "address",
          "name": "newExitHelper",
          "type": "address"
        },
        {
          "internalType": "address",
          "name": "newChildERC20Predicate",
          "type": "address"
        },
        {
          "internalType": "address",
          "name": "newChildTokenTemplate",
          "type": "address"
        },
        {
          "internalType": "address",
          "name": "nativeTokenRootAddress",
          "type": "address"
        }
      ],
      "name": "initialize",
      "outputs": [],
      "stateMutability": "nonpayable",
      "type": "function"
    },
    {
      "inputs": [
        {
          "internalType": "contract IERC20Metadata",
          "name": "rootToken",
          "type": "address"
        }
      ],
      "name": "mapToken",
      "outputs": [],
      "stateMutability": "nonpayable",
      "type": "function"
    },
    {
      "inputs": [
        {
          "internalType": "uint256",
          "name": "",
          "type": "uint256"
        },
        {
          "internalType": "address",
          "name": "sender",
          "type": "address"
        },
        {
          "internalType": "bytes",
          "name": "data",
          "type": "bytes"
        }
      ],
      "name": "onL2StateReceive",
      "outputs": [],
      "stateMutability": "nonpayable",
      "type": "function"
    },
    {
      "inputs": [
        {
          "internalType": "address",
          "name": "",
          "type": "address"
        }
      ],
      "name": "rootTokenToChildToken",
      "outputs": [
        {
          "internalType": "address",
          "name": "",
          "type": "address"
        }
      ],
      "stateMutability": "view",
      "type": "function"
    },
    {
      "inputs": [],
      "name": "stateSender",
      "outputs": [
        {
          "internalType": "contract IStateSender",
          "name": "",
          "type": "address"
        }
      ],
      "stateMutability": "view",
      "type": "function"
    }
  ],
  "bytecode": "0x608060405234801561001057600080fd5b506113c8806100206000396000f3fe608060405234801561001057600080fd5b50600436106100bf5760003560e01c8063cb10f94c1161007c578063cb10f94c1461018d578063d41f1771146101a6578063d57184e4146101cd578063f213159c146101e0578063f43cda8b146101f3578063f4a120f714610206578063f64512551461021957600080fd5b80631459457a146100c457806347e7ef24146100d95780637efab4f5146100ec57806395c7041c14610132578063b176806514610145578063b68ad1e41461017a575b600080fd5b6100d76100d2366004610f4c565b610240565b005b6100d76100e7366004610fbd565b6104ae565b6101156100fa366004610fe9565b6004602052600090815260409020546001600160a01b031681565b6040516001600160a01b0390911681526020015b60405180910390f35b600154610115906001600160a01b031681565b61016c7f7a8dc26796a1e50e6e190b70259f58f6a4edd5b22280ceecc82b687b8e98286981565b604051908152602001610129565b600354610115906001600160a01b031681565b600054610115906201000090046001600160a01b031681565b61016c7f87a7811f4bfedea3d341ad165680ae306b01aaeacc205d227629cf157dd9f82181565b600254610115906001600160a01b031681565b6100d76101ee36600461100d565b6104bd565b6100d761020136600461104e565b6104cd565b6100d7610214366004610fe9565b610654565b61016c7f2cef46a936bdc5b7e6e8c71aa04560c41cf7d88bb26901a7e7f4936ff02accad81565b600054610100900460ff16158080156102605750600054600160ff909116105b8061027a5750303b15801561027a575060005460ff166001145b6102e25760405162461bcd60e51b815260206004820152602e60248201527f496e697469616c697a61626c653a20636f6e747261637420697320616c72656160448201526d191e481a5b9a5d1a585b1a5e995960921b60648201526084015b60405180910390fd5b6000805460ff191660011790558015610305576000805461ff0019166101001790555b6001600160a01b0386161580159061032557506001600160a01b03851615155b801561033957506001600160a01b03841615155b801561034d57506001600160a01b03831615155b6103a85760405162461bcd60e51b815260206004820152602660248201527f526f6f7445524332305072656469636174653a204241445f494e495449414c496044820152652d20aa24a7a760d11b60648201526084016102d9565b6000805462010000600160b01b031916620100006001600160a01b038981169190910291909117909155600180546001600160a01b03199081168884161790915560028054821687841617905560038054909116858316179055821615610460576001600160a01b03821660008181526004602052604080822080546001600160a01b03191661101090811790915590519092917f85920d35e6c72f6b2affffa04298b0cecfeba86e4a9f407df661f1cb8ab5e61791a35b80156104a6576000805461ff0019169055604051600181527f7f26b83ff96e1f2b6a682f133852f6798a09c465da95921460cefb38474024989060200160405180910390a15b505050505050565b6104b9823383610a0b565b5050565b6104c8838383610a0b565b505050565b6001546001600160a01b031633146105335760405162461bcd60e51b8152602060048201526024808201527f526f6f7445524332305072656469636174653a204f4e4c595f455849545f4845604482015263262822a960e11b60648201526084016102d9565b6002546001600160a01b038481169116146105a15760405162461bcd60e51b815260206004820152602860248201527f526f6f7445524332305072656469636174653a204f4e4c595f4348494c445f50604482015267524544494341544560c01b60648201526084016102d9565b7f7a8dc26796a1e50e6e190b70259f58f6a4edd5b22280ceecc82b687b8e9828696105d06020600084866110d7565b6105d991611101565b036105f8576105f36105ee82602081866110d7565b610b90565b61064e565b60405162461bcd60e51b815260206004820152602560248201527f526f6f7445524332305072656469636174653a20494e56414c49445f5349474e604482015264415455524560d81b60648201526084016102d9565b50505050565b6001600160a01b0381166106b45760405162461bcd60e51b815260206004820152602160248201527f526f6f7445524332305072656469636174653a20494e56414c49445f544f4b456044820152602760f91b60648201526084016102d9565b6001600160a01b0381811660009081526004602052604090205416156107275760405162461bcd60e51b815260206004820152602260248201527f526f6f7445524332305072656469636174653a20414c52454144595f4d415050604482015261115160f21b60648201526084016102d9565b60035460408051606084901b6bffffffffffffffffffffffff19166020808301919091528251601481840301815260348301808552815191909201206002546001600160a01b03908116606c8501526f5af43d82803e903d91602b57fd5bf3ff60588501529094166048830152733d602d80600a3d3981f3363d3d373d3d3d363d739052608c81019290925260379082012060ac82015260556077909101206000906001600160a01b03838116600081815260046020819052604080832080546001600160a01b031916878716179055825460025482516306fdde0360e01b81529251979850620100009091048616966316f198319691909116947f2cef46a936bdc5b7e6e8c71aa04560c41cf7d88bb26901a7e7f4936ff02accad948a9491936306fdde03938184019390918290030181865afa15801561086d573d6000803e3d6000fd5b505050506040513d6000823e601f3d908101601f19168201604052610895919081019061115a565b876001600160a01b03166395d89b416040518163ffffffff1660e01b8152600401600060405180830381865afa1580156108d3573d6000803e3d6000fd5b505050506040513d6000823e601f3d908101601f191682016040526108fb919081019061115a565b886001600160a01b031663313ce5676040518163ffffffff1660e01b8152600401602060405180830381865afa158015610939573d6000803e3d6000fd5b505050506040513d601f19601f8201168201806040525081019061095d91906111fc565b60405160200161097195949392919061124b565b6040516020818303038152906040526040518363ffffffff1660e01b815260040161099d92919061129d565b600060405180830381600087803b1580156109b757600080fd5b505af11580156109cb573d6000803e3d6000fd5b50506040516001600160a01b038085169350851691507f85920d35e6c72f6b2affffa04298b0cecfeba86e4a9f407df661f1cb8ab5e61790600090a35050565b6001600160a01b0383811660009081526004602052604090205416610a3357610a3383610654565b6001600160a01b038084166000908152600460205260409020541680610a5b57610a5b6112c1565b610a706001600160a01b038516333085610c48565b600054600254604080517f87a7811f4bfedea3d341ad165680ae306b01aaeacc205d227629cf157dd9f82160208201526001600160a01b0388811682840152336060830152878116608083015260a08083018890528351808403909101815260c08301938490526316f1983160e01b909352620100009094048416936316f1983193610b019391169160c40161129d565b600060405180830381600087803b158015610b1b57600080fd5b505af1158015610b2f573d6000803e3d6000fd5b50505050826001600160a01b0316816001600160a01b0316856001600160a01b03167f8be9001bb612c7123a1861dc0d9d94e683261f6cbbd7c7438b708975bc4908a33386604051610b829291906112d7565b60405180910390a450505050565b6000808080610ba1858701876112f0565b6001600160a01b0380851660009081526004602052604090205494985092965090945092501680610bd457610bd46112c1565b610be86001600160a01b0386168484610cb3565b826001600160a01b0316816001600160a01b0316866001600160a01b03167f9c4f744b2e971d7058a9d8f43977e0e17bf7d57a48659f0e18541b7ee3d022e48786604051610c379291906112d7565b60405180910390a450505050505050565b6040516001600160a01b038085166024830152831660448201526064810182905261064e9085906323b872dd60e01b906084015b60408051601f198184030181529190526020810180516001600160e01b03166001600160e01b031990931692909217909152610cd2565b6104c88363a9059cbb60e01b8484604051602401610c7c9291906112d7565b6000610d27826040518060400160405280602081526020017f5361666545524332303a206c6f772d6c6576656c2063616c6c206661696c6564815250856001600160a01b0316610da49092919063ffffffff16565b8051909150156104c85780806020019051810190610d459190611341565b6104c85760405162461bcd60e51b815260206004820152602a60248201527f5361666545524332303a204552433230206f7065726174696f6e20646964206e6044820152691bdd081cdd58d8d9595960b21b60648201526084016102d9565b6060610db38484600085610dbb565b949350505050565b606082471015610e1c5760405162461bcd60e51b815260206004820152602660248201527f416464726573733a20696e73756666696369656e742062616c616e636520666f6044820152651c8818d85b1b60d21b60648201526084016102d9565b600080866001600160a01b03168587604051610e389190611363565b60006040518083038185875af1925050503d8060008114610e75576040519150601f19603f3d011682016040523d82523d6000602084013e610e7a565b606091505b5091509150610e8b87838387610e96565b979650505050505050565b60608315610f05578251600003610efe576001600160a01b0385163b610efe5760405162461bcd60e51b815260206004820152601d60248201527f416464726573733a2063616c6c20746f206e6f6e2d636f6e747261637400000060448201526064016102d9565b5081610db3565b610db38383815115610f1a5781518083602001fd5b8060405162461bcd60e51b81526004016102d9919061137f565b6001600160a01b0381168114610f4957600080fd5b50565b600080600080600060a08688031215610f6457600080fd5b8535610f6f81610f34565b94506020860135610f7f81610f34565b93506040860135610f8f81610f34565b92506060860135610f9f81610f34565b91506080860135610faf81610f34565b809150509295509295909350565b60008060408385031215610fd057600080fd5b8235610fdb81610f34565b946020939093013593505050565b600060208284031215610ffb57600080fd5b813561100681610f34565b9392505050565b60008060006060848603121561102257600080fd5b833561102d81610f34565b9250602084013561103d81610f34565b929592945050506040919091013590565b6000806000806060858703121561106457600080fd5b84359350602085013561107681610f34565b9250604085013567ffffffffffffffff8082111561109357600080fd5b818701915087601f8301126110a757600080fd5b8135818111156110b657600080fd5b8860208285010111156110c857600080fd5b95989497505060200194505050565b600080858511156110e757600080fd5b838611156110f457600080fd5b5050820193919092039150565b8035602083101561111a57600019602084900360031b1b165b92915050565b634e487b7160e01b600052604160045260246000fd5b60005b83811015611151578181015183820152602001611139565b50506000910152565b60006020828403121561116c57600080fd5b815167ffffffffffffffff8082111561118457600080fd5b818401915084601f83011261119857600080fd5b8151818111156111aa576111aa611120565b604051601f8201601f19908116603f011681019083821181831017156111d2576111d2611120565b816040528281528760208487010111156111eb57600080fd5b610e8b836020830160208801611136565b60006020828403121561120e57600080fd5b815160ff8116811461100657600080fd5b60008151808452611237816020860160208601611136565b601f01601f19169290920160200192915050565b8581526001600160a01b038516602082015260a0604082018190526000906112759083018661121f565b8281036060840152611287818661121f565b91505060ff831660808301529695505050505050565b6001600160a01b0383168152604060208201819052600090610db39083018461121f565b634e487b7160e01b600052600160045260246000fd5b6001600160a01b03929092168252602082015260400190565b6000806000806080858703121561130657600080fd5b843561131181610f34565b9350602085013561132181610f34565b9250604085013561133181610f34565b9396929550929360600135925050565b60006020828403121561135357600080fd5b8151801515811461100657600080fd5b60008251611375818460208701611136565b9190910192915050565b602081526000611006602083018461121f56fea264697066735822122071186a5f68a0e568193775380eab31143f89ff0d61291b20e262c95a735f1d7b64736f6c63430008110033",
  "linkReferences": {},
  "deployedLinkReferences": {}
}