{
  "_format": "hh-sol-artifact-1",
  "contractName": "ChildERC721",
  "sourceName": "contracts/child/ChildERC721.sol",
  "abi": [
    {
      "anonymous": false,
      "inputs": [
        {
          "indexed": true,
          "internalType": "address",
          "name": "owner",
          "type": "address"
        },
        {
          "indexed": true,
          "internalType": "address",
          "name": "approved",
          "type": "address"
        },
        {
          "indexed": true,
          "internalType": "uint256",
          "name": "tokenId",
          "type": "uint256"
        }
      ],
      "name": "Approval",
      "type": "event"
    },
    {
      "anonymous": false,
      "inputs": [
        {
          "indexed": true,
          "internalType": "address",
          "name": "owner",
          "type": "address"
        },
        {
          "indexed": true,
          "internalType": "address",
          "name": "operator",
          "type": "address"
        },
        {
          "indexed": false,
          "internalType": "bool",
          "name": "approved",
          "type": "bool"
        }
      ],
      "name": "ApprovalForAll",
      "type": "event"
    },
    {
      "anonymous": false,
      "inputs": [
        {
          "indexed": false,
          "internalType": "uint8",
          "name": "version",
          "type": "uint8"
        }
      ],
      "name": "Initialized",
      "type": "event"
    },
    {
      "anonymous": false,
      "inputs": [
        {
          "indexed": false,
          "internalType": "address",
          "name": "userAddress",
          "type": "address"
        },
        {
          "indexed": false,
          "internalType": "address",
          "name": "relayerAddress",
          "type": "address"
        },
        {
          "indexed": false,
          "internalType": "bytes",
          "name": "functionSignature",
          "type": "bytes"
        }
      ],
      "name": "MetaTransactionExecuted",
      "type": "event"
    },
    {
      "anonymous": false,
      "inputs": [
        {
          "indexed": true,
          "internalType": "address",
          "name": "from",
          "type": "address"
        },
        {
          "indexed": true,
          "internalType": "address",
          "name": "to",
          "type": "address"
        },
        {
          "indexed": true,
          "internalType": "uint256",
          "name": "tokenId",
          "type": "uint256"
        }
      ],
      "name": "Transfer",
      "type": "event"
    },
    {
      "inputs": [
        {
          "internalType": "address",
          "name": "to",
          "type": "address"
        },
        {
          "internalType": "uint256",
          "name": "tokenId",
          "type": "uint256"
        }
      ],
      "name": "approve",
      "outputs": [],
      "stateMutability": "nonpayable",
      "type": "function"
    },
    {
      "inputs": [
        {
          "internalType": "address",
          "name": "owner",
          "type": "address"
        }
      ],
      "name": "balanceOf",
      "outputs": [
        {
          "internalType": "uint256",
          "name": "",
          "type": "uint256"
        }
      ],
      "stateMutability": "view",
      "type": "function"
    },
    {
      "inputs": [
        {
          "internalType": "address",
          "name": "account",
          "type": "address"
        },
        {
          "internalType": "uint256",
          "name": "tokenId",
          "type": "uint256"
        }
      ],
      "name": "burn",
      "outputs": [
        {
          "internalType": "bool",
          "name": "",
          "type": "bool"
        }
      ],
      "stateMutability": "nonpayable",
      "type": "function"
    },
    {
      "inputs": [
        {
          "internalType": "address",
          "name": "account",
          "type": "address"
        },
        {
          "internalType": "uint256[]",
          "name": "tokenIds",
          "type": "uint256[]"
        }
      ],
      "name": "burnBatch",
      "outputs": [
        {
          "internalType": "bool",
          "name": "",
          "type": "bool"
        }
      ],
      "stateMutability": "nonpayable",
      "type": "function"
    },
    {
      "inputs": [
        {
          "internalType": "address",
          "name": "userAddress",
          "type": "address"
        },
        {
          "internalType": "bytes",
          "name": "functionSignature",
          "type": "bytes"
        },
        {
          "internalType": "bytes32",
          "name": "sigR",
          "type": "bytes32"
        },
        {
          "internalType": "bytes32",
          "name": "sigS",
          "type": "bytes32"
        },
        {
          "internalType": "uint8",
          "name": "sigV",
          "type": "uint8"
        }
      ],
      "name": "executeMetaTransaction",
      "outputs": [
        {
          "internalType": "bytes",
          "name": "",
          "type": "bytes"
        }
      ],
      "stateMutability": "nonpayable",
      "type": "function"
    },
    {
      "inputs": [
        {
          "internalType": "uint256",
          "name": "tokenId",
          "type": "uint256"
        }
      ],
      "name": "getApproved",
      "outputs": [
        {
          "internalType": "address",
          "name": "",
          "type": "address"
        }
      ],
      "stateMutability": "view",
      "type": "function"
    },
    {
      "inputs": [
        {
          "internalType": "address",
          "name": "user",
          "type": "address"
        }
      ],
      "name": "getNonce",
      "outputs": [
        {
          "internalType": "uint256",
          "name": "nonce",
          "type": "uint256"
        }
      ],
      "stateMutability": "view",
      "type": "function"
    },
    {
      "inputs": [
        {
          "internalType": "address",
          "name": "rootToken_",
          "type": "address"
        },
        {
          "internalType": "string",
          "name": "name_",
          "type": "string"
        },
        {
          "internalType": "string",
          "name": "symbol_",
          "type": "string"
        }
      ],
      "name": "initialize",
      "outputs": [],
      "stateMutability": "nonpayable",
      "type": "function"
    },
    {
      "inputs": [
        {
          "internalType": "address",
          "name": "owner",
          "type": "address"
        },
        {
          "internalType": "address",
          "name": "operator",
          "type": "address"
        }
      ],
      "name": "isApprovedForAll",
      "outputs": [
        {
          "internalType": "bool",
          "name": "",
          "type": "bool"
        }
      ],
      "stateMutability": "view",
      "type": "function"
    },
    {
      "inputs": [
        {
          "internalType": "address",
          "name": "account",
          "type": "address"
        },
        {
          "internalType": "uint256",
          "name": "tokenId",
          "type": "uint256"
        }
      ],
      "name": "mint",
      "outputs": [
        {
          "internalType": "bool",
          "name": "",
          "type": "bool"
        }
      ],
      "stateMutability": "nonpayable",
      "type": "function"
    },
    {
      "inputs": [
        {
          "internalType": "address[]",
          "name": "accounts",
          "type": "address[]"
        },
        {
          "internalType": "uint256[]",
          "name": "tokenIds",
          "type": "uint256[]"
        }
      ],
      "name": "mintBatch",
      "outputs": [
        {
          "internalType": "bool",
          "name": "",
          "type": "bool"
        }
      ],
      "stateMutability": "nonpayable",
      "type": "function"
    },
    {
      "inputs": [],
      "name": "name",
      "outputs": [
        {
          "internalType": "string",
          "name": "",
          "type": "string"
        }
      ],
      "stateMutability": "view",
      "type": "function"
    },
    {
      "inputs": [
        {
          "internalType": "uint256",
          "name": "tokenId",
          "type": "uint256"
        }
      ],
      "name": "ownerOf",
      "outputs": [
        {
          "internalType": "address",
          "name": "",
          "type": "address"
        }
      ],
      "stateMutability": "view",
      "type": "function"
    },
    {
      "inputs": [],
      "name": "predicate",
      "outputs": [
        {
          "internalType": "address",
          "name": "",
          "type": "address"
        }
      ],
      "stateMutability": "view",
      "type": "function"
    },
    {
      "inputs": [],
      "name": "rootToken",
      "outputs": [
        {
          "internalType": "address",
          "name": "",
          "type": "address"
        }
      ],
      "stateMutability": "view",
      "type": "function"
    },
    {
      "inputs": [
        {
          "internalType": "address",
          "name": "from",
          "type": "address"
        },
        {
          "internalType": "address",
          "name": "to",
          "type": "address"
        },
        {
          "internalType": "uint256",
          "name": "tokenId",
          "type": "uint256"
        }
      ],
      "name": "safeTransferFrom",
      "outputs": [],
      "stateMutability": "nonpayable",
      "type": "function"
    },
    {
      "inputs": [
        {
          "internalType": "address",
          "name": "from",
          "type": "address"
        },
        {
          "internalType": "address",
          "name": "to",
          "type": "address"
        },
        {
          "internalType": "uint256",
          "name": "tokenId",
          "type": "uint256"
        },
        {
          "internalType": "bytes",
          "name": "data",
          "type": "bytes"
        }
      ],
      "name": "safeTransferFrom",
      "outputs": [],
      "stateMutability": "nonpayable",
      "type": "function"
    },
    {
      "inputs": [
        {
          "internalType": "address",
          "name": "operator",
          "type": "address"
        },
        {
          "internalType": "bool",
          "name": "approved",
          "type": "bool"
        }
      ],
      "name": "setApprovalForAll",
      "outputs": [],
      "stateMutability": "nonpayable",
      "type": "function"
    },
    {
      "inputs": [
        {
          "internalType": "bytes4",
          "name": "interfaceId",
          "type": "bytes4"
        }
      ],
      "name": "supportsInterface",
      "outputs": [
        {
          "internalType": "bool",
          "name": "",
          "type": "bool"
        }
      ],
      "stateMutability": "view",
      "type": "function"
    },
    {
      "inputs": [],
      "name": "symbol",
      "outputs": [
        {
          "internalType": "string",
          "name": "",
          "type": "string"
        }
      ],
      "stateMutability": "view",
      "type": "function"
    },
    {
      "inputs": [
        {
          "internalType": "uint256",
          "name": "tokenId",
          "type": "uint256"
        }
      ],
      "name": "tokenURI",
      "outputs": [
        {
          "internalType": "string",
          "name": "",
          "type": "string"
        }
      ],
      "stateMutability": "view",
      "type": "function"
    },
    {
      "inputs": [
        {
          "internalType": "address",
          "name": "from",
          "type": "address"
        },
        {
          "internalType": "address",
          "name": "to",
          "type": "address"
        },
        {
          "internalType": "uint256",
          "name": "tokenId",
          "type": "uint256"
        }
      ],
      "name": "transferFrom",
      "outputs": [],
      "stateMutability": "nonpayable",
      "type": "function"
    }
  ],
  "bytecode": "0x608060405234801561001057600080fd5b5061243b806100206000396000f3fe608060405234801561001057600080fd5b50600436106101425760003560e01c806370a08231116100b8578063a22cb4651161007c578063a22cb465146102bf578063b2dc5dc3146102d2578063b88d4fde146102e5578063c87b56dd146102f8578063e61987051461030b578063e985e9c51461031c57600080fd5b806370a082311461026b5780637c88e3d91461027e578063906571471461029157806395d89b41146102a45780639dc29fac146102ac57600080fd5b80631f2d00651161010a5780631f2d0065146101d757806323b872dd146101e85780632d0335ab146101fb57806340c10f191461023257806342842e0e146102455780636352211e1461025857600080fd5b806301ffc9a71461014757806306fdde031461016f578063081812fc14610184578063095ea7b3146101af5780630c53c51c146101c4575b600080fd5b61015a610155366004611a47565b61032f565b60405190151581526020015b60405180910390f35b610177610381565b6040516101669190611ab4565b610197610192366004611ac7565b610413565b6040516001600160a01b039091168152602001610166565b6101c26101bd366004611afc565b61043a565b005b6101776101d2366004611b6e565b610566565b609f546001600160a01b0316610197565b6101c26101f6366004611bed565b610844565b610224610209366004611c29565b6001600160a01b031660009081526006602052604090205490565b604051908152602001610166565b61015a610240366004611afc565b61087c565b6101c2610253366004611bed565b6108bc565b610197610266366004611ac7565b6108d7565b610224610279366004611c29565b61090c565b61015a61028c366004611c88565b610992565b6101c261029f366004611cf3565b610a79565b610177610ce7565b61015a6102ba366004611afc565b610cf6565b6101c26102cd366004611d73565b610d65565b61015a6102e0366004611daf565b610d7b565b6101c26102f3366004611e17565b610e28565b610177610306366004611ac7565b610e67565b609e546001600160a01b0316610197565b61015a61032a366004611ef2565b610edb565b60006001600160e01b031982166380ac58cd60e01b148061036057506001600160e01b03198216635b5e139f60e01b145b8061037b57506301ffc9a760e01b6001600160e01b03198316145b92915050565b6060606c805461039090611f25565b80601f01602080910402602001604051908101604052809291908181526020018280546103bc90611f25565b80156104095780601f106103de57610100808354040283529160200191610409565b820191906000526020600020905b8154815290600101906020018083116103ec57829003601f168201915b5050505050905090565b600061041e82610f09565b506000908152607060205260409020546001600160a01b031690565b6000610445826108d7565b9050806001600160a01b0316836001600160a01b0316036104b75760405162461bcd60e51b815260206004820152602160248201527f4552433732313a20617070726f76616c20746f2063757272656e74206f776e656044820152603960f91b60648201526084015b60405180910390fd5b806001600160a01b03166104c9610f31565b6001600160a01b031614806104e557506104e58161032a610f31565b6105575760405162461bcd60e51b815260206004820152603d60248201527f4552433732313a20617070726f76652063616c6c6572206973206e6f7420746f60448201527f6b656e206f776e6572206f7220617070726f76656420666f7220616c6c00000060648201526084016104ae565b6105618383610f40565b505050565b606060006105a987878080601f016020809104026020016040519081016040528093929190818152602001838380828437600092019190915250610fae92505050565b90506001600160e01b031960003581169082160361062f5760405162461bcd60e51b815260206004820152603d60248201527f66756e6374696f6e5369676e61747572652063616e206e6f74206265206f662060448201527f657865637574654d6574615472616e73616374696f6e206d6574686f6400000060648201526084016104ae565b604080516060810182526001600160a01b038a16600081815260066020908152848220548452808401929092528351601f8b0183900483028101830185528a815290938301918b908b9081908401838280828437600092019190915250505091525090506106a08982888888610fc9565b6106f65760405162461bcd60e51b815260206004820152602160248201527f5369676e657220616e64207369676e617475726520646f206e6f74206d6174636044820152600d60fb1b60648201526084016104ae565b600660008a6001600160a01b03166001600160a01b031681526020019081526020016000206000815460010191905081905550600080306001600160a01b03168a8a8d60405160200161074b93929190611f5f565b60408051601f198184030181529082905261076591611f85565b6000604051808303816000865af19150503d80600081146107a2576040519150601f19603f3d011682016040523d82523d6000602084013e6107a7565b606091505b5091509150816107f95760405162461bcd60e51b815260206004820152601c60248201527f46756e6374696f6e2063616c6c206e6f74207375636365737366756c0000000060448201526064016104ae565b7f5845892132946850460bff5a0083f71031bc5bf9aadcd40f1de79423eac9b10b8b338c8c60405161082e9493929190611fa1565b60405180910390a19a9950505050505050505050565b61085561084f610f31565b826110a5565b6108715760405162461bcd60e51b81526004016104ae90611fed565b610561838383611103565b609e546000906001600160a01b031633146108a95760405162461bcd60e51b81526004016104ae9061203a565b6108b38383611255565b50600192915050565b61056183838360405180602001604052806000815250610e28565b6000818152606e60205260408120546001600160a01b03168061037b5760405162461bcd60e51b81526004016104ae9061207e565b60006001600160a01b0382166109765760405162461bcd60e51b815260206004820152602960248201527f4552433732313a2061646472657373207a65726f206973206e6f7420612076616044820152683634b21037bbb732b960b91b60648201526084016104ae565b506001600160a01b03166000908152606f602052604090205490565b609e546000906001600160a01b031633146109bf5760405162461bcd60e51b81526004016104ae9061203a565b83828114610a0f5760405162461bcd60e51b815260206004820152601f60248201527f4368696c644552433732313a204172726179206c656e206d69736d617463680060448201526064016104ae565b60005b81811015610a6a57610a62878783818110610a2f57610a2f6120b0565b9050602002016020810190610a449190611c29565b868684818110610a5657610a566120b0565b90506020020135611255565b600101610a12565b5060019150505b949350505050565b600754610100900460ff1615808015610a995750600754600160ff909116105b80610ab35750303b158015610ab3575060075460ff166001145b610b165760405162461bcd60e51b815260206004820152602e60248201527f496e697469616c697a61626c653a20636f6e747261637420697320616c72656160448201526d191e481a5b9a5d1a585b1a5e995960921b60648201526084016104ae565b6007805460ff191660011790558015610b39576007805461ff0019166101001790555b6001600160a01b03861615801590610b5057508315155b8015610b5b57508115155b610ba75760405162461bcd60e51b815260206004820152601f60248201527f4368696c644552433732313a2042616420696e697469616c697a6174696f6e0060448201526064016104ae565b609f80546001600160a01b0388166001600160a01b031991821617909155609e805490911633179055604080516020601f8701819004810282018101909252858152610c4191879087908190840183828082843760009201919091525050604080516020601f8901819004810282018101909252878152925087915086908190840183828082843760009201919091525061126f92505050565b610c9985858080601f016020809104026020016040519081016040528093929190818152602001838380828437600092019190915250506040805180820190915260018152603160f81b602082015291506112a09050565b8015610cdf576007805461ff0019169055604051600181527f7f26b83ff96e1f2b6a682f133852f6798a09c465da95921460cefb38474024989060200160405180910390a15b505050505050565b6060606d805461039090611f25565b609e546000906001600160a01b03163314610d235760405162461bcd60e51b81526004016104ae9061203a565b610d2c826108d7565b6001600160a01b0316836001600160a01b031614610d5c5760405162461bcd60e51b81526004016104ae906120c6565b6108b38261130c565b610d77610d70610f31565b838361138f565b5050565b609e546000906001600160a01b03163314610da85760405162461bcd60e51b81526004016104ae9061203a565b8160005b81811015610e1c576000858583818110610dc857610dc86120b0565b905060200201359050610dda816108d7565b6001600160a01b0316876001600160a01b031614610e0a5760405162461bcd60e51b81526004016104ae906120c6565b610e138161130c565b50600101610dac565b50600195945050505050565b610e39610e33610f31565b836110a5565b610e555760405162461bcd60e51b81526004016104ae90611fed565b610e6184848484611459565b50505050565b6060610e7282610f09565b6000610e8960408051602081019091526000815290565b90506000815111610ea95760405180602001604052806000815250610ed4565b80610eb38461148c565b604051602001610ec49291906120fb565b6040516020818303038152906040525b9392505050565b6001600160a01b03918216600090815260716020908152604080832093909416825291909152205460ff1690565b610f128161151e565b610f2e5760405162461bcd60e51b81526004016104ae9061207e565b50565b6000610f3b61153b565b905090565b600081815260706020526040902080546001600160a01b0319166001600160a01b0384169081179091558190610f75826108d7565b6001600160a01b03167f8c5be1e5ebec7d5bd14f71427d1e84f3dd0314c0f7b2291e5b200ac8c7c3b92560405160405180910390a45050565b60008151600003610fc157506000919050565b506020015190565b6000806001610fdf610fda88611597565b611614565b6040805160008152602081018083529290925260ff861690820152606081018790526080810186905260a0016020604051602081039080840390855afa15801561102d573d6000803e3d6000fd5b5050604051601f1901519150506001600160a01b0381166110845760405162461bcd60e51b8152602060048201526011602482015270496e76616c6964207369676e617475726560781b60448201526064016104ae565b866001600160a01b0316816001600160a01b03161491505095945050505050565b6000806110b1836108d7565b9050806001600160a01b0316846001600160a01b031614806110d857506110d88185610edb565b80610a715750836001600160a01b03166110f184610413565b6001600160a01b031614949350505050565b826001600160a01b0316611116826108d7565b6001600160a01b03161461113c5760405162461bcd60e51b81526004016104ae9061212a565b6001600160a01b03821661119e5760405162461bcd60e51b8152602060048201526024808201527f4552433732313a207472616e7366657220746f20746865207a65726f206164646044820152637265737360e01b60648201526084016104ae565b826001600160a01b03166111b1826108d7565b6001600160a01b0316146111d75760405162461bcd60e51b81526004016104ae9061212a565b600081815260706020908152604080832080546001600160a01b03199081169091556001600160a01b03878116808652606f8552838620805460001901905590871680865283862080546001019055868652606e90945282852080549092168417909155905184936000805160206123e683398151915291a4505050565b610d77828260405180602001604052806000815250611662565b600754610100900460ff166112965760405162461bcd60e51b81526004016104ae9061216f565b610d778282611695565b815160208084019190912082519183019190912060038290556004819055466001557f8b73c3c69bb8fe3d512ecc4cf759cc79239f7b179b0ffacaa9a75d522b39400f6112ee8184846116d5565b600055600280546001600160a01b0319163017905560055550505050565b6000611317826108d7565b9050611322826108d7565b600083815260706020908152604080832080546001600160a01b03199081169091556001600160a01b038516808552606f84528285208054600019019055878552606e909352818420805490911690555192935084926000805160206123e6833981519152908390a45050565b816001600160a01b0316836001600160a01b0316036113ec5760405162461bcd60e51b815260206004820152601960248201527822a9219b99189d1030b8383937bb32903a379031b0b63632b960391b60448201526064016104ae565b6001600160a01b03838116600081815260716020908152604080832094871680845294825291829020805460ff191686151590811790915591519182527f17307eab39ab6107e8899845ad3d59bd9653f200f220920489ca2b5937696c31910160405180910390a3505050565b611464848484611103565b6114708484848461171e565b610e615760405162461bcd60e51b81526004016104ae906121ba565b6060600061149983611823565b60010190506000816001600160401b038111156114b8576114b8611e01565b6040519080825280601f01601f1916602001820160405280156114e2576020820181803683370190505b5090508181016020015b600019016f181899199a1a9b1b9c1cb0b131b232b360811b600a86061a8153600a85049450846114ec57509392505050565b6000908152606e60205260409020546001600160a01b0316151590565b600030330361159157600080368080601f0160208091040260200160405190810160405280939291908181526020018383808284376000920191909152505050503601516001600160a01b031691506115949050565b50335b90565b60006040518060800160405280604381526020016123a360439139805160209182012083518483015160408087015180519086012090516115f7950193845260208401929092526001600160a01b03166040830152606082015260800190565b604051602081830303815290604052805190602001209050919050565b600061037b6116216118fb565b8360405161190160f01b6020820152602281018390526042810182905260009060620160405160208183030381529060405280519060200120905092915050565b61166c8383611936565b611679600084848461171e565b6105615760405162461bcd60e51b81526004016104ae906121ba565b600754610100900460ff166116bc5760405162461bcd60e51b81526004016104ae9061216f565b606c6116c88382612252565b50606d6105618282612252565b6040805160208101859052908101839052606081018290524660808201523060a082015260009060c0016040516020818303038152906040528051906020012090509392505050565b60006001600160a01b0384163b1561181b57836001600160a01b031663150b7a02611747610f31565b8786866040518563ffffffff1660e01b81526004016117699493929190612311565b6020604051808303816000875af19250505080156117a4575060408051601f3d908101601f191682019092526117a19181019061234e565b60015b611801573d8080156117d2576040519150601f19603f3d011682016040523d82523d6000602084013e6117d7565b606091505b5080516000036117f95760405162461bcd60e51b81526004016104ae906121ba565b805181602001fd5b6001600160e01b031916630a85bd0160e11b149050610a71565b506001610a71565b60008072184f03e93ff9f4daa797ed6e38ed64bf6a1f0160401b83106118625772184f03e93ff9f4daa797ed6e38ed64bf6a1f0160401b830492506040015b6d04ee2d6d415b85acef8100000000831061188e576d04ee2d6d415b85acef8100000000830492506020015b662386f26fc1000083106118ac57662386f26fc10000830492506010015b6305f5e10083106118c4576305f5e100830492506008015b61271083106118d857612710830492506004015b606483106118ea576064830492506002015b600a831061037b5760010192915050565b6002546000906001600160a01b031630148015611919575060015446145b15611925575060005490565b610f3b6005546003546004546116d5565b6001600160a01b03821661198c5760405162461bcd60e51b815260206004820181905260248201527f4552433732313a206d696e7420746f20746865207a65726f206164647265737360448201526064016104ae565b6119958161151e565b156119b25760405162461bcd60e51b81526004016104ae9061236b565b6119bb8161151e565b156119d85760405162461bcd60e51b81526004016104ae9061236b565b6001600160a01b0382166000818152606f6020908152604080832080546001019055848352606e90915280822080546001600160a01b0319168417905551839291906000805160206123e6833981519152908290a45050565b6001600160e01b031981168114610f2e57600080fd5b600060208284031215611a5957600080fd5b8135610ed481611a31565b60005b83811015611a7f578181015183820152602001611a67565b50506000910152565b60008151808452611aa0816020860160208601611a64565b601f01601f19169290920160200192915050565b602081526000610ed46020830184611a88565b600060208284031215611ad957600080fd5b5035919050565b80356001600160a01b0381168114611af757600080fd5b919050565b60008060408385031215611b0f57600080fd5b611b1883611ae0565b946020939093013593505050565b60008083601f840112611b3857600080fd5b5081356001600160401b03811115611b4f57600080fd5b602083019150836020828501011115611b6757600080fd5b9250929050565b60008060008060008060a08789031215611b8757600080fd5b611b9087611ae0565b955060208701356001600160401b03811115611bab57600080fd5b611bb789828a01611b26565b9096509450506040870135925060608701359150608087013560ff81168114611bdf57600080fd5b809150509295509295509295565b600080600060608486031215611c0257600080fd5b611c0b84611ae0565b9250611c1960208501611ae0565b9150604084013590509250925092565b600060208284031215611c3b57600080fd5b610ed482611ae0565b60008083601f840112611c5657600080fd5b5081356001600160401b03811115611c6d57600080fd5b6020830191508360208260051b8501011115611b6757600080fd5b60008060008060408587031215611c9e57600080fd5b84356001600160401b0380821115611cb557600080fd5b611cc188838901611c44565b90965094506020870135915080821115611cda57600080fd5b50611ce787828801611c44565b95989497509550505050565b600080600080600060608688031215611d0b57600080fd5b611d1486611ae0565b945060208601356001600160401b0380821115611d3057600080fd5b611d3c89838a01611b26565b90965094506040880135915080821115611d5557600080fd5b50611d6288828901611b26565b969995985093965092949392505050565b60008060408385031215611d8657600080fd5b611d8f83611ae0565b915060208301358015158114611da457600080fd5b809150509250929050565b600080600060408486031215611dc457600080fd5b611dcd84611ae0565b925060208401356001600160401b03811115611de857600080fd5b611df486828701611c44565b9497909650939450505050565b634e487b7160e01b600052604160045260246000fd5b60008060008060808587031215611e2d57600080fd5b611e3685611ae0565b9350611e4460208601611ae0565b92506040850135915060608501356001600160401b0380821115611e6757600080fd5b818701915087601f830112611e7b57600080fd5b813581811115611e8d57611e8d611e01565b604051601f8201601f19908116603f01168101908382118183101715611eb557611eb5611e01565b816040528281528a6020848701011115611ece57600080fd5b82602086016020830137600060208483010152809550505050505092959194509250565b60008060408385031215611f0557600080fd5b611f0e83611ae0565b9150611f1c60208401611ae0565b90509250929050565b600181811c90821680611f3957607f821691505b602082108103611f5957634e487b7160e01b600052602260045260246000fd5b50919050565b8284823760609190911b6bffffffffffffffffffffffff19169101908152601401919050565b60008251611f97818460208701611a64565b9190910192915050565b6001600160a01b0385811682528416602082015260606040820181905281018290526000828460808401376000608084840101526080601f19601f850116830101905095945050505050565b6020808252602d908201527f4552433732313a2063616c6c6572206973206e6f7420746f6b656e206f776e6560408201526c1c881bdc88185c1c1c9bdd9959609a1b606082015260800190565b60208082526024908201527f4368696c644552433732313a204f6e6c79207072656469636174652063616e2060408201526318d85b1b60e21b606082015260800190565b602080825260189082015277115490cdcc8c4e881a5b9d985b1a59081d1bdad95b88125160421b604082015260600190565b634e487b7160e01b600052603260045260246000fd5b6020808252818101527f4368696c644552433732313a204f6e6c79206f776e65722063616e206275726e604082015260600190565b6000835161210d818460208801611a64565b835190830190612121818360208801611a64565b01949350505050565b60208082526025908201527f4552433732313a207472616e736665722066726f6d20696e636f72726563742060408201526437bbb732b960d91b606082015260800190565b6020808252602b908201527f496e697469616c697a61626c653a20636f6e7472616374206973206e6f74206960408201526a6e697469616c697a696e6760a81b606082015260800190565b60208082526032908201527f4552433732313a207472616e7366657220746f206e6f6e20455243373231526560408201527131b2b4bb32b91034b6b83632b6b2b73a32b960711b606082015260800190565b601f82111561056157600081815260208120601f850160051c810160208610156122335750805b601f850160051c820191505b81811015610cdf5782815560010161223f565b81516001600160401b0381111561226b5761226b611e01565b61227f816122798454611f25565b8461220c565b602080601f8311600181146122b4576000841561229c5750858301515b600019600386901b1c1916600185901b178555610cdf565b600085815260208120601f198616915b828110156122e3578886015182559484019460019091019084016122c4565b50858210156123015787850151600019600388901b60f8161c191681555b5050505050600190811b01905550565b6001600160a01b038581168252841660208201526040810183905260806060820181905260009061234490830184611a88565b9695505050505050565b60006020828403121561236057600080fd5b8151610ed481611a31565b6020808252601c908201527f4552433732313a20746f6b656e20616c7265616479206d696e7465640000000060408201526060019056fe4d6574615472616e73616374696f6e2875696e74323536206e6f6e63652c616464726573732066726f6d2c62797465732066756e6374696f6e5369676e617475726529ddf252ad1be2c89b69c2b068fc378daa952ba7f163c4a11628f55a4df523b3efa264697066735822122029b6cbd9d5bf0fad2c675fa799d293745f76f3afee1c153673a2caed98a4a03864736f6c63430008110033",
  "linkReferences": {},
  "deployedLinkReferences": {}
}