{
  "_format": "hh-sol-artifact-1",
  "contractName": "MockClones",
  "sourceName": "contracts/mocks/MockClones.sol",
  "abi": [
    {
      "inputs": [
        {
          "internalType": "address",
          "name": "implementation",
          "type": "address"
        },
        {
          "internalType": "bytes32",
          "name": "salt",
          "type": "bytes32"
        },
        {
          "internalType": "address",
          "name": "deployer",
          "type": "address"
        }
      ],
      "name": "predictDeterministicAddress",
      "outputs": [
        {
          "internalType": "address",
          "name": "predicted",
          "type": "address"
        }
      ],
      "stateMutability": "pure",
      "type": "function"
    }
  ],
  "bytecode": "0x608060405234801561001057600080fd5b50610144806100206000396000f3fe608060405234801561001057600080fd5b506004361061002b5760003560e01c806393a7e71114610030575b600080fd5b61009a61003e3660046100d2565b60405160388101919091526f5af43d82803e903d91602b57fd5bf3ff60248201526014810192909252733d602d80600a3d3981f3363d3d373d3d3d363d73825260588201526037600c8201206078820152605560439091012090565b6040516001600160a01b03909116815260200160405180910390f35b80356001600160a01b03811681146100cd57600080fd5b919050565b6000806000606084860312156100e757600080fd5b6100f0846100b6565b925060208401359150610105604085016100b6565b9050925092509256fea264697066735822122028c89d0df1d7bf33dba1dd0101641d51dfb0dcea9c404025439ab10ecfc300c064736f6c63430008110033",
  "linkReferences": {},
  "deployedLinkReferences": {}
}