{
  "_format": "hh-sol-artifact-1",
  "contractName": "RootERC721Predicate",
  "sourceName": "contracts/root/RootERC721Predicate.sol",
  "abi": [
    {
      "anonymous": false,
      "inputs": [
        {
          "indexed": true,
          "internalType": "address",
          "name": "rootToken",
          "type": "address"
        },
        {
          "indexed": true,
          "internalType": "address",
          "name": "childToken",
          "type": "address"
        },
        {
          "indexed": false,
          "internalType": "address",
          "name": "depositor",
          "type": "address"
        },
        {
          "indexed": true,
          "internalType": "address",
          "name": "receiver",
          "type": "address"
        },
        {
          "indexed": false,
          "internalType": "uint256",
          "name": "tokenId",
          "type": "uint256"
        }
      ],
      "name": "ERC721Deposit",
      "type": "event"
    },
    {
      "anonymous": false,
      "inputs": [
        {
          "indexed": true,
          "internalType": "address",
          "name": "rootToken",
          "type": "address"
        },
        {
          "indexed": true,
          "internalType": "address",
          "name": "childToken",
          "type": "address"
        },
        {
          "indexed": true,
          "internalType": "address",
          "name": "depositor",
          "type": "address"
        },
        {
          "indexed": false,
          "internalType": "address[]",
          "name": "receivers",
          "type": "address[]"
        },
        {
          "indexed": false,
          "internalType": "uint256[]",
          "name": "tokenIds",
          "type": "uint256[]"
        }
      ],
      "name": "ERC721DepositBatch",
      "type": "event"
    },
    {
      "anonymous": false,
      "inputs": [
        {
          "indexed": true,
          "internalType": "address",
          "name": "rootToken",
          "type": "address"
        },
        {
          "indexed": true,
          "internalType": "address",
          "name": "childToken",
          "type": "address"
        },
        {
          "indexed": false,
          "internalType": "address",
          "name": "withdrawer",
          "type": "address"
        },
        {
          "indexed": true,
          "internalType": "address",
          "name": "receiver",
          "type": "address"
        },
        {
          "indexed": false,
          "internalType": "uint256",
          "name": "tokenId",
          "type": "uint256"
        }
      ],
      "name": "ERC721Withdraw",
      "type": "event"
    },
    {
      "anonymous": false,
      "inputs": [
        {
          "indexed": true,
          "internalType": "address",
          "name": "rootToken",
          "type": "address"
        },
        {
          "indexed": true,
          "internalType": "address",
          "name": "childToken",
          "type": "address"
        },
        {
          "indexed": true,
          "internalType": "address",
          "name": "withdrawer",
          "type": "address"
        },
        {
          "indexed": false,
          "internalType": "address[]",
          "name": "receivers",
          "type": "address[]"
        },
        {
          "indexed": false,
          "internalType": "uint256[]",
          "name": "tokenIds",
          "type": "uint256[]"
        }
      ],
      "name": "ERC721WithdrawBatch",
      "type": "event"
    },
    {
      "anonymous": false,
      "inputs": [
        {
          "indexed": false,
          "internalType": "uint8",
          "name": "version",
          "type": "uint8"
        }
      ],
      "name": "Initialized",
      "type": "event"
    },
    {
      "anonymous": false,
      "inputs": [
        {
          "indexed": true,
          "internalType": "address",
          "name": "rootToken",
          "type": "address"
        },
        {
          "indexed": true,
          "internalType": "address",
          "name": "childToken",
          "type": "address"
        }
      ],
      "name": "TokenMapped",
      "type": "event"
    },
    {
      "inputs": [],
      "name": "DEPOSIT_BATCH_SIG",
      "outputs": [
        {
          "internalType": "bytes32",
          "name": "",
          "type": "bytes32"
        }
      ],
      "stateMutability": "view",
      "type": "function"
    },
    {
      "inputs": [],
      "name": "DEPOSIT_SIG",
      "outputs": [
        {
          "internalType": "bytes32",
          "name": "",
          "type": "bytes32"
        }
      ],
      "stateMutability": "view",
      "type": "function"
    },
    {
      "inputs": [],
      "name": "MAP_TOKEN_SIG",
      "outputs": [
        {
          "internalType": "bytes32",
          "name": "",
          "type": "bytes32"
        }
      ],
      "stateMutability": "view",
      "type": "function"
    },
    {
      "inputs": [],
      "name": "WITHDRAW_BATCH_SIG",
      "outputs": [
        {
          "internalType": "bytes32",
          "name": "",
          "type": "bytes32"
        }
      ],
      "stateMutability": "view",
      "type": "function"
    },
    {
      "inputs": [],
      "name": "WITHDRAW_SIG",
      "outputs": [
        {
          "internalType": "bytes32",
          "name": "",
          "type": "bytes32"
        }
      ],
      "stateMutability": "view",
      "type": "function"
    },
    {
      "inputs": [],
      "name": "childERC721Predicate",
      "outputs": [
        {
          "internalType": "address",
          "name": "",
          "type": "address"
        }
      ],
      "stateMutability": "view",
      "type": "function"
    },
    {
      "inputs": [],
      "name": "childTokenTemplate",
      "outputs": [
        {
          "internalType": "address",
          "name": "",
          "type": "address"
        }
      ],
      "stateMutability": "view",
      "type": "function"
    },
    {
      "inputs": [
        {
          "internalType": "contract IERC721Metadata",
          "name": "rootToken",
          "type": "address"
        },
        {
          "internalType": "uint256",
          "name": "tokenId",
          "type": "uint256"
        }
      ],
      "name": "deposit",
      "outputs": [],
      "stateMutability": "nonpayable",
      "type": "function"
    },
    {
      "inputs": [
        {
          "internalType": "contract IERC721Metadata",
          "name": "rootToken",
          "type": "address"
        },
        {
          "internalType": "address[]",
          "name": "receivers",
          "type": "address[]"
        },
        {
          "internalType": "uint256[]",
          "name": "tokenIds",
          "type": "uint256[]"
        }
      ],
      "name": "depositBatch",
      "outputs": [],
      "stateMutability": "nonpayable",
      "type": "function"
    },
    {
      "inputs": [
        {
          "internalType": "contract IERC721Metadata",
          "name": "rootToken",
          "type": "address"
        },
        {
          "internalType": "address",
          "name": "receiver",
          "type": "address"
        },
        {
          "internalType": "uint256",
          "name": "tokenId",
          "type": "uint256"
        }
      ],
      "name": "depositTo",
      "outputs": [],
      "stateMutability": "nonpayable",
      "type": "function"
    },
    {
      "inputs": [],
      "name": "exitHelper",
      "outputs": [
        {
          "internalType": "address",
          "name": "",
          "type": "address"
        }
      ],
      "stateMutability": "view",
      "type": "function"
    },
    {
      "inputs": [
        {
          "internalType": "address",
          "name": "newStateSender",
          "type": "address"
        },
        {
          "internalType": "address",
          "name": "newExitHelper",
          "type": "address"
        },
        {
          "internalType": "address",
          "name": "newChildERC721Predicate",
          "type": "address"
        },
        {
          "internalType": "address",
          "name": "newChildTokenTemplate",
          "type": "address"
        }
      ],
      "name": "initialize",
      "outputs": [],
      "stateMutability": "nonpayable",
      "type": "function"
    },
    {
      "inputs": [
        {
          "internalType": "contract IERC721Metadata",
          "name": "rootToken",
          "type": "address"
        }
      ],
      "name": "mapToken",
      "outputs": [
        {
          "internalType": "address",
          "name": "",
          "type": "address"
        }
      ],
      "stateMutability": "nonpayable",
      "type": "function"
    },
    {
      "inputs": [
        {
          "internalType": "address",
          "name": "",
          "type": "address"
        },
        {
          "internalType": "address",
          "name": "",
          "type": "address"
        },
        {
          "internalType": "uint256",
          "name": "",
          "type": "uint256"
        },
        {
          "internalType": "bytes",
          "name": "",
          "type": "bytes"
        }
      ],
      "name": "onERC721Received",
      "outputs": [
        {
          "internalType": "bytes4",
          "name": "",
          "type": "bytes4"
        }
      ],
      "stateMutability": "nonpayable",
      "type": "function"
    },
    {
      "inputs": [
        {
          "internalType": "uint256",
          "name": "",
          "type": "uint256"
        },
        {
          "internalType": "address",
          "name": "sender",
          "type": "address"
        },
        {
          "internalType": "bytes",
          "name": "data",
          "type": "bytes"
        }
      ],
      "name": "onL2StateReceive",
      "outputs": [],
      "stateMutability": "nonpayable",
      "type": "function"
    },
    {
      "inputs": [
        {
          "internalType": "address",
          "name": "",
          "type": "address"
        }
      ],
      "name": "rootTokenToChildToken",
      "outputs": [
        {
          "internalType": "address",
          "name": "",
          "type": "address"
        }
      ],
      "stateMutability": "view",
      "type": "function"
    },
    {
      "inputs": [],
      "name": "stateSender",
      "outputs": [
        {
          "internalType": "contract IStateSender",
          "name": "",
          "type": "address"
        }
      ],
      "stateMutability": "view",
      "type": "function"
    }
  ],
  "bytecode": "0x608060405234801561001057600080fd5b50611965806100206000396000f3fe608060405234801561001057600080fd5b50600436106100fb5760003560e01c8063cb10f94c116100a2578063f43cda8b11610071578063f43cda8b146102a1578063f4a120f7146102b4578063f6451255146102c7578063f8c8765e146102ee578063ff6f870c1461030157600080fd5b8063cb10f94c14610227578063d41f177114610240578063d7c9e3ec14610267578063f213159c1461028e57600080fd5b8063150b7a021461010057806347e7ef241461013c5780634fdca69d146101515780637efab4f51461017c57806395c7041c146101a5578063b1768065146101b8578063b68ad1e4146101ed578063c5ac2b1c14610200575b600080fd5b61011e61010e366004611127565b630a85bd0160e11b949350505050565b6040516001600160e01b031990911681526020015b60405180910390f35b61014f61014a3660046111d5565b610314565b005b600254610164906001600160a01b031681565b6040516001600160a01b039091168152602001610133565b61016461018a366004611201565b6004602052600090815260409020546001600160a01b031681565b600154610164906001600160a01b031681565b6101df7f7a8dc26796a1e50e6e190b70259f58f6a4edd5b22280ceecc82b687b8e98286981565b604051908152602001610133565b600354610164906001600160a01b031681565b6101df7faf50c8eab81226bc79eee3a10e3fe25db1a2be7241130e392b0675df839b6d1881565b600054610164906201000090046001600160a01b031681565b6101df7f87a7811f4bfedea3d341ad165680ae306b01aaeacc205d227629cf157dd9f82181565b6101df7f5fb452c5a8f2b7c7ef2984e2f1063c7ee9b80b110cdc98ccb98f6654e10b5ed281565b61014f61029c366004611225565b610323565b61014f6102af366004611266565b610333565b6101646102c2366004611201565b61050a565b6101df7f2cef46a936bdc5b7e6e8c71aa04560c41cf7d88bb26901a7e7f4936ff02accad81565b61014f6102fc3660046112ee565b610864565b61014f61030f366004611395565b610a72565b61031f823383610ada565b5050565b61032e838383610ada565b505050565b6001546001600160a01b031633146103a05760405162461bcd60e51b815260206004820152602560248201527f526f6f744552433732315072656469636174653a204f4e4c595f455849545f4860448201526422a62822a960d91b60648201526084015b60405180910390fd5b6002546001600160a01b0384811691161461040f5760405162461bcd60e51b815260206004820152602960248201527f526f6f744552433732315072656469636174653a204f4e4c595f4348494c445f60448201526850524544494341544560b81b6064820152608401610397565b7f7a8dc26796a1e50e6e190b70259f58f6a4edd5b22280ceecc82b687b8e98286961043e602060008486611417565b61044791611441565b036104665761046161045c8260208186611417565b610c60565b610504565b7f5fb452c5a8f2b7c7ef2984e2f1063c7ee9b80b110cdc98ccb98f6654e10b5ed2610495602060008486611417565b61049e91611441565b036104ad576104618282610d5e565b60405162461bcd60e51b815260206004820152602660248201527f526f6f744552433732315072656469636174653a20494e56414c49445f5349476044820152654e415455524560d01b6064820152608401610397565b50505050565b60006001600160a01b03821661056d5760405162461bcd60e51b815260206004820152602260248201527f526f6f744552433732315072656469636174653a20494e56414c49445f544f4b60448201526122a760f11b6064820152608401610397565b6001600160a01b0382811660009081526004602052604090205416156105e15760405162461bcd60e51b815260206004820152602360248201527f526f6f744552433732315072656469636174653a20414c52454144595f4d415060448201526214115160ea1b6064820152608401610397565b60035460408051606085901b6bffffffffffffffffffffffff19166020808301919091528251601481840301815260348301808552815191909201206002546001600160a01b03908116606c8501526f5af43d82803e903d91602b57fd5bf3ff60588501529094166048830152733d602d80600a3d3981f3363d3d373d3d3d363d739052608c81019290925260379082012060ac82015260556077909101206000906001600160a01b03848116600081815260046020819052604080832080546001600160a01b031916878716179055825460025482516306fdde0360e01b81529251979850620100009091048616966316f198319691909116947f2cef46a936bdc5b7e6e8c71aa04560c41cf7d88bb26901a7e7f4936ff02accad948b9491936306fdde03938184019390918290030181865afa158015610727573d6000803e3d6000fd5b505050506040513d6000823e601f3d908101601f1916820160405261074f9190810190611484565b886001600160a01b03166395d89b416040518163ffffffff1660e01b8152600401600060405180830381865afa15801561078d573d6000803e3d6000fd5b505050506040513d6000823e601f3d908101601f191682016040526107b59190810190611484565b6040516020016107c89493929190611526565b6040516020818303038152906040526040518363ffffffff1660e01b81526004016107f492919061156d565b600060405180830381600087803b15801561080e57600080fd5b505af1158015610822573d6000803e3d6000fd5b50506040516001600160a01b038085169350861691507f85920d35e6c72f6b2affffa04298b0cecfeba86e4a9f407df661f1cb8ab5e61790600090a392915050565b600054610100900460ff16158080156108845750600054600160ff909116105b8061089e5750303b15801561089e575060005460ff166001145b6109015760405162461bcd60e51b815260206004820152602e60248201527f496e697469616c697a61626c653a20636f6e747261637420697320616c72656160448201526d191e481a5b9a5d1a585b1a5e995960921b6064820152608401610397565b6000805460ff191660011790558015610924576000805461ff0019166101001790555b6001600160a01b0385161580159061094457506001600160a01b03841615155b801561095857506001600160a01b03831615155b801561096c57506001600160a01b03821615155b6109c85760405162461bcd60e51b815260206004820152602760248201527f526f6f744552433732315072656469636174653a204241445f494e495449414c60448201526624ad20aa24a7a760c91b6064820152608401610397565b6000805462010000600160b01b031916620100006001600160a01b038881169190910291909117909155600180546001600160a01b031990811687841617909155600280548216868416179055600380549091169184169190911790558015610a6b576000805461ff0019169055604051600181527f7f26b83ff96e1f2b6a682f133852f6798a09c465da95921460cefb38474024989060200160405180910390a15b5050505050565b828114610acd5760405162461bcd60e51b815260206004820152602360248201527f526f6f744552433732315072656469636174653a20494e56414c49445f4c454e60448201526208ea8960eb1b6064820152608401610397565b610a6b8585858585610e9f565b6000610ae58461105b565b604051632142170760e11b81529091506001600160a01b038516906342842e0e90610b1890339030908790600401611599565b600060405180830381600087803b158015610b3257600080fd5b505af1158015610b46573d6000803e3d6000fd5b5050600054600254604080517f87a7811f4bfedea3d341ad165680ae306b01aaeacc205d227629cf157dd9f82160208201526001600160a01b038a811682840152336060830152898116608083015260a08083018a90528351808403909101815260c08301938490526316f1983160e01b90935262010000909404841695506316f198319450610bdc939092169160c40161156d565b600060405180830381600087803b158015610bf657600080fd5b505af1158015610c0a573d6000803e3d6000fd5b505060408051338152602081018690526001600160a01b03808816945085811693508816917f40e242710be14b7d61d3b93e9d56b40df89cc4dbad8bb88da38c8e0c23809ba7910160405180910390a450505050565b6000808080610c71858701876115bd565b6001600160a01b0380851660009081526004602052604090205494985092965090945092501680610ca457610ca461160e565b604051632142170760e11b81526001600160a01b038616906342842e0e90610cd490309087908790600401611599565b600060405180830381600087803b158015610cee57600080fd5b505af1158015610d02573d6000803e3d6000fd5b5050604080516001600160a01b03888116825260208201879052808816945085811693508916917f8194f168e6e9e449d05a46936e071a710c0f22634eaadeb5b85a86540123931991015b60405180910390a450505050505050565b6000808080610d6f858701876116ad565b6001600160a01b03808516600090815260046020526040902054949950929750909550935016905080610da457610da461160e565b60005b8251811015610e4f57856001600160a01b03166342842e0e30868481518110610dd257610dd261179f565b6020026020010151868581518110610dec57610dec61179f565b60200260200101516040518463ffffffff1660e01b8152600401610e1293929190611599565b600060405180830381600087803b158015610e2c57600080fd5b505af1158015610e40573d6000803e3d6000fd5b50505050806001019050610da7565b50836001600160a01b0316816001600160a01b0316866001600160a01b03167f1b7b9713fdef5dfadf92f6d6e998eb1fc4763cee62a194a095d76349f7dce20c8686604051610d4d9291906117b5565b6000610eaa8661105b565b905060005b82811015610f3c57866001600160a01b03166342842e0e3330878786818110610eda57610eda61179f565b905060200201356040518463ffffffff1660e01b8152600401610eff93929190611599565b600060405180830381600087803b158015610f1957600080fd5b505af1158015610f2d573d6000803e3d6000fd5b50505050806001019050610eaf565b506000546002546040516001600160a01b03620100009093048316926316f19831921690610f9a907faf50c8eab81226bc79eee3a10e3fe25db1a2be7241130e392b0675df839b6d18908b9033908c908c908c908c906020016118b4565b6040516020818303038152906040526040518363ffffffff1660e01b8152600401610fc692919061156d565b600060405180830381600087803b158015610fe057600080fd5b505af1158015610ff4573d6000803e3d6000fd5b50505050336001600160a01b0316816001600160a01b0316876001600160a01b03167f02c575a943105cda454293b7ac636c87c94ff1bfcfac968aa5423e6b9b312ee98888888860405161104b9493929190611908565b60405180910390a4505050505050565b6001600160a01b038082166000908152600460205260409020541680611087576110848261050a565b90505b6001600160a01b03811661109d5761109d61160e565b919050565b6001600160a01b03811681146110b757600080fd5b50565b634e487b7160e01b600052604160045260246000fd5b604051601f8201601f191681016001600160401b03811182821017156110f8576110f86110ba565b604052919050565b60006001600160401b03821115611119576111196110ba565b50601f01601f191660200190565b6000806000806080858703121561113d57600080fd5b8435611148816110a2565b93506020850135611158816110a2565b92506040850135915060608501356001600160401b0381111561117a57600080fd5b8501601f8101871361118b57600080fd5b803561119e61119982611100565b6110d0565b8181528860208385010111156111b357600080fd5b8160208401602083013760006020838301015280935050505092959194509250565b600080604083850312156111e857600080fd5b82356111f3816110a2565b946020939093013593505050565b60006020828403121561121357600080fd5b813561121e816110a2565b9392505050565b60008060006060848603121561123a57600080fd5b8335611245816110a2565b92506020840135611255816110a2565b929592945050506040919091013590565b6000806000806060858703121561127c57600080fd5b84359350602085013561128e816110a2565b925060408501356001600160401b03808211156112aa57600080fd5b818701915087601f8301126112be57600080fd5b8135818111156112cd57600080fd5b8860208285010111156112df57600080fd5b95989497505060200194505050565b6000806000806080858703121561130457600080fd5b843561130f816110a2565b9350602085013561131f816110a2565b9250604085013561132f816110a2565b9150606085013561133f816110a2565b939692955090935050565b60008083601f84011261135c57600080fd5b5081356001600160401b0381111561137357600080fd5b6020830191508360208260051b850101111561138e57600080fd5b9250929050565b6000806000806000606086880312156113ad57600080fd5b85356113b8816110a2565b945060208601356001600160401b03808211156113d457600080fd5b6113e089838a0161134a565b909650945060408801359150808211156113f957600080fd5b506114068882890161134a565b969995985093965092949392505050565b6000808585111561142757600080fd5b8386111561143457600080fd5b5050820193919092039150565b8035602083101561145a57600019602084900360031b1b165b92915050565b60005b8381101561147b578181015183820152602001611463565b50506000910152565b60006020828403121561149657600080fd5b81516001600160401b038111156114ac57600080fd5b8201601f810184136114bd57600080fd5b80516114cb61119982611100565b8181528560208385010111156114e057600080fd5b6114f1826020830160208601611460565b95945050505050565b60008151808452611512816020860160208601611460565b601f01601f19169290920160200192915050565b8481526001600160a01b0384166020820152608060408201819052600090611550908301856114fa565b828103606084015261156281856114fa565b979650505050505050565b6001600160a01b0383168152604060208201819052600090611591908301846114fa565b949350505050565b6001600160a01b039384168152919092166020820152604081019190915260600190565b600080600080608085870312156115d357600080fd5b84356115de816110a2565b935060208501356115ee816110a2565b925060408501356115fe816110a2565b9396929550929360600135925050565b634e487b7160e01b600052600160045260246000fd5b60006001600160401b0382111561163d5761163d6110ba565b5060051b60200190565b600082601f83011261165857600080fd5b8135602061166861119983611624565b82815260059290921b8401810191818101908684111561168757600080fd5b8286015b848110156116a2578035835291830191830161168b565b509695505050505050565b600080600080600060a086880312156116c557600080fd5b853594506020808701356116d8816110a2565b945060408701356116e8816110a2565b935060608701356001600160401b038082111561170457600080fd5b818901915089601f83011261171857600080fd5b813561172661119982611624565b81815260059190911b8301840190848101908c83111561174557600080fd5b938501935b8285101561176c57843561175d816110a2565b8252938501939085019061174a565b96505050608089013592508083111561178457600080fd5b505061179288828901611647565b9150509295509295909350565b634e487b7160e01b600052603260045260246000fd5b604080825283519082018190526000906020906060840190828701845b828110156117f75781516001600160a01b0316845292840192908401906001016117d2565b5050508381038285015284518082528583019183019060005b8181101561182c57835183529284019291840191600101611810565b5090979650505050505050565b8183526000602080850194508260005b8581101561187757813561185c816110a2565b6001600160a01b031687529582019590820190600101611849565b509495945050505050565b81835260006001600160fb1b0383111561189b57600080fd5b8260051b80836020870137939093016020019392505050565b8781526001600160a01b0387811660208301528616604082015260a0606082018190526000906118e79083018688611839565b82810360808401526118fa818587611882565b9a9950505050505050505050565b60408152600061191c604083018688611839565b828103602084015261156281858761188256fea2646970667358221220e871571367acbefc18b78d7ab5c1d255c2c71ed55187f997f8c6e1261b3b089564736f6c63430008110033",
  "linkReferences": {},
  "deployedLinkReferences": {}
}