{
  "_format": "hh-sol-artifact-1",
  "contractName": "CheckpointManager",
  "sourceName": "contracts/root/CheckpointManager.sol",
  "abi": [
    {
      "anonymous": false,
      "inputs": [
        {
          "indexed": false,
          "internalType": "uint8",
          "name": "version",
          "type": "uint8"
        }
      ],
      "name": "Initialized",
      "type": "event"
    },
    {
      "inputs": [],
      "name": "DOMAIN",
      "outputs": [
        {
          "internalType": "bytes32",
          "name": "",
          "type": "bytes32"
        }
      ],
      "stateMutability": "view",
      "type": "function"
    },
    {
      "inputs": [],
      "name": "bls",
      "outputs": [
        {
          "internalType": "contract IBLS",
          "name": "",
          "type": "address"
        }
      ],
      "stateMutability": "view",
      "type": "function"
    },
    {
      "inputs": [],
      "name": "bn256G2",
      "outputs": [
        {
          "internalType": "contract IBN256G2",
          "name": "",
          "type": "address"
        }
      ],
      "stateMutability": "view",
      "type": "function"
    },
    {
      "inputs": [],
      "name": "chainId",
      "outputs": [
        {
          "internalType": "uint256",
          "name": "",
          "type": "uint256"
        }
      ],
      "stateMutability": "view",
      "type": "function"
    },
    {
      "inputs": [
        {
          "internalType": "uint256",
          "name": "",
          "type": "uint256"
        }
      ],
      "name": "checkpointBlockNumbers",
      "outputs": [
        {
          "internalType": "uint256",
          "name": "",
          "type": "uint256"
        }
      ],
      "stateMutability": "view",
      "type": "function"
    },
    {
      "inputs": [
        {
          "internalType": "uint256",
          "name": "",
          "type": "uint256"
        }
      ],
      "name": "checkpoints",
      "outputs": [
        {
          "internalType": "uint256",
          "name": "epoch",
          "type": "uint256"
        },
        {
          "internalType": "uint256",
          "name": "blockNumber",
          "type": "uint256"
        },
        {
          "internalType": "bytes32",
          "name": "eventRoot",
          "type": "bytes32"
        }
      ],
      "stateMutability": "view",
      "type": "function"
    },
    {
      "inputs": [],
      "name": "currentCheckpointBlockNumber",
      "outputs": [
        {
          "internalType": "uint256",
          "name": "",
          "type": "uint256"
        }
      ],
      "stateMutability": "view",
      "type": "function"
    },
    {
      "inputs": [],
      "name": "currentEpoch",
      "outputs": [
        {
          "internalType": "uint256",
          "name": "",
          "type": "uint256"
        }
      ],
      "stateMutability": "view",
      "type": "function"
    },
    {
      "inputs": [
        {
          "internalType": "uint256",
          "name": "",
          "type": "uint256"
        }
      ],
      "name": "currentValidatorSet",
      "outputs": [
        {
          "internalType": "address",
          "name": "_address",
          "type": "address"
        },
        {
          "internalType": "uint256",
          "name": "votingPower",
          "type": "uint256"
        }
      ],
      "stateMutability": "view",
      "type": "function"
    },
    {
      "inputs": [],
      "name": "currentValidatorSetHash",
      "outputs": [
        {
          "internalType": "bytes32",
          "name": "",
          "type": "bytes32"
        }
      ],
      "stateMutability": "view",
      "type": "function"
    },
    {
      "inputs": [],
      "name": "currentValidatorSetLength",
      "outputs": [
        {
          "internalType": "uint256",
          "name": "",
          "type": "uint256"
        }
      ],
      "stateMutability": "view",
      "type": "function"
    },
    {
      "inputs": [
        {
          "internalType": "uint256",
          "name": "blockNumber",
          "type": "uint256"
        }
      ],
      "name": "getCheckpointBlock",
      "outputs": [
        {
          "internalType": "bool",
          "name": "",
          "type": "bool"
        },
        {
          "internalType": "uint256",
          "name": "",
          "type": "uint256"
        }
      ],
      "stateMutability": "view",
      "type": "function"
    },
    {
      "inputs": [
        {
          "internalType": "uint256",
          "name": "blockNumber",
          "type": "uint256"
        },
        {
          "internalType": "bytes32",
          "name": "leaf",
          "type": "bytes32"
        },
        {
          "internalType": "uint256",
          "name": "leafIndex",
          "type": "uint256"
        },
        {
          "internalType": "bytes32[]",
          "name": "proof",
          "type": "bytes32[]"
        }
      ],
      "name": "getEventMembershipByBlockNumber",
      "outputs": [
        {
          "internalType": "bool",
          "name": "",
          "type": "bool"
        }
      ],
      "stateMutability": "view",
      "type": "function"
    },
    {
      "inputs": [
        {
          "internalType": "uint256",
          "name": "epoch",
          "type": "uint256"
        },
        {
          "internalType": "bytes32",
          "name": "leaf",
          "type": "bytes32"
        },
        {
          "internalType": "uint256",
          "name": "leafIndex",
          "type": "uint256"
        },
        {
          "internalType": "bytes32[]",
          "name": "proof",
          "type": "bytes32[]"
        }
      ],
      "name": "getEventMembershipByEpoch",
      "outputs": [
        {
          "internalType": "bool",
          "name": "",
          "type": "bool"
        }
      ],
      "stateMutability": "view",
      "type": "function"
    },
    {
      "inputs": [
        {
          "internalType": "uint256",
          "name": "blockNumber",
          "type": "uint256"
        }
      ],
      "name": "getEventRootByBlock",
      "outputs": [
        {
          "internalType": "bytes32",
          "name": "",
          "type": "bytes32"
        }
      ],
      "stateMutability": "view",
      "type": "function"
    },
    {
      "inputs": [
        {
          "internalType": "contract IBLS",
          "name": "newBls",
          "type": "address"
        },
        {
          "internalType": "contract IBN256G2",
          "name": "newBn256G2",
          "type": "address"
        },
        {
          "internalType": "uint256",
          "name": "chainId_",
          "type": "uint256"
        },
        {
          "components": [
            {
              "internalType": "address",
              "name": "_address",
              "type": "address"
            },
            {
              "internalType": "uint256[4]",
              "name": "blsKey",
              "type": "uint256[4]"
            },
            {
              "internalType": "uint256",
              "name": "votingPower",
              "type": "uint256"
            }
          ],
          "internalType": "struct ICheckpointManager.Validator[]",
          "name": "newValidatorSet",
          "type": "tuple[]"
        }
      ],
      "name": "initialize",
      "outputs": [],
      "stateMutability": "nonpayable",
      "type": "function"
    },
    {
      "inputs": [
        {
          "components": [
            {
              "internalType": "bytes32",
              "name": "blockHash",
              "type": "bytes32"
            },
            {
              "internalType": "uint256",
              "name": "blockRound",
              "type": "uint256"
            },
            {
              "internalType": "bytes32",
              "name": "currentValidatorSetHash",
              "type": "bytes32"
            }
          ],
          "internalType": "struct ICheckpointManager.CheckpointMetadata",
          "name": "checkpointMetadata",
          "type": "tuple"
        },
        {
          "components": [
            {
              "internalType": "uint256",
              "name": "epoch",
              "type": "uint256"
            },
            {
              "internalType": "uint256",
              "name": "blockNumber",
              "type": "uint256"
            },
            {
              "internalType": "bytes32",
              "name": "eventRoot",
              "type": "bytes32"
            }
          ],
          "internalType": "struct ICheckpointManager.Checkpoint",
          "name": "checkpoint",
          "type": "tuple"
        },
        {
          "internalType": "uint256[2]",
          "name": "signature",
          "type": "uint256[2]"
        },
        {
          "components": [
            {
              "internalType": "address",
              "name": "_address",
              "type": "address"
            },
            {
              "internalType": "uint256[4]",
              "name": "blsKey",
              "type": "uint256[4]"
            },
            {
              "internalType": "uint256",
              "name": "votingPower",
              "type": "uint256"
            }
          ],
          "internalType": "struct ICheckpointManager.Validator[]",
          "name": "newValidatorSet",
          "type": "tuple[]"
        },
        {
          "internalType": "bytes",
          "name": "bitmap",
          "type": "bytes"
        }
      ],
      "name": "submit",
      "outputs": [],
      "stateMutability": "nonpayable",
      "type": "function"
    },
    {
      "inputs": [],
      "name": "totalVotingPower",
      "outputs": [
        {
          "internalType": "uint256",
          "name": "",
          "type": "uint256"
        }
      ],
      "stateMutability": "view",
      "type": "function"
    }
  ],
  "bytecode": "0x608060405234801561001057600080fd5b506116f2806100206000396000f3fe608060405234801561001057600080fd5b50600436106101165760003560e01c806376671808116100a2578063babd4ee411610071578063babd4ee4146102c8578063d4c8e3e8146102db578063e416d677146102ee578063e9193d2b146102f7578063f896f1a51461030a57600080fd5b8063766718081461024157806395b0b0271461024a5780639a8a059214610275578063b8a242521461027e57600080fd5b806361a02208116100e957806361a022081461019b578063671b3793146101be5780636969a25c146101c7578063729e7c6e1461021957806373cb1a111461022c57600080fd5b80631d1d4f261461011b57806322fd1818146101375780633569ed931461016157806352a9674b14610174575b600080fd5b61012460035481565b6040519081526020015b60405180910390f35b61014a610145366004610fdb565b610313565b60408051921515835260208301919091520161012e565b61012461016f366004610fdb565b610364565b6101247fbee7fa562a38908559e4a988e62d6c08b84ef05f2ebd5d2bb2b855dc19d19fe281565b6101ae6101a9366004610ff4565b610398565b604051901515815260200161012e565b61012460055481565b6101fa6101d5366004610fdb565b600960205260009081526040902080546005909101546001600160a01b039091169082565b604080516001600160a01b03909316835260208301919091520161012e565b6101ae610227366004610ff4565b610410565b61023f61023a3660046110e8565b610469565b005b61012460025481565b60065461025d906001600160a01b031681565b6040516001600160a01b03909116815260200161012e565b61012460015481565b6102ad61028c366004610fdb565b60086020526000908152604090208054600182015460029092015490919083565b6040805193845260208401929092529082015260600161012e565b61023f6102d6366004611173565b6105bb565b60075461025d906001600160a01b031681565b61012460045481565b610124610305366004610fdb565b610820565b610124600b5481565b60008080610322600a85610841565b600a54909150810361033a5750600093849350915050565b6001600a828154811061034f5761034f61124c565b90600052602060002001549250925050915091565b6000600881610374600a85610841565b61037f906001611278565b8152602001908152602001600020600201549050919050565b6000806103a487610364565b9050806103f85760405162461bcd60e51b815260206004820152601e60248201527f4e4f5f4556454e545f524f4f545f464f525f424c4f434b5f4e554d424552000060448201526064015b60405180910390fd5b61040586868387876108f0565b979650505050505050565b600085815260086020526040812060020154806103f85760405162461bcd60e51b815260206004820152601760248201527609c9ebe8aac8a9ca8bea49e9ea8be8c9ea4be8aa09e869604b1b60448201526064016103ef565b600054610100900460ff16158080156104895750600054600160ff909116105b806104a35750303b1580156104a3575060005460ff166001145b6105065760405162461bcd60e51b815260206004820152602e60248201527f496e697469616c697a61626c653a20636f6e747261637420697320616c72656160448201526d191e481a5b9a5d1a585b1a5e995960921b60648201526084016103ef565b6000805460ff191660011790558015610529576000805461ff0019166101001790555b6001849055600680546001600160a01b038089166001600160a01b0319928316179092556007805492881692909116919091179055600382905561056d8383610a45565b80156105b3576000805461ff0019169055604051600181527f7f26b83ff96e1f2b6a682f133852f6798a09c465da95921460cefb38474024989060200160405180910390a15b505050505050565b8660400135600b54146106105760405162461bcd60e51b815260206004820152601a60248201527f494e56414c49445f56414c494441544f525f5345545f4841534800000000000060448201526064016103ef565b6000600154876020013589600001358a602001358a600001358b604001358d604001358b8b60405160200161064692919061128b565b604051602081830303815290604052805190602001206040516020016106739897969594939291906112ee565b60408051601f198184030181528282528051602091820120908301520160408051601f198184030181529082905260065463a850a90960e01b835290925061073f916001600160a01b039091169063a850a909906106f7907fbee7fa562a38908559e4a988e62d6c08b84ef05f2ebd5d2bb2b855dc19d19fe2908690600401611324565b6040805180830381865afa158015610713573d6000803e3d6000fd5b505050506040513d601f19601f82011682018060405250810190610737919061137a565b878585610b4b565b60025461074c8189610e55565b8735600081815260086020908152604091829020838155908b01356001820155908a01356002909101558110156107cf57600a8054600181018255600091825260208a01357fc65a7bb8d6351c1cf70c95a316cc6a92839c986682d98bc35f958f4883f9d2a890910155600280549091906107c690611408565b90915550610803565b600a805460208a013591906107e690600190611421565b815481106107f6576107f661124c565b6000918252602090912001555b60208801356004556108158686610a45565b505050505050505050565b600a818154811061083057600080fd5b600091825260209091200154905081565b81546000908103610854575060006108ea565b82546000905b808210156108a157600061086e8383610f32565b6000878152602090209091508590820154111561088d5780915061089b565b610898816001611278565b92505b5061085a565b6000821180156108cd5750836108ca866108bc600186611421565b600091825260209091200190565b54145b156108e6576108dd600183611421565b925050506108ea565b5090505b92915050565b6000816108fe816002611518565b86106109415760405162461bcd60e51b81526020600482015260126024820152710929cac82989288be988a828cbe929c888ab60731b60448201526064016103ef565b8661097d5760405162461bcd60e51b815260206004820152600c60248201526b24a72b20a624a22fa622a0a360a11b60448201526064016103ef565b8660005b82811015610a3757600086868381811061099d5761099d61124c565b9050602002013590506002896109b3919061153a565b6000036109eb576040805160208101859052908101829052606001604051602081830303815290604052805190602001209250610a18565b60408051602081018390529081018490526060016040516020818303038152906040528051906020012092505b610a2360028a61154e565b98505080610a3090611408565b9050610981565b509094149695505050505050565b60038190556040518190610a5f908490839060200161128b565b60408051601f198184030181529190528051602090910120600b556000805b82811015610b42576000858583818110610a9a57610a9a61124c565b905060c0020160a00135905060008111610aea5760405162461bcd60e51b8152602060048201526011602482015270564f54494e475f504f5745525f5a45524f60781b60448201526064016103ef565b610af48184611278565b9250858583818110610b0857610b0861124c565b905060c00201600960008481526020019081526020016000208181610b2d9190611579565b9050505080610b3b90611408565b9050610a7e565b50600555505050565b600354610b56610fbd565b6000805b83811015610cda57610b6d868683610f54565b15610cd25781600003610bc1576000818152600960205260409081902081516080810190925260010160048282826020028201915b815481526020019060010190808311610ba25750505050509250610cb3565b60008181526009602052604080822081516080810190925260010160048282826020028201915b815481526020019060010190808311610be857505060075488516020808b01516040808d01516060808f01518b51958c0151848d0151928d01519451630cbe96a560e41b81529c9d506001600160a01b039098169b63cbe96a509b50610c5f9a5096985093969195939493919290916004016112ee565b608060405180830381865afa158015610c7c573d6000803e3d6000fd5b505050506040513d601f19601f82011682018060405250810190610ca091906115d8565b6060880152604087015260208601528452505b600081815260096020526040902060050154610ccf9083611278565b91505b600101610b5a565b5080600003610d1d5760405162461bcd60e51b815260206004820152600f60248201526e4249544d41505f49535f454d50545960881b60448201526064016103ef565b60036005546002610d2e9190611562565b610d38919061154e565b8111610d825760405162461bcd60e51b815260206004820152601960248201527824a729aaa32324a1a4a2a72a2fab27aa24a723afa827aba2a960391b60448201526064016103ef565b60065460405163ebbdac9160e01b815260009182916001600160a01b039091169063ebbdac9190610dbb908b9088908e9060040161160e565b6040805180830381865afa158015610dd7573d6000803e3d6000fd5b505050506040513d601f19601f82011682018060405250810190610dfb9190611689565b91509150818015610e095750805b6108155760405162461bcd60e51b815260206004820152601d60248201527f5349474e41545552455f564552494649434154494f4e5f4641494c454400000060448201526064016103ef565b600082815260086020908152604091829020825160608101845281548082526001830154938201939093526002909101549281019290925282351480610ea757508051610ea3906001611278565b8235145b610ee35760405162461bcd60e51b815260206004820152600d60248201526c0929cac82989288be8aa09e869609b1b60448201526064016103ef565b8060200151826020013511610f2d5760405162461bcd60e51b815260206004820152601060248201526f115354151657d0d21150d2d413d2539560821b60448201526064016103ef565b505050565b6000610f41600284841861154e565b610f4d90848416611278565b9392505050565b600080610f6260088461154e565b90506000610f7160088561153a565b9050848210610f8557600092505050610f4d565b6000600160ff83161b878785818110610fa057610fa061124c565b9050013560f81c60f81b60f81c60ff161611925050509392505050565b60405180608001604052806004906020820280368337509192915050565b600060208284031215610fed57600080fd5b5035919050565b60008060008060006080868803121561100c57600080fd5b853594506020860135935060408601359250606086013567ffffffffffffffff8082111561103957600080fd5b818801915088601f83011261104d57600080fd5b81358181111561105c57600080fd5b8960208260051b850101111561107157600080fd5b9699959850939650602001949392505050565b6001600160a01b038116811461109957600080fd5b50565b60008083601f8401126110ae57600080fd5b50813567ffffffffffffffff8111156110c657600080fd5b60208301915083602060c0830285010111156110e157600080fd5b9250929050565b60008060008060006080868803121561110057600080fd5b853561110b81611084565b9450602086013561111b81611084565b935060408601359250606086013567ffffffffffffffff81111561113e57600080fd5b61114a8882890161109c565b969995985093965092949392505050565b60006060828403121561116d57600080fd5b50919050565b6000806000806000806000610140888a03121561118f57600080fd5b611199898961115b565b96506111a88960608a0161115b565b95506101008801898111156111bc57600080fd5b60c0890195503567ffffffffffffffff808211156111d957600080fd5b6111e58b838c0161109c565b90965094506101208a01359150808211156111ff57600080fd5b818a0191508a601f83011261121357600080fd5b81358181111561122257600080fd5b8b602082850101111561123457600080fd5b60208301945080935050505092959891949750929550565b634e487b7160e01b600052603260045260246000fd5b634e487b7160e01b600052601160045260246000fd5b808201808211156108ea576108ea611262565b60208082528181018390526000908460408401835b868110156112e35782356112b381611084565b6001600160a01b0316825260808385018584013760a0838101359083015260c092830192909101906001016112a0565b509695505050505050565b978852602088019690965260408701949094526060860192909252608085015260a084015260c083015260e08201526101000190565b82815260006020604081840152835180604085015260005b818110156113585785810183015185820160600152820161133c565b506000606082860101526060601f19601f830116850101925050509392505050565b60006040828403121561138c57600080fd5b82601f83011261139b57600080fd5b6040516040810181811067ffffffffffffffff821117156113cc57634e487b7160e01b600052604160045260246000fd5b80604052508060408401858111156113e357600080fd5b845b818110156113fd5780518352602092830192016113e5565b509195945050505050565b60006001820161141a5761141a611262565b5060010190565b818103818111156108ea576108ea611262565b600181815b8085111561146f57816000190482111561145557611455611262565b8085161561146257918102915b93841c9390800290611439565b509250929050565b600082611486575060016108ea565b81611493575060006108ea565b81600181146114a957600281146114b3576114cf565b60019150506108ea565b60ff8411156114c4576114c4611262565b50506001821b6108ea565b5060208310610133831016604e8410600b84101617156114f2575081810a6108ea565b6114fc8383611434565b806000190482111561151057611510611262565b029392505050565b6000610f4d8383611477565b634e487b7160e01b600052601260045260246000fd5b60008261154957611549611524565b500690565b60008261155d5761155d611524565b500490565b80820281158282048414176108ea576108ea611262565b813561158481611084565b81546001600160a01b0319166001600160a01b0391909116178155602082810160005b60048110156115c7578135600182860181019190915591830191016115a7565b50505060a082013560058201555050565b600080600080608085870312156115ee57600080fd5b505082516020840151604085015160609095015191969095509092509050565b61010081016040858337604082018460005b600481101561163f578151835260209283019290910190600101611620565b50505060c082018360005b600281101561166957815183526020928301929091019060010161164a565b505050949350505050565b8051801515811461168457600080fd5b919050565b6000806040838503121561169c57600080fd5b6116a583611674565b91506116b360208401611674565b9050925092905056fea2646970667358221220a7bbc925b936828d67df832f2932e0f475f5fa7058472853cfff77d2f8eded9464736f6c63430008110033",
  "linkReferences": {},
  "deployedLinkReferences": {}
}