{
  "_format": "hh-sol-artifact-1",
  "contractName": "MockNativeERC20Transfer",
  "sourceName": "contracts/mocks/MockNativeERC20Transfer.sol",
  "abi": [
    {
      "inputs": [
        {
          "internalType": "address",
          "name": "token",
          "type": "address"
        },
        {
          "internalType": "address",
          "name": "receiver",
          "type": "address"
        },
        {
          "internalType": "uint256",
          "name": "amount",
          "type": "uint256"
        }
      ],
      "name": "transferFrom",
      "outputs": [],
      "stateMutability": "nonpayable",
      "type": "function"
    }
  ],
  "bytecode": "0x608060405234801561001057600080fd5b506101bc806100206000396000f3fe608060405234801561001057600080fd5b506004361061002b5760003560e01c806323b872dd14610030575b600080fd5b61004361003e366004610121565b610045565b005b6040516323b872dd60e01b81523360048201526001600160a01b038381166024830152604482018390528416906323b872dd906064016020604051808303816000875af115801561009a573d6000803e3d6000fd5b505050506040513d601f19601f820116820180604052508101906100be919061015d565b6101005760405162461bcd60e51b815260206004820152600f60248201526e1514905394d1915497d19052531151608a1b604482015260640160405180910390fd5b505050565b80356001600160a01b038116811461011c57600080fd5b919050565b60008060006060848603121561013657600080fd5b61013f84610105565b925061014d60208501610105565b9150604084013590509250925092565b60006020828403121561016f57600080fd5b8151801515811461017f57600080fd5b939250505056fea264697066735822122000c0dba04a85145a10de019e3d618634aca862487743407ffc6b270c0b03836c64736f6c63430008110033",
  "linkReferences": {},
  "deployedLinkReferences": {}
}