{
  "_format": "hh-sol-artifact-1",
  "contractName": "EIP712MetaTransaction",
  "sourceName": "contracts/libs/EIP712MetaTransaction.sol",
  "abi": [
    {
      "anonymous": false,
      "inputs": [
        {
          "indexed": false,
          "internalType": "address",
          "name": "userAddress",
          "type": "address"
        },
        {
          "indexed": false,
          "internalType": "address",
          "name": "relayerAddress",
          "type": "address"
        },
        {
          "indexed": false,
          "internalType": "bytes",
          "name": "functionSignature",
          "type": "bytes"
        }
      ],
      "name": "MetaTransactionExecuted",
      "type": "event"
    },
    {
      "inputs": [
        {
          "internalType": "address",
          "name": "userAddress",
          "type": "address"
        },
        {
          "internalType": "bytes",
          "name": "functionSignature",
          "type": "bytes"
        },
        {
          "internalType": "bytes32",
          "name": "sigR",
          "type": "bytes32"
        },
        {
          "internalType": "bytes32",
          "name": "sigS",
          "type": "bytes32"
        },
        {
          "internalType": "uint8",
          "name": "sigV",
          "type": "uint8"
        }
      ],
      "name": "executeMetaTransaction",
      "outputs": [
        {
          "internalType": "bytes",
          "name": "",
          "type": "bytes"
        }
      ],
      "stateMutability": "nonpayable",
      "type": "function"
    },
    {
      "inputs": [
        {
          "internalType": "address",
          "name": "user",
          "type": "address"
        }
      ],
      "name": "getNonce",
      "outputs": [
        {
          "internalType": "uint256",
          "name": "nonce",
          "type": "uint256"
        }
      ],
      "stateMutability": "view",
      "type": "function"
    }
  ],
  "bytecode": "0x608060405234801561001057600080fd5b50610816806100206000396000f3fe608060405234801561001057600080fd5b50600436106100365760003560e01c80630c53c51c1461003b5780632d0335ab14610064575b600080fd5b61004e6100493660046105e6565b61009b565b60405161005b91906106ba565b60405180910390f35b61008d6100723660046106ed565b6001600160a01b031660009081526006602052604090205490565b60405190815260200161005b565b606060006100de87878080601f01602080910402602001604051908101604052809392919081815260200183838082843760009201919091525061037e92505050565b90506001600160e01b03196000358116908216036101695760405162461bcd60e51b815260206004820152603d60248201527f66756e6374696f6e5369676e61747572652063616e206e6f74206265206f662060448201527f657865637574654d6574615472616e73616374696f6e206d6574686f6400000060648201526084015b60405180910390fd5b604080516060810182526001600160a01b038a16600081815260066020908152848220548452808401929092528351601f8b0183900483028101830185528a815290938301918b908b9081908401838280828437600092019190915250505091525090506101da8982888888610399565b6102305760405162461bcd60e51b815260206004820152602160248201527f5369676e657220616e64207369676e617475726520646f206e6f74206d6174636044820152600d60fb1b6064820152608401610160565b600660008a6001600160a01b03166001600160a01b031681526020019081526020016000206000815460010191905081905550600080306001600160a01b03168a8a8d6040516020016102859392919061070f565b60408051601f198184030181529082905261029f91610735565b6000604051808303816000865af19150503d80600081146102dc576040519150601f19603f3d011682016040523d82523d6000602084013e6102e1565b606091505b5091509150816103335760405162461bcd60e51b815260206004820152601c60248201527f46756e6374696f6e2063616c6c206e6f74207375636365737366756c000000006044820152606401610160565b7f5845892132946850460bff5a0083f71031bc5bf9aadcd40f1de79423eac9b10b8b338c8c6040516103689493929190610751565b60405180910390a19a9950505050505050505050565b6000815160000361039157506000919050565b506020015190565b60008060016103af6103aa88610475565b6104f2565b6040805160008152602081018083529290925260ff861690820152606081018790526080810186905260a0016020604051602081039080840390855afa1580156103fd573d6000803e3d6000fd5b5050604051601f1901519150506001600160a01b0381166104545760405162461bcd60e51b8152602060048201526011602482015270496e76616c6964207369676e617475726560781b6044820152606401610160565b866001600160a01b0316816001600160a01b03161491505095945050505050565b600060405180608001604052806043815260200161079e60439139805160209182012083518483015160408087015180519086012090516104d5950193845260208401929092526001600160a01b03166040830152606082015260800190565b604051602081830303815290604052805190602001209050919050565b60006105406104ff610546565b8360405161190160f01b6020820152602281018390526042810182905260009060620160405160208183030381529060405280519060200120905092915050565b92915050565b6002546000906001600160a01b031630148015610564575060015446145b15610570575060005490565b6105c56005546003546004546040805160208101859052908101839052606081018290524660808201523060a082015260009060c0016040516020818303038152906040528051906020012090509392505050565b905090565b80356001600160a01b03811681146105e157600080fd5b919050565b60008060008060008060a087890312156105ff57600080fd5b610608876105ca565b9550602087013567ffffffffffffffff8082111561062557600080fd5b818901915089601f83011261063957600080fd5b81358181111561064857600080fd5b8a602082850101111561065a57600080fd5b6020830197508096505050506040870135925060608701359150608087013560ff8116811461068857600080fd5b809150509295509295509295565b60005b838110156106b1578181015183820152602001610699565b50506000910152565b60208152600082518060208401526106d9816040850160208701610696565b601f01601f19169190910160400192915050565b6000602082840312156106ff57600080fd5b610708826105ca565b9392505050565b8284823760609190911b6bffffffffffffffffffffffff19169101908152601401919050565b60008251610747818460208701610696565b9190910192915050565b6001600160a01b0385811682528416602082015260606040820181905281018290526000828460808401376000608084840101526080601f19601f85011683010190509594505050505056fe4d6574615472616e73616374696f6e2875696e74323536206e6f6e63652c616464726573732066726f6d2c62797465732066756e6374696f6e5369676e617475726529a2646970667358221220d5dc437ebdb89eef94088c7c043b51f2a4104d85b7f7186529e8720a8ecad74064736f6c63430008110033",
  "linkReferences": {},
  "deployedLinkReferences": {}
}