{
  "_format": "hh-sol-artifact-1",
  "contractName": "EIP1559Burn",
  "sourceName": "contracts/child/EIP1559Burn.sol",
  "abi": [
    {
      "anonymous": false,
      "inputs": [
        {
          "indexed": false,
          "internalType": "uint8",
          "name": "version",
          "type": "uint8"
        }
      ],
      "name": "Initialized",
      "type": "event"
    },
    {
      "anonymous": false,
      "inputs": [
        {
          "indexed": true,
          "internalType": "address",
          "name": "burner",
          "type": "address"
        },
        {
          "indexed": false,
          "internalType": "uint256",
          "name": "amount",
          "type": "uint256"
        }
      ],
      "name": "NativeTokenBurnt",
      "type": "event"
    },
    {
      "inputs": [],
      "name": "burnDestination",
      "outputs": [
        {
          "internalType": "address",
          "name": "",
          "type": "address"
        }
      ],
      "stateMutability": "view",
      "type": "function"
    },
    {
      "inputs": [],
      "name": "childERC20Predicate",
      "outputs": [
        {
          "internalType": "contract IChildERC20Predicate",
          "name": "",
          "type": "address"
        }
      ],
      "stateMutability": "view",
      "type": "function"
    },
    {
      "inputs": [
        {
          "internalType": "contract IChildERC20Predicate",
          "name": "newChildERC20Predicate",
          "type": "address"
        },
        {
          "internalType": "address",
          "name": "newBurnDestination",
          "type": "address"
        }
      ],
      "name": "initialize",
      "outputs": [],
      "stateMutability": "nonpayable",
      "type": "function"
    },
    {
      "inputs": [],
      "name": "withdraw",
      "outputs": [],
      "stateMutability": "nonpayable",
      "type": "function"
    },
    {
      "stateMutability": "payable",
      "type": "receive"
    }
  ],
  "bytecode": "0x608060405234801561001057600080fd5b50610425806100206000396000f3fe6080604052600436106100435760003560e01c80630fca96871461004f5780633ccfd60b1461008b578063485cc955146100a2578063d57184e4146100c257600080fd5b3661004a57005b600080fd5b34801561005b57600080fd5b5060015461006f906001600160a01b031681565b6040516001600160a01b03909116815260200160405180910390f35b34801561009757600080fd5b506100a06100e8565b005b3480156100ae57600080fd5b506100a06100bd3660046103b6565b6101fc565b3480156100ce57600080fd5b5060005461006f906201000090046001600160a01b031681565b6000546201000090046001600160a01b031661014b5760405162461bcd60e51b815260206004820152601a60248201527f454950313535394275726e3a20554e494e495449414c495a454400000000000060448201526064015b60405180910390fd5b6000546001546040516361d9ad3f60e11b815261101060048201526001600160a01b0391821660248201524760448201819052926201000090049091169063c3b35a7e90606401600060405180830381600087803b1580156101ac57600080fd5b505af11580156101c0573d6000803e3d6000fd5b50506040518381523392507feb347a9a474ae97b7b32a903d84decf8fc80dc9cd6129085f5097de5cd3b3256915060200160405180910390a250565b600054610100900460ff161580801561021c5750600054600160ff909116105b806102365750303b158015610236575060005460ff166001145b6102995760405162461bcd60e51b815260206004820152602e60248201527f496e697469616c697a61626c653a20636f6e747261637420697320616c72656160448201526d191e481a5b9a5d1a585b1a5e995960921b6064820152608401610142565b6000805460ff1916600117905580156102bc576000805461ff0019166101001790555b6001600160a01b0383166103125760405162461bcd60e51b815260206004820152601f60248201527f454950313535394275726e3a204241445f494e495449414c495a4154494f4e006044820152606401610142565b6000805462010000600160b01b031916620100006001600160a01b038681169190910291909117909155600180546001600160a01b0319169184169190911790558015610399576000805461ff0019169055604051600181527f7f26b83ff96e1f2b6a682f133852f6798a09c465da95921460cefb38474024989060200160405180910390a15b505050565b6001600160a01b03811681146103b357600080fd5b50565b600080604083850312156103c957600080fd5b82356103d48161039e565b915060208301356103e48161039e565b80915050925092905056fea264697066735822122092e579136ec2c7d0b810086c59618e152131db6e17b84a0170129b35e47d410e64736f6c63430008110033",
  "linkReferences": {},
  "deployedLinkReferences": {}
}