{
  "_format": "hh-sol-artifact-1",
  "contractName": "ExitHelper",
  "sourceName": "contracts/root/ExitHelper.sol",
  "abi": [
    {
      "anonymous": false,
      "inputs": [
        {
          "indexed": true,
          "internalType": "uint256",
          "name": "id",
          "type": "uint256"
        },
        {
          "indexed": true,
          "internalType": "bool",
          "name": "success",
          "type": "bool"
        },
        {
          "indexed": false,
          "internalType": "bytes",
          "name": "returnData",
          "type": "bytes"
        }
      ],
      "name": "ExitProcessed",
      "type": "event"
    },
    {
      "anonymous": false,
      "inputs": [
        {
          "indexed": false,
          "internalType": "uint8",
          "name": "version",
          "type": "uint8"
        }
      ],
      "name": "Initialized",
      "type": "event"
    },
    {
      "inputs": [
        {
          "components": [
            {
              "internalType": "uint256",
              "name": "blockNumber",
              "type": "uint256"
            },
            {
              "internalType": "uint256",
              "name": "leafIndex",
              "type": "uint256"
            },
            {
              "internalType": "bytes",
              "name": "unhashedLeaf",
              "type": "bytes"
            },
            {
              "internalType": "bytes32[]",
              "name": "proof",
              "type": "bytes32[]"
            }
          ],
          "internalType": "struct IExitHelper.BatchExitInput[]",
          "name": "inputs",
          "type": "tuple[]"
        }
      ],
      "name": "batchExit",
      "outputs": [],
      "stateMutability": "nonpayable",
      "type": "function"
    },
    {
      "inputs": [],
      "name": "checkpointManager",
      "outputs": [
        {
          "internalType": "contract ICheckpointManager",
          "name": "",
          "type": "address"
        }
      ],
      "stateMutability": "view",
      "type": "function"
    },
    {
      "inputs": [
        {
          "internalType": "uint256",
          "name": "blockNumber",
          "type": "uint256"
        },
        {
          "internalType": "uint256",
          "name": "leafIndex",
          "type": "uint256"
        },
        {
          "internalType": "bytes",
          "name": "unhashedLeaf",
          "type": "bytes"
        },
        {
          "internalType": "bytes32[]",
          "name": "proof",
          "type": "bytes32[]"
        }
      ],
      "name": "exit",
      "outputs": [],
      "stateMutability": "nonpayable",
      "type": "function"
    },
    {
      "inputs": [
        {
          "internalType": "contract ICheckpointManager",
          "name": "newCheckpointManager",
          "type": "address"
        }
      ],
      "name": "initialize",
      "outputs": [],
      "stateMutability": "nonpayable",
      "type": "function"
    },
    {
      "inputs": [
        {
          "internalType": "uint256",
          "name": "",
          "type": "uint256"
        }
      ],
      "name": "processedExits",
      "outputs": [
        {
          "internalType": "bool",
          "name": "",
          "type": "bool"
        }
      ],
      "stateMutability": "view",
      "type": "function"
    }
  ],
  "bytecode": "0x608060405234801561001057600080fd5b50610b62806100206000396000f3fe608060405234801561001057600080fd5b50600436106100575760003560e01c806350607b351461005c578063aa209cc314610071578063bd88ea7914610084578063c0857ba0146100bc578063c4d66de8146100e7575b600080fd5b61006f61006a3660046106c9565b6100fa565b005b61006f61007f36600461070b565b610200565b6100a76100923660046107bc565b60016020526000908152604090205460ff1681565b60405190151581526020015b60405180910390f35b6002546100cf906001600160a01b031681565b6040516001600160a01b0390911681526020016100b3565b61006f6100f53660046107ed565b610240565b6002546001600160a01b031661012b5760405162461bcd60e51b815260040161012290610811565b60405180910390fd5b8060005b818110156101fa576101f284848381811061014c5761014c610848565b905060200281019061015e919061085e565b3585858481811061017157610171610848565b9050602002810190610183919061085e565b6020013586868581811061019957610199610848565b90506020028101906101ab919061085e565b6101b990604081019061087e565b8888878181106101cb576101cb610848565b90506020028101906101dd919061085e565b6101eb9060608101906108c5565b60016103d2565b60010161012f565b50505050565b6002546001600160a01b03166102285760405162461bcd60e51b815260040161012290610811565b61023886868686868660006103d2565b505050505050565b600054610100900460ff16158080156102605750600054600160ff909116105b8061027a5750303b15801561027a575060005460ff166001145b6102dd5760405162461bcd60e51b815260206004820152602e60248201527f496e697469616c697a61626c653a20636f6e747261637420697320616c72656160448201526d191e481a5b9a5d1a585b1a5e995960921b6064820152608401610122565b6000805460ff191660011790558015610300576000805461ff0019166101001790555b6001600160a01b0382161580159061032157506001600160a01b0382163b15155b61036d5760405162461bcd60e51b815260206004820152601b60248201527f4578697448656c7065723a20494e56414c49445f4144445245535300000000006044820152606401610122565b600280546001600160a01b0319166001600160a01b03841617905580156103ce576000805461ff0019169055604051600181527f7f26b83ff96e1f2b6a682f133852f6798a09c465da95921460cefb38474024989060200160405180910390a15b5050565b60008080806103e3888a018a610925565b935093509350935084156104165760008481526001602052604090205460ff16156104115750505050610674565b610480565b60008481526001602052604090205460ff16156104805760405162461bcd60e51b815260206004820152602260248201527f4578697448656c7065723a20455849545f414c52454144595f50524f43455353604482015261115160f21b6064820152608401610122565b6002546040516001600160a01b03909116906361a02208908d906104a7908d908d90610a05565b6040519081900381206001600160e01b031960e085901b1682526104d492918f908d908d90600401610a15565b602060405180830381865afa1580156104f1573d6000803e3d6000fd5b505050506040513d601f19601f820116820180604052508101906105159190610a62565b61055d5760405162461bcd60e51b815260206004820152601960248201527822bc34ba2432b63832b91d1024a72b20a624a22fa82927a7a360391b6044820152606401610122565b6000848152600160208190526040808320805460ff19169092179091555181906001600160a01b0385169061059a90889088908790602401610ad4565b60408051601f198184030181529181526020820180516001600160e01b031663f43cda8b60e01b179052516105cf9190610b07565b6000604051808303816000865af19150503d806000811461060c576040519150601f19603f3d011682016040523d82523d6000602084013e610611565b606091505b509150915081610632576000868152600160205260409020805460ff191690555b811515867f8bbfa0c9bee3785c03700d2a909592286efb83fc7e7002be5764424b9842f7ec836040516106659190610b19565b60405180910390a35050505050505b50505050505050565b60008083601f84011261068f57600080fd5b50813567ffffffffffffffff8111156106a757600080fd5b6020830191508360208260051b85010111156106c257600080fd5b9250929050565b600080602083850312156106dc57600080fd5b823567ffffffffffffffff8111156106f357600080fd5b6106ff8582860161067d565b90969095509350505050565b6000806000806000806080878903121561072457600080fd5b8635955060208701359450604087013567ffffffffffffffff8082111561074a57600080fd5b818901915089601f83011261075e57600080fd5b81358181111561076d57600080fd5b8a602082850101111561077f57600080fd5b60208301965080955050606089013591508082111561079d57600080fd5b506107aa89828a0161067d565b979a9699509497509295939492505050565b6000602082840312156107ce57600080fd5b5035919050565b6001600160a01b03811681146107ea57600080fd5b50565b6000602082840312156107ff57600080fd5b813561080a816107d5565b9392505050565b6020808252601b908201527f4578697448656c7065723a204e4f545f494e495449414c495a45440000000000604082015260600190565b634e487b7160e01b600052603260045260246000fd5b60008235607e1983360301811261087457600080fd5b9190910192915050565b6000808335601e1984360301811261089557600080fd5b83018035915067ffffffffffffffff8211156108b057600080fd5b6020019150368190038213156106c257600080fd5b6000808335601e198436030181126108dc57600080fd5b83018035915067ffffffffffffffff8211156108f757600080fd5b6020019150600581901b36038213156106c257600080fd5b634e487b7160e01b600052604160045260246000fd5b6000806000806080858703121561093b57600080fd5b84359350602085013561094d816107d5565b9250604085013561095d816107d5565b9150606085013567ffffffffffffffff8082111561097a57600080fd5b818701915087601f83011261098e57600080fd5b8135818111156109a0576109a061090f565b604051601f8201601f19908116603f011681019083821181831017156109c8576109c861090f565b816040528281528a60208487010111156109e157600080fd5b82602086016020830137600060208483010152809550505050505092959194509250565b8183823760009101908152919050565b85815284602082015283604082015260806060820152816080820152600060018060fb1b03831115610a4657600080fd5b8260051b808560a08501379190910160a0019695505050505050565b600060208284031215610a7457600080fd5b8151801515811461080a57600080fd5b60005b83811015610a9f578181015183820152602001610a87565b50506000910152565b60008151808452610ac0816020860160208601610a84565b601f01601f19169290920160200192915050565b8381526001600160a01b0383166020820152606060408201819052600090610afe90830184610aa8565b95945050505050565b60008251610874818460208701610a84565b60208152600061080a6020830184610aa856fea264697066735822122008943fed61b7c9037d83d6de6f81699e05bf9650fa3394883bac4a072bac958b64736f6c63430008110033",
  "linkReferences": {},
  "deployedLinkReferences": {}
}