{
  "_format": "hh-sol-artifact-1",
  "contractName": "MockValidatorQueue",
  "sourceName": "contracts/mocks/MockValidatorQueue.sol",
  "abi": [
    {
      "inputs": [
        {
          "internalType": "address",
          "name": "validator",
          "type": "address"
        }
      ],
      "name": "getIndex",
      "outputs": [
        {
          "internalType": "uint256",
          "name": "index",
          "type": "uint256"
        }
      ],
      "stateMutability": "view",
      "type": "function"
    },
    {
      "inputs": [],
      "name": "getQueue",
      "outputs": [
        {
          "components": [
            {
              "internalType": "address",
              "name": "validator",
              "type": "address"
            },
            {
              "internalType": "int256",
              "name": "stake",
              "type": "int256"
            },
            {
              "internalType": "int256",
              "name": "delegation",
              "type": "int256"
            }
          ],
          "internalType": "struct QueuedValidator[]",
          "name": "",
          "type": "tuple[]"
        }
      ],
      "stateMutability": "view",
      "type": "function"
    },
    {
      "inputs": [],
      "name": "reset",
      "outputs": [],
      "stateMutability": "nonpayable",
      "type": "function"
    },
    {
      "inputs": [
        {
          "internalType": "address",
          "name": "validator",
          "type": "address"
        },
        {
          "internalType": "uint256",
          "name": "stake_",
          "type": "uint256"
        },
        {
          "internalType": "uint256",
          "name": "delegation",
          "type": "uint256"
        }
      ],
      "name": "stake",
      "outputs": [],
      "stateMutability": "nonpayable",
      "type": "function"
    },
    {
      "inputs": [
        {
          "internalType": "address",
          "name": "validator",
          "type": "address"
        },
        {
          "internalType": "uint256",
          "name": "stake_",
          "type": "uint256"
        },
        {
          "internalType": "uint256",
          "name": "delegation",
          "type": "uint256"
        }
      ],
      "name": "unstake",
      "outputs": [],
      "stateMutability": "nonpayable",
      "type": "function"
    }
  ],
  "bytecode": "0x608060405234801561001057600080fd5b506104bc806100206000396000f3fe608060405234801561001057600080fd5b50600436106100575760003560e01c806301fce27e1461005c5780630c51b88f1461007a578063a2bc66be1461008f578063b31610db146100a2578063d826f88f146100d9575b600080fd5b6100646100e1565b60405161007191906102fa565b60405180910390f35b61008d610088366004610378565b610163565b005b61008d61009d366004610378565b610175565b6100cb6100b03660046103ab565b6001600160a01b031660009081526001602052604090205490565b604051908152602001610071565b61008d61019b565b60606000805480602002602001604051908101604052809291908181526020016000905b8282101561015a576000848152602090819020604080516060810182526003860290920180546001600160a01b0316835260018082015484860152600290910154918301919091529083529092019101610105565b50505050905090565b61017060008484846101a6565b505050565b61017083610185846000196103dc565b610191846000196103dc565b60009291906101a6565b6101a460008055565b565b6001600160a01b0383166000908152600185016020526040812054908190036102515784546101d690600161040c565b6001600160a01b03858116600081815260018981016020908152604080842087905580516060810182529485528482018a81529085018981528c548085018e558d8652929094209451600390920290940180546001600160a01b031916919095161784559151918301919091555160029091015590506102b4565b60008561025e81876102bb565b8154811061026e5761026e61041f565b90600052602060002090600302019050838160010160008282546102929190610435565b92505081905550828160020160008282546102ad9190610435565b9091555050505b5050505050565b6001600160a01b0381166000908152600183016020526040812054908190036102e6576102e661045d565b6102f1600182610473565b90505b92915050565b602080825282518282018190526000919060409081850190868401855b8281101561034f57815180516001600160a01b0316855286810151878601528501518585015260609093019290850190600101610317565b5091979650505050505050565b80356001600160a01b038116811461037357600080fd5b919050565b60008060006060848603121561038d57600080fd5b6103968461035c565b95602085013595506040909401359392505050565b6000602082840312156103bd57600080fd5b6102f18261035c565b634e487b7160e01b600052601160045260246000fd5b80820260008212600160ff1b841416156103f8576103f86103c6565b81810583148215176102f4576102f46103c6565b808201808211156102f4576102f46103c6565b634e487b7160e01b600052603260045260246000fd5b8082018281126000831280158216821582161715610455576104556103c6565b505092915050565b634e487b7160e01b600052600160045260246000fd5b818103818111156102f4576102f46103c656fea26469706673582212202109fc4ea8e23a56c499f26997638293cf15b666f5176e22eb130813f9dad30e64736f6c63430008110033",
  "linkReferences": {},
  "deployedLinkReferences": {}
}