{
  "_format": "hh-sol-artifact-1",
  "contractName": "StateReceiver",
  "sourceName": "contracts/child/StateReceiver.sol",
  "abi": [
    {
      "inputs": [
        {
          "internalType": "string",
          "name": "only",
          "type": "string"
        }
      ],
      "name": "Unauthorized",
      "type": "error"
    },
    {
      "anonymous": false,
      "inputs": [
        {
          "indexed": true,
          "internalType": "uint256",
          "name": "startId",
          "type": "uint256"
        },
        {
          "indexed": true,
          "internalType": "uint256",
          "name": "endId",
          "type": "uint256"
        },
        {
          "indexed": false,
          "internalType": "bytes32",
          "name": "root",
          "type": "bytes32"
        }
      ],
      "name": "NewCommitment",
      "type": "event"
    },
    {
      "anonymous": false,
      "inputs": [
        {
          "indexed": true,
          "internalType": "uint256",
          "name": "counter",
          "type": "uint256"
        },
        {
          "indexed": true,
          "internalType": "bool",
          "name": "status",
          "type": "bool"
        },
        {
          "indexed": false,
          "internalType": "bytes",
          "name": "message",
          "type": "bytes"
        }
      ],
      "name": "StateSyncResult",
      "type": "event"
    },
    {
      "inputs": [],
      "name": "NATIVE_TOKEN_CONTRACT",
      "outputs": [
        {
          "internalType": "address",
          "name": "",
          "type": "address"
        }
      ],
      "stateMutability": "view",
      "type": "function"
    },
    {
      "inputs": [],
      "name": "NATIVE_TRANSFER_PRECOMPILE",
      "outputs": [
        {
          "internalType": "address",
          "name": "",
          "type": "address"
        }
      ],
      "stateMutability": "view",
      "type": "function"
    },
    {
      "inputs": [],
      "name": "NATIVE_TRANSFER_PRECOMPILE_GAS",
      "outputs": [
        {
          "internalType": "uint256",
          "name": "",
          "type": "uint256"
        }
      ],
      "stateMutability": "view",
      "type": "function"
    },
    {
      "inputs": [],
      "name": "SYSTEM",
      "outputs": [
        {
          "internalType": "address",
          "name": "",
          "type": "address"
        }
      ],
      "stateMutability": "view",
      "type": "function"
    },
    {
      "inputs": [],
      "name": "VALIDATOR_PKCHECK_PRECOMPILE",
      "outputs": [
        {
          "internalType": "address",
          "name": "",
          "type": "address"
        }
      ],
      "stateMutability": "view",
      "type": "function"
    },
    {
      "inputs": [],
      "name": "VALIDATOR_PKCHECK_PRECOMPILE_GAS",
      "outputs": [
        {
          "internalType": "uint256",
          "name": "",
          "type": "uint256"
        }
      ],
      "stateMutability": "view",
      "type": "function"
    },
    {
      "inputs": [
        {
          "internalType": "bytes32[][]",
          "name": "proofs",
          "type": "bytes32[][]"
        },
        {
          "components": [
            {
              "internalType": "uint256",
              "name": "id",
              "type": "uint256"
            },
            {
              "internalType": "address",
              "name": "sender",
              "type": "address"
            },
            {
              "internalType": "address",
              "name": "receiver",
              "type": "address"
            },
            {
              "internalType": "bytes",
              "name": "data",
              "type": "bytes"
            }
          ],
          "internalType": "struct StateReceiver.StateSync[]",
          "name": "objs",
          "type": "tuple[]"
        }
      ],
      "name": "batchExecute",
      "outputs": [],
      "stateMutability": "nonpayable",
      "type": "function"
    },
    {
      "inputs": [
        {
          "components": [
            {
              "internalType": "uint256",
              "name": "startId",
              "type": "uint256"
            },
            {
              "internalType": "uint256",
              "name": "endId",
              "type": "uint256"
            },
            {
              "internalType": "bytes32",
              "name": "root",
              "type": "bytes32"
            }
          ],
          "internalType": "struct StateReceiver.StateSyncCommitment",
          "name": "commitment",
          "type": "tuple"
        },
        {
          "internalType": "bytes",
          "name": "signature",
          "type": "bytes"
        },
        {
          "internalType": "bytes",
          "name": "bitmap",
          "type": "bytes"
        }
      ],
      "name": "commit",
      "outputs": [],
      "stateMutability": "nonpayable",
      "type": "function"
    },
    {
      "inputs": [],
      "name": "commitmentCounter",
      "outputs": [
        {
          "internalType": "uint256",
          "name": "",
          "type": "uint256"
        }
      ],
      "stateMutability": "view",
      "type": "function"
    },
    {
      "inputs": [
        {
          "internalType": "uint256",
          "name": "",
          "type": "uint256"
        }
      ],
      "name": "commitmentIds",
      "outputs": [
        {
          "internalType": "uint256",
          "name": "",
          "type": "uint256"
        }
      ],
      "stateMutability": "view",
      "type": "function"
    },
    {
      "inputs": [
        {
          "internalType": "uint256",
          "name": "",
          "type": "uint256"
        }
      ],
      "name": "commitments",
      "outputs": [
        {
          "internalType": "uint256",
          "name": "startId",
          "type": "uint256"
        },
        {
          "internalType": "uint256",
          "name": "endId",
          "type": "uint256"
        },
        {
          "internalType": "bytes32",
          "name": "root",
          "type": "bytes32"
        }
      ],
      "stateMutability": "view",
      "type": "function"
    },
    {
      "inputs": [
        {
          "internalType": "bytes32[]",
          "name": "proof",
          "type": "bytes32[]"
        },
        {
          "components": [
            {
              "internalType": "uint256",
              "name": "id",
              "type": "uint256"
            },
            {
              "internalType": "address",
              "name": "sender",
              "type": "address"
            },
            {
              "internalType": "address",
              "name": "receiver",
              "type": "address"
            },
            {
              "internalType": "bytes",
              "name": "data",
              "type": "bytes"
            }
          ],
          "internalType": "struct StateReceiver.StateSync",
          "name": "obj",
          "type": "tuple"
        }
      ],
      "name": "execute",
      "outputs": [],
      "stateMutability": "nonpayable",
      "type": "function"
    },
    {
      "inputs": [
        {
          "internalType": "uint256",
          "name": "id",
          "type": "uint256"
        }
      ],
      "name": "getCommitmentByStateSyncId",
      "outputs": [
        {
          "components": [
            {
              "internalType": "uint256",
              "name": "startId",
              "type": "uint256"
            },
            {
              "internalType": "uint256",
              "name": "endId",
              "type": "uint256"
            },
            {
              "internalType": "bytes32",
              "name": "root",
              "type": "bytes32"
            }
          ],
          "internalType": "struct StateReceiver.StateSyncCommitment",
          "name": "",
          "type": "tuple"
        }
      ],
      "stateMutability": "view",
      "type": "function"
    },
    {
      "inputs": [
        {
          "internalType": "uint256",
          "name": "id",
          "type": "uint256"
        }
      ],
      "name": "getRootByStateSyncId",
      "outputs": [
        {
          "internalType": "bytes32",
          "name": "",
          "type": "bytes32"
        }
      ],
      "stateMutability": "view",
      "type": "function"
    },
    {
      "inputs": [],
      "name": "lastCommittedId",
      "outputs": [
        {
          "internalType": "uint256",
          "name": "",
          "type": "uint256"
        }
      ],
      "stateMutability": "view",
      "type": "function"
    },
    {
      "inputs": [
        {
          "internalType": "uint256",
          "name": "",
          "type": "uint256"
        }
      ],
      "name": "processedStateSyncs",
      "outputs": [
        {
          "internalType": "bool",
          "name": "",
          "type": "bool"
        }
      ],
      "stateMutability": "view",
      "type": "function"
    }
  ],
  "bytecode": "0x608060405234801561001057600080fd5b50611428806100206000396000f3fe608060405234801561001057600080fd5b50600436106100e05760003560e01c80639017c127116100875780639017c127146101de578063947287cf146101f157806397e5230d146101fa578063ad240c2a14610204578063c59a18f71461020d578063c6df461714610220578063e0563ab114610233578063eb70ef441461023c57600080fd5b8063196f1b2d146100e557806323e281cf1461010b578063284017f5146101145780633b878c221461013557806349ce89971461013e57806350d5b95b1461018857806351351d531461019d578063544c5e0f146101ab575b600080fd5b6100f86100f3366004610e88565b610271565b6040519081526020015b60405180910390f35b6100f860325481565b61011d61202081565b6040516001600160a01b039091168152602001610102565b61011d61101081565b61016d61014c366004610e88565b60356020526000908152604090208054600182015460029092015490919083565b60408051938452602084019290925290820152606001610102565b61019b610196366004610eec565b6102f0565b005b61011d6002600160a01b0381565b6101ce6101b9366004610e88565b60346020526000908152604090205460ff1681565b6040519015158152602001610102565b61019b6101ec366004610f5b565b6103b7565b6100f861520881565b6100f8620249f081565b6100f860335481565b6100f861021b366004610e88565b610557565b61019b61022e366004611007565b610578565b61011d61203081565b61024f61024a366004610e88565b61075c565b6040805182518152602080840151908201529181015190820152606001610102565b60008060358161028260368661081f565b81526020810191909152604001600020600201549050806102ea5760405162461bcd60e51b815260206004820152601d60248201527f537461746552656365697665723a204e4f5f524f4f545f464f525f494400000060448201526064015b60405180910390fd5b92915050565b60006102fc823561075c565b805190915061036c906103109084356110a5565b8251602084015161032191906110a5565b61032c9060016110b8565b83604001518787876040516020016103449190611110565b604051602081830303815290604052805190602001206108cc9095949392919063ffffffff16565b6103a85760405162461bcd60e51b815260206004820152600d60248201526c24a72b20a624a22fa82927a7a360991b60448201526064016102e1565b6103b182610a68565b50505050565b8281811461041a5760405162461bcd60e51b815260206004820152602a60248201527f537461746552656365697665723a20554e4d4154434845445f4c454e4754485f604482015269504152414d455445525360b01b60648201526084016102e1565b60005b8181101561054f57600061045485858481811061043c5761043c6111ac565b905060200281019061044e91906111c2565b3561075c565b905060006105088260000151878786818110610472576104726111ac565b905060200281019061048491906111c2565b61048f9190356110a5565b835160208501516104a091906110a5565b6104ab9060016110b8565b84604001518b8b888181106104c2576104c26111ac565b90506020028101906104d491906111e2565b8b8b8a8181106104e6576104e66111ac565b90506020028101906104f891906111c2565b6040516020016103449190611110565b90508061051957505060010161041d565b61054586868581811061052e5761052e6111ac565b905060200281019061054091906111c2565b610a68565b505060010161041d565b505050505050565b6036818154811061056757600080fd5b600091825260209091200154905081565b336002600160a01b03146105bc5760405163973d02cb60e01b815260206004820152600a60248201526914d654d5115350d0531360b21b60448201526064016102e1565b6033546105ca9060016110b8565b85351461060c5760405162461bcd60e51b815260206004820152601060248201526f1253959053125117d4d510549517d25160821b60448201526064016102e1565b8435602086013510156106525760405162461bcd60e51b815260206004820152600e60248201526d1253959053125117d1539117d25160921b60448201526064016102e1565b60408051863560208083019190915287013581830152908601356060820152610697906080016040516020818303038152906040528051906020012085858585610c83565b603280548691603591600091826106ad8361122b565b90915550815260208082019290925260409081016000208335815591830135600183015582013560028201555050603680546001810182556000919091526020868101357f4a11f94e20a93c79f6ec743a1954ec4fc2c08429ae2122118bf234b2185c81b89092018290556033829055604080519088013581528735917f11efd893530b26afc66d488ff54cb15df117cb6e0e4a08c6dcb166d766c3bf3b910160405180910390a35050505050565b604080516060810182526000808252602082018190529181018290529061078460368461081f565b60365490915081036107e45760405162461bcd60e51b815260206004820152602360248201527f537461746552656365697665723a204e4f5f434f4d4d49544d454e545f464f5260448201526217d25160ea1b60648201526084016102e1565b600090815260356020908152604091829020825160608101845281548152600182015492810192909252600201549181019190915292915050565b81546000908103610832575060006102ea565b82546000905b8082101561087f57600061084c8383610d87565b6000878152602090209091508590820154111561086b57809150610879565b6108768160016110b8565b92505b50610838565b6000821180156108ab5750836108a88661089a6001866110a5565b600091825260209091200190565b54145b156108c4576108bb6001836110a5565b925050506102ea565b509392505050565b6000816108da866001610da9565b811461091f5760405162461bcd60e51b81526020600482015260146024820152730929cac82989288bea0a49e9e8cbe988a9c8ea8960631b60448201526064016102e1565b8587106109635760405162461bcd60e51b81526020600482015260126024820152710929cac82989288be988a828cbe929c888ab60731b60448201526064016102e1565b8761099f5760405162461bcd60e51b815260206004820152600c60248201526b24a72b20a624a22fa622a0a360a11b60448201526064016102e1565b8760005b82811015610a595760008686838181106109bf576109bf6111ac565b90506020020135905060028a6109d5919061125a565b600003610a0d576040805160208101859052908101829052606001604051602081830303815290604052805190602001209250610a3a565b60408051602081018390529081018490526060016040516020818303038152906040528051906020012092505b610a4560028b61126e565b99505080610a529061122b565b90506109a3565b50909414979650505050505050565b803560009081526034602052604090205460ff1615610ad85760405162461bcd60e51b815260206004820152602660248201527f537461746552656365697665723a2053544154455f53594e435f49535f50524f60448201526510d154d4d15160d21b60648201526084016102e1565b610ae86060820160408301611282565b6001600160a01b03163b600003610b3c576040805160208082526000908201819052918335917f31c652130602f3ce96ceaf8a4c2b8b49f049166c6fcf2eb31943a75ec7c936ae910160405180910390a350565b8035600090815260346020526040808220805460ff191660011790558190610b6a9060608501908501611282565b6001600160a01b03168335610b856040860160208701611282565b610b92606087018761129d565b604051602401610ba594939291906112e3565b60408051601f198184030181529181526020820180516001600160e01b031663eeb4994560e01b17905251610bda919061133c565b6000604051808303816000865af19150503d8060008114610c17576040519150601f19603f3d011682016040523d82523d6000602084013e610c1c565b606091505b509150915081610c3f5782356000908152603460205260409020805460ff191690555b81151583600001357f31c652130602f3ce96ceaf8a4c2b8b49f049166c6fcf2eb31943a75ec7c936ae83604051610c76919061134e565b60405180910390a3505050565b6000806120306001600160a01b0316620249f08888888888604051602001610caf959493929190611381565b60408051601f1981840301815290829052610cc99161133c565b6000604051808303818686fa925050503d8060008114610d05576040519150601f19603f3d011682016040523d82523d6000602084013e610d0a565b606091505b5091509150600081806020019051810190610d2591906113ba565b9050828015610d315750805b610d7d5760405162461bcd60e51b815260206004820152601d60248201527f5349474e41545552455f564552494649434154494f4e5f4641494c454400000060448201526064016102e1565b5050505050505050565b6000610d96600284841861126e565b610da2908484166110b8565b9392505050565b600080610db584610df4565b90506001836002811115610dcb57610dcb6113dc565b148015610ddb575083816001901b105b610de6576000610de9565b60015b60ff16019392505050565b600080608083901c15610e0957608092831c92015b604083901c15610e1b57604092831c92015b602083901c15610e2d57602092831c92015b601083901c15610e3f57601092831c92015b600883901c15610e5157600892831c92015b600483901c15610e6357600492831c92015b600283901c15610e7557600292831c92015b600183901c156102ea5760010192915050565b600060208284031215610e9a57600080fd5b5035919050565b60008083601f840112610eb357600080fd5b5081356001600160401b03811115610eca57600080fd5b6020830191508360208260051b8501011115610ee557600080fd5b9250929050565b600080600060408486031215610f0157600080fd5b83356001600160401b0380821115610f1857600080fd5b610f2487838801610ea1565b90955093506020860135915080821115610f3d57600080fd5b50840160808187031215610f5057600080fd5b809150509250925092565b60008060008060408587031215610f7157600080fd5b84356001600160401b0380821115610f8857600080fd5b610f9488838901610ea1565b90965094506020870135915080821115610fad57600080fd5b50610fba87828801610ea1565b95989497509550505050565b60008083601f840112610fd857600080fd5b5081356001600160401b03811115610fef57600080fd5b602083019150836020828501011115610ee557600080fd5b600080600080600085870360a081121561102057600080fd5b606081121561102e57600080fd5b5085945060608601356001600160401b038082111561104c57600080fd5b61105889838a01610fc6565b9096509450608088013591508082111561107157600080fd5b5061107e88828901610fc6565b969995985093965092949392505050565b634e487b7160e01b600052601160045260246000fd5b818103818111156102ea576102ea61108f565b808201808211156102ea576102ea61108f565b80356001600160a01b03811681146110e257600080fd5b919050565b81835281816020850137506000828201602090810191909152601f909101601f19169091010190565b60208152813560208201526000611129602084016110cb565b60018060a01b03808216604085015280611145604087016110cb565b16606085015250506060830135601e1984360301811261116457600080fd5b83016020810190356001600160401b0381111561118057600080fd5b80360382131561118f57600080fd5b6080808501526111a360a0850182846110e7565b95945050505050565b634e487b7160e01b600052603260045260246000fd5b60008235607e198336030181126111d857600080fd5b9190910192915050565b6000808335601e198436030181126111f957600080fd5b8301803591506001600160401b0382111561121357600080fd5b6020019150600581901b3603821315610ee557600080fd5b60006001820161123d5761123d61108f565b5060010190565b634e487b7160e01b600052601260045260246000fd5b60008261126957611269611244565b500690565b60008261127d5761127d611244565b500490565b60006020828403121561129457600080fd5b610da2826110cb565b6000808335601e198436030181126112b457600080fd5b8301803591506001600160401b038211156112ce57600080fd5b602001915036819003821315610ee557600080fd5b8481526001600160a01b038416602082015260606040820181905260009061130e90830184866110e7565b9695505050505050565b60005b8381101561133357818101518382015260200161131b565b50506000910152565b600082516111d8818460208701611318565b602081526000825180602084015261136d816040850160208701611318565b601f01601f19169190910160400192915050565b85815260606020820152600061139b6060830186886110e7565b82810360408401526113ae8185876110e7565b98975050505050505050565b6000602082840312156113cc57600080fd5b81518015158114610da257600080fd5b634e487b7160e01b600052602160045260246000fdfea2646970667358221220f12de4c572934572c3dae6184bcfe87730e8a0938ba1504547710fd27554218264736f6c63430008110033",
  "linkReferences": {},
  "deployedLinkReferences": {}
}