{
  "_format": "hh-sol-artifact-1",
  "contractName": "NativeERC20Mintable",
  "sourceName": "contracts/child/NativeERC20Mintable.sol",
  "abi": [
    {
      "inputs": [
        {
          "internalType": "string",
          "name": "only",
          "type": "string"
        }
      ],
      "name": "Unauthorized",
      "type": "error"
    },
    {
      "anonymous": false,
      "inputs": [
        {
          "indexed": true,
          "internalType": "address",
          "name": "owner",
          "type": "address"
        },
        {
          "indexed": true,
          "internalType": "address",
          "name": "spender",
          "type": "address"
        },
        {
          "indexed": false,
          "internalType": "uint256",
          "name": "value",
          "type": "uint256"
        }
      ],
      "name": "Approval",
      "type": "event"
    },
    {
      "anonymous": false,
      "inputs": [
        {
          "indexed": false,
          "internalType": "uint8",
          "name": "version",
          "type": "uint8"
        }
      ],
      "name": "Initialized",
      "type": "event"
    },
    {
      "anonymous": false,
      "inputs": [
        {
          "indexed": true,
          "internalType": "address",
          "name": "previousOwner",
          "type": "address"
        },
        {
          "indexed": true,
          "internalType": "address",
          "name": "newOwner",
          "type": "address"
        }
      ],
      "name": "OwnershipTransferStarted",
      "type": "event"
    },
    {
      "anonymous": false,
      "inputs": [
        {
          "indexed": true,
          "internalType": "address",
          "name": "previousOwner",
          "type": "address"
        },
        {
          "indexed": true,
          "internalType": "address",
          "name": "newOwner",
          "type": "address"
        }
      ],
      "name": "OwnershipTransferred",
      "type": "event"
    },
    {
      "anonymous": false,
      "inputs": [
        {
          "indexed": true,
          "internalType": "address",
          "name": "from",
          "type": "address"
        },
        {
          "indexed": true,
          "internalType": "address",
          "name": "to",
          "type": "address"
        },
        {
          "indexed": false,
          "internalType": "uint256",
          "name": "value",
          "type": "uint256"
        }
      ],
      "name": "Transfer",
      "type": "event"
    },
    {
      "inputs": [],
      "name": "NATIVE_TOKEN_CONTRACT",
      "outputs": [
        {
          "internalType": "address",
          "name": "",
          "type": "address"
        }
      ],
      "stateMutability": "view",
      "type": "function"
    },
    {
      "inputs": [],
      "name": "NATIVE_TRANSFER_PRECOMPILE",
      "outputs": [
        {
          "internalType": "address",
          "name": "",
          "type": "address"
        }
      ],
      "stateMutability": "view",
      "type": "function"
    },
    {
      "inputs": [],
      "name": "NATIVE_TRANSFER_PRECOMPILE_GAS",
      "outputs": [
        {
          "internalType": "uint256",
          "name": "",
          "type": "uint256"
        }
      ],
      "stateMutability": "view",
      "type": "function"
    },
    {
      "inputs": [],
      "name": "SYSTEM",
      "outputs": [
        {
          "internalType": "address",
          "name": "",
          "type": "address"
        }
      ],
      "stateMutability": "view",
      "type": "function"
    },
    {
      "inputs": [],
      "name": "VALIDATOR_PKCHECK_PRECOMPILE",
      "outputs": [
        {
          "internalType": "address",
          "name": "",
          "type": "address"
        }
      ],
      "stateMutability": "view",
      "type": "function"
    },
    {
      "inputs": [],
      "name": "VALIDATOR_PKCHECK_PRECOMPILE_GAS",
      "outputs": [
        {
          "internalType": "uint256",
          "name": "",
          "type": "uint256"
        }
      ],
      "stateMutability": "view",
      "type": "function"
    },
    {
      "inputs": [],
      "name": "acceptOwnership",
      "outputs": [],
      "stateMutability": "nonpayable",
      "type": "function"
    },
    {
      "inputs": [
        {
          "internalType": "address",
          "name": "owner",
          "type": "address"
        },
        {
          "internalType": "address",
          "name": "spender",
          "type": "address"
        }
      ],
      "name": "allowance",
      "outputs": [
        {
          "internalType": "uint256",
          "name": "",
          "type": "uint256"
        }
      ],
      "stateMutability": "view",
      "type": "function"
    },
    {
      "inputs": [
        {
          "internalType": "address",
          "name": "spender",
          "type": "address"
        },
        {
          "internalType": "uint256",
          "name": "amount",
          "type": "uint256"
        }
      ],
      "name": "approve",
      "outputs": [
        {
          "internalType": "bool",
          "name": "",
          "type": "bool"
        }
      ],
      "stateMutability": "nonpayable",
      "type": "function"
    },
    {
      "inputs": [
        {
          "internalType": "address",
          "name": "account",
          "type": "address"
        }
      ],
      "name": "balanceOf",
      "outputs": [
        {
          "internalType": "uint256",
          "name": "",
          "type": "uint256"
        }
      ],
      "stateMutability": "view",
      "type": "function"
    },
    {
      "inputs": [
        {
          "internalType": "address",
          "name": "account",
          "type": "address"
        },
        {
          "internalType": "uint256",
          "name": "amount",
          "type": "uint256"
        }
      ],
      "name": "burn",
      "outputs": [
        {
          "internalType": "bool",
          "name": "",
          "type": "bool"
        }
      ],
      "stateMutability": "nonpayable",
      "type": "function"
    },
    {
      "inputs": [],
      "name": "decimals",
      "outputs": [
        {
          "internalType": "uint8",
          "name": "",
          "type": "uint8"
        }
      ],
      "stateMutability": "view",
      "type": "function"
    },
    {
      "inputs": [
        {
          "internalType": "address",
          "name": "spender",
          "type": "address"
        },
        {
          "internalType": "uint256",
          "name": "subtractedValue",
          "type": "uint256"
        }
      ],
      "name": "decreaseAllowance",
      "outputs": [
        {
          "internalType": "bool",
          "name": "",
          "type": "bool"
        }
      ],
      "stateMutability": "nonpayable",
      "type": "function"
    },
    {
      "inputs": [
        {
          "internalType": "address",
          "name": "spender",
          "type": "address"
        },
        {
          "internalType": "uint256",
          "name": "addedValue",
          "type": "uint256"
        }
      ],
      "name": "increaseAllowance",
      "outputs": [
        {
          "internalType": "bool",
          "name": "",
          "type": "bool"
        }
      ],
      "stateMutability": "nonpayable",
      "type": "function"
    },
    {
      "inputs": [
        {
          "internalType": "address",
          "name": "predicate_",
          "type": "address"
        },
        {
          "internalType": "address",
          "name": "owner_",
          "type": "address"
        },
        {
          "internalType": "address",
          "name": "rootToken_",
          "type": "address"
        },
        {
          "internalType": "string",
          "name": "name_",
          "type": "string"
        },
        {
          "internalType": "string",
          "name": "symbol_",
          "type": "string"
        },
        {
          "internalType": "uint8",
          "name": "decimals_",
          "type": "uint8"
        }
      ],
      "name": "initialize",
      "outputs": [],
      "stateMutability": "nonpayable",
      "type": "function"
    },
    {
      "inputs": [
        {
          "internalType": "address",
          "name": "account",
          "type": "address"
        },
        {
          "internalType": "uint256",
          "name": "amount",
          "type": "uint256"
        }
      ],
      "name": "mint",
      "outputs": [
        {
          "internalType": "bool",
          "name": "",
          "type": "bool"
        }
      ],
      "stateMutability": "nonpayable",
      "type": "function"
    },
    {
      "inputs": [],
      "name": "name",
      "outputs": [
        {
          "internalType": "string",
          "name": "",
          "type": "string"
        }
      ],
      "stateMutability": "view",
      "type": "function"
    },
    {
      "inputs": [],
      "name": "owner",
      "outputs": [
        {
          "internalType": "address",
          "name": "",
          "type": "address"
        }
      ],
      "stateMutability": "view",
      "type": "function"
    },
    {
      "inputs": [],
      "name": "pendingOwner",
      "outputs": [
        {
          "internalType": "address",
          "name": "",
          "type": "address"
        }
      ],
      "stateMutability": "view",
      "type": "function"
    },
    {
      "inputs": [],
      "name": "predicate",
      "outputs": [
        {
          "internalType": "address",
          "name": "",
          "type": "address"
        }
      ],
      "stateMutability": "view",
      "type": "function"
    },
    {
      "inputs": [],
      "name": "renounceOwnership",
      "outputs": [],
      "stateMutability": "nonpayable",
      "type": "function"
    },
    {
      "inputs": [],
      "name": "rootToken",
      "outputs": [
        {
          "internalType": "address",
          "name": "",
          "type": "address"
        }
      ],
      "stateMutability": "view",
      "type": "function"
    },
    {
      "inputs": [],
      "name": "symbol",
      "outputs": [
        {
          "internalType": "string",
          "name": "",
          "type": "string"
        }
      ],
      "stateMutability": "view",
      "type": "function"
    },
    {
      "inputs": [],
      "name": "totalSupply",
      "outputs": [
        {
          "internalType": "uint256",
          "name": "",
          "type": "uint256"
        }
      ],
      "stateMutability": "view",
      "type": "function"
    },
    {
      "inputs": [
        {
          "internalType": "address",
          "name": "to",
          "type": "address"
        },
        {
          "internalType": "uint256",
          "name": "amount",
          "type": "uint256"
        }
      ],
      "name": "transfer",
      "outputs": [
        {
          "internalType": "bool",
          "name": "",
          "type": "bool"
        }
      ],
      "stateMutability": "nonpayable",
      "type": "function"
    },
    {
      "inputs": [
        {
          "internalType": "address",
          "name": "from",
          "type": "address"
        },
        {
          "internalType": "address",
          "name": "to",
          "type": "address"
        },
        {
          "internalType": "uint256",
          "name": "amount",
          "type": "uint256"
        }
      ],
      "name": "transferFrom",
      "outputs": [
        {
          "internalType": "bool",
          "name": "",
          "type": "bool"
        }
      ],
      "stateMutability": "nonpayable",
      "type": "function"
    },
    {
      "inputs": [
        {
          "internalType": "address",
          "name": "newOwner",
          "type": "address"
        }
      ],
      "name": "transferOwnership",
      "outputs": [],
      "stateMutability": "nonpayable",
      "type": "function"
    }
  ],
  "bytecode": "0x608060405234801561001057600080fd5b5061001a3361001f565b610098565b603480546001600160a01b031916905561004381610046602090811b6108ce17901c565b50565b603380546001600160a01b038381166001600160a01b0319831681179093556040519116919082907f8be0079c531659141344cd1fd0a4f28419497f9722a3daafe3b4186f6b6457e090600090a35050565b6114ad806100a76000396000f3fe608060405234801561001057600080fd5b50600436106101795760003560e01c8063715018a6116100d9578063a457c2d711610087578063a457c2d7146102e3578063a9059cbb146102f6578063dd62ed3e14610309578063e0563ab11461031c578063e30c397814610325578063e619870514610336578063f2fde38b1461034757600080fd5b8063715018a61461029457806379ba50971461029c5780638da5cb5b146102a4578063947287cf146102b557806395d89b41146102be57806397e5230d146102c65780639dc29fac146102d057600080fd5b8063284017f511610136578063284017f51461021e578063313ce56714610227578063395093511461023c5780633b878c221461024f57806340c10f191461025857806351351d531461026b57806370a082311461027957600080fd5b806306fdde031461017e578063095ea7b31461019c57806318160ddd146101bf5780631f2d0065146101d1578063238b4bc5146101f657806323b872dd1461020b575b600080fd5b61018661035a565b6040516101939190610fce565b60405180910390f35b6101af6101aa36600461101d565b6103ec565b6040519015158152602001610193565b6036545b604051908152602001610193565b6038546001600160a01b03165b6040516001600160a01b039091168152602001610193565b610209610204366004611090565b610406565b005b6101af61021936600461114b565b610625565b6101de61202081565b603b5460405160ff9091168152602001610193565b6101af61024a36600461101d565b610649565b6101de61101081565b6101af61026636600461101d565b61066b565b6101de6002600160a01b0381565b6101c3610287366004611187565b6001600160a01b03163190565b6102096106c0565b6102096106d4565b6033546001600160a01b03166101de565b6101c361520881565b61018661074e565b6101c3620249f081565b6101af6102de36600461101d565b61075d565b6101af6102f136600461101d565b6107a9565b6101af61030436600461101d565b610824565b6101c36103173660046111a9565b610832565b6101de61203081565b6034546001600160a01b03166101de565b6037546001600160a01b03166101de565b610209610355366004611187565b61085d565b606060398054610369906111dc565b80601f0160208091040260200160405190810160405280929190818152602001828054610395906111dc565b80156103e25780601f106103b7576101008083540402835291602001916103e2565b820191906000526020600020905b8154815290600101906020018083116103c557829003601f168201915b5050505050905090565b6000336103fa818585610920565b60019150505b92915050565b600054610100900460ff16158080156104265750600054600160ff909116105b806104405750303b158015610440575060005460ff166001145b6104a85760405162461bcd60e51b815260206004820152602e60248201527f496e697469616c697a61626c653a20636f6e747261637420697320616c72656160448201526d191e481a5b9a5d1a585b1a5e995960921b60648201526084015b60405180910390fd5b6000805460ff1916600117905580156104cb576000805461ff0019166101001790555b336002600160a01b031461050f5760405163973d02cb60e01b815260206004820152600a60248201526914d654d5115350d0531360b21b604482015260640161049f565b6001600160a01b0388166105705760405162461bcd60e51b815260206004820152602260248201527f4e617469766545524332303a20496e76616c6964206f776e6572206164647265604482015261737360f01b606482015260840161049f565b603780546001600160a01b03808c166001600160a01b03199283161790925560388054928a169290911691909117905560396105ad86888361127b565b50603a6105bb84868361127b565b50603b805460ff191660ff84161790556105d488610a44565b801561061a576000805461ff0019169055604051600181527f7f26b83ff96e1f2b6a682f133852f6798a09c465da95921460cefb38474024989060200160405180910390a15b505050505050505050565b600033610633858285610a5d565b61063e858585610ad7565b506001949350505050565b6000336103fa81858561065c8383610832565b6106669190611352565b610920565b6037546000906001600160a01b031633148061069157506033546001600160a01b031633145b6106ad5760405162461bcd60e51b815260040161049f90611365565b6106b78383610c9c565b50600192915050565b6106c8610df6565b6106d26000610a44565b565b60345433906001600160a01b031681146107425760405162461bcd60e51b815260206004820152602960248201527f4f776e61626c6532537465703a2063616c6c6572206973206e6f7420746865206044820152683732bb9037bbb732b960b91b606482015260840161049f565b61074b81610a44565b50565b6060603a8054610369906111dc565b6037546000906001600160a01b031633148061078357506033546001600160a01b031633145b61079f5760405162461bcd60e51b815260040161049f90611365565b6106b78383610e50565b600033816107b78286610832565b9050838110156108175760405162461bcd60e51b815260206004820152602560248201527f45524332303a2064656372656173656420616c6c6f77616e63652062656c6f77604482015264207a65726f60d81b606482015260840161049f565b61063e8286868403610920565b6000336103fa818585610ad7565b6001600160a01b03918216600090815260356020908152604080832093909416825291909152205490565b610865610df6565b603480546001600160a01b0383166001600160a01b031990911681179091556108966033546001600160a01b031690565b6001600160a01b03167f38d16b8cac22d99fc7c124b9cd0de2d3fa1faef420bfe791d8c362d765e2270060405160405180910390a350565b603380546001600160a01b038381166001600160a01b0319831681179093556040519116919082907f8be0079c531659141344cd1fd0a4f28419497f9722a3daafe3b4186f6b6457e090600090a35050565b6001600160a01b0383166109825760405162461bcd60e51b8152602060048201526024808201527f45524332303a20617070726f76652066726f6d20746865207a65726f206164646044820152637265737360e01b606482015260840161049f565b6001600160a01b0382166109e35760405162461bcd60e51b815260206004820152602260248201527f45524332303a20617070726f766520746f20746865207a65726f206164647265604482015261737360f01b606482015260840161049f565b6001600160a01b0383811660008181526035602090815260408083209487168084529482529182902085905590518481527f8c5be1e5ebec7d5bd14f71427d1e84f3dd0314c0f7b2291e5b200ac8c7c3b925910160405180910390a3505050565b603480546001600160a01b031916905561074b816108ce565b6000610a698484610832565b90506000198114610ad15781811015610ac45760405162461bcd60e51b815260206004820152601d60248201527f45524332303a20696e73756666696369656e7420616c6c6f77616e6365000000604482015260640161049f565b610ad18484848403610920565b50505050565b6001600160a01b038316610b3b5760405162461bcd60e51b815260206004820152602560248201527f45524332303a207472616e736665722066726f6d20746865207a65726f206164604482015264647265737360d81b606482015260840161049f565b6001600160a01b038216610b9d5760405162461bcd60e51b815260206004820152602360248201527f45524332303a207472616e7366657220746f20746865207a65726f206164647260448201526265737360e81b606482015260840161049f565b6000806120206001600160a01b0316858585604051602001610bc1939291906113b2565b60408051601f1981840301815290829052610bdb916113d6565b6000604051808303816000865af19150503d8060008114610c18576040519150601f19603f3d011682016040523d82523d6000602084013e610c1d565b606091505b5091509150818015610c3e575080806020019051810190610c3e91906113f2565b610c5a5760405162461bcd60e51b815260040161049f90611414565b836001600160a01b0316856001600160a01b031660008051602061145883398151915285604051610c8d91815260200190565b60405180910390a35050505050565b6001600160a01b038216610cf25760405162461bcd60e51b815260206004820152601f60248201527f45524332303a206d696e7420746f20746865207a65726f206164647265737300604482015260640161049f565b8060366000828254610d049190611352565b9091555050604051600090819061202090610d27908390879087906020016113b2565b60408051601f1981840301815290829052610d41916113d6565b6000604051808303816000865af19150503d8060008114610d7e576040519150601f19603f3d011682016040523d82523d6000602084013e610d83565b606091505b5091509150818015610da4575080806020019051810190610da491906113f2565b610dc05760405162461bcd60e51b815260040161049f90611414565b6040518381526001600160a01b03851690600090600080516020611458833981519152906020015b60405180910390a350505050565b6033546001600160a01b031633146106d25760405162461bcd60e51b815260206004820181905260248201527f4f776e61626c653a2063616c6c6572206973206e6f7420746865206f776e6572604482015260640161049f565b6001600160a01b038216610eb05760405162461bcd60e51b815260206004820152602160248201527f45524332303a206275726e2066726f6d20746865207a65726f206164647265736044820152607360f81b606482015260840161049f565b8060366000828254610ec29190611444565b9091555050604051600090819061202090610ee5908690849087906020016113b2565b60408051601f1981840301815290829052610eff916113d6565b6000604051808303816000865af19150503d8060008114610f3c576040519150601f19603f3d011682016040523d82523d6000602084013e610f41565b606091505b5091509150818015610f62575080806020019051810190610f6291906113f2565b610f7e5760405162461bcd60e51b815260040161049f90611414565b6040518381526000906001600160a01b0386169060008051602061145883398151915290602001610de8565b60005b83811015610fc5578181015183820152602001610fad565b50506000910152565b6020815260008251806020840152610fed816040850160208701610faa565b601f01601f19169190910160400192915050565b80356001600160a01b038116811461101857600080fd5b919050565b6000806040838503121561103057600080fd5b61103983611001565b946020939093013593505050565b60008083601f84011261105957600080fd5b50813567ffffffffffffffff81111561107157600080fd5b60208301915083602082850101111561108957600080fd5b9250929050565b60008060008060008060008060c0898b0312156110ac57600080fd5b6110b589611001565b97506110c360208a01611001565b96506110d160408a01611001565b9550606089013567ffffffffffffffff808211156110ee57600080fd5b6110fa8c838d01611047565b909750955060808b013591508082111561111357600080fd5b506111208b828c01611047565b90945092505060a089013560ff8116811461113a57600080fd5b809150509295985092959890939650565b60008060006060848603121561116057600080fd5b61116984611001565b925061117760208501611001565b9150604084013590509250925092565b60006020828403121561119957600080fd5b6111a282611001565b9392505050565b600080604083850312156111bc57600080fd5b6111c583611001565b91506111d360208401611001565b90509250929050565b600181811c908216806111f057607f821691505b60208210810361121057634e487b7160e01b600052602260045260246000fd5b50919050565b634e487b7160e01b600052604160045260246000fd5b601f82111561127657600081815260208120601f850160051c810160208610156112535750805b601f850160051c820191505b818110156112725782815560010161125f565b5050505b505050565b67ffffffffffffffff83111561129357611293611216565b6112a7836112a183546111dc565b8361122c565b6000601f8411600181146112db57600085156112c35750838201355b600019600387901b1c1916600186901b178355611335565b600083815260209020601f19861690835b8281101561130c57868501358255602094850194600190920191016112ec565b50868210156113295760001960f88860031b161c19848701351681555b505060018560011b0183555b5050505050565b634e487b7160e01b600052601160045260246000fd5b808201808211156104005761040061133c565b6020808252602d908201527f4e617469766545524332303a204f6e6c7920707265646963617465206f72206f60408201526c1ddb995c8818d85b8818d85b1b609a1b606082015260800190565b6001600160a01b039384168152919092166020820152604081019190915260600190565b600082516113e8818460208701610faa565b9190910192915050565b60006020828403121561140457600080fd5b815180151581146111a257600080fd5b60208082526016908201527514149150d3d35412531157d0d0531317d1905253115160521b604082015260600190565b818103818111156104005761040061133c56feddf252ad1be2c89b69c2b068fc378daa952ba7f163c4a11628f55a4df523b3efa26469706673582212209be318415f88ce7ef3eb3e9be7eed0fb2e93811e73c7b0d5b1fd4e46144f210d64736f6c63430008110033",
  "linkReferences": {},
  "deployedLinkReferences": {}
}