{
  "_format": "hh-sol-artifact-1",
  "contractName": "ChildERC1155Predicate",
  "sourceName": "contracts/child/ChildERC1155Predicate.sol",
  "abi": [
    {
      "inputs": [
        {
          "internalType": "string",
          "name": "only",
          "type": "string"
        }
      ],
      "name": "Unauthorized",
      "type": "error"
    },
    {
      "anonymous": false,
      "inputs": [
        {
          "indexed": false,
          "internalType": "uint8",
          "name": "version",
          "type": "uint8"
        }
      ],
      "name": "Initialized",
      "type": "event"
    },
    {
      "anonymous": false,
      "inputs": [
        {
          "indexed": true,
          "internalType": "address",
          "name": "rootToken",
          "type": "address"
        },
        {
          "indexed": true,
          "internalType": "address",
          "name": "childToken",
          "type": "address"
        },
        {
          "indexed": false,
          "internalType": "address",
          "name": "sender",
          "type": "address"
        },
        {
          "indexed": true,
          "internalType": "address",
          "name": "receiver",
          "type": "address"
        },
        {
          "indexed": false,
          "internalType": "uint256",
          "name": "tokenId",
          "type": "uint256"
        },
        {
          "indexed": false,
          "internalType": "uint256",
          "name": "amount",
          "type": "uint256"
        }
      ],
      "name": "L2ERC1155Deposit",
      "type": "event"
    },
    {
      "anonymous": false,
      "inputs": [
        {
          "indexed": true,
          "internalType": "address",
          "name": "rootToken",
          "type": "address"
        },
        {
          "indexed": true,
          "internalType": "address",
          "name": "childToken",
          "type": "address"
        },
        {
          "indexed": true,
          "internalType": "address",
          "name": "sender",
          "type": "address"
        },
        {
          "indexed": false,
          "internalType": "address[]",
          "name": "receivers",
          "type": "address[]"
        },
        {
          "indexed": false,
          "internalType": "uint256[]",
          "name": "tokenIds",
          "type": "uint256[]"
        },
        {
          "indexed": false,
          "internalType": "uint256[]",
          "name": "amounts",
          "type": "uint256[]"
        }
      ],
      "name": "L2ERC1155DepositBatch",
      "type": "event"
    },
    {
      "anonymous": false,
      "inputs": [
        {
          "indexed": true,
          "internalType": "address",
          "name": "rootToken",
          "type": "address"
        },
        {
          "indexed": true,
          "internalType": "address",
          "name": "childToken",
          "type": "address"
        },
        {
          "indexed": false,
          "internalType": "address",
          "name": "sender",
          "type": "address"
        },
        {
          "indexed": true,
          "internalType": "address",
          "name": "receiver",
          "type": "address"
        },
        {
          "indexed": false,
          "internalType": "uint256",
          "name": "tokenId",
          "type": "uint256"
        },
        {
          "indexed": false,
          "internalType": "uint256",
          "name": "amount",
          "type": "uint256"
        }
      ],
      "name": "L2ERC1155Withdraw",
      "type": "event"
    },
    {
      "anonymous": false,
      "inputs": [
        {
          "indexed": true,
          "internalType": "address",
          "name": "rootToken",
          "type": "address"
        },
        {
          "indexed": true,
          "internalType": "address",
          "name": "childToken",
          "type": "address"
        },
        {
          "indexed": true,
          "internalType": "address",
          "name": "sender",
          "type": "address"
        },
        {
          "indexed": false,
          "internalType": "address[]",
          "name": "receivers",
          "type": "address[]"
        },
        {
          "indexed": false,
          "internalType": "uint256[]",
          "name": "tokenIds",
          "type": "uint256[]"
        },
        {
          "indexed": false,
          "internalType": "uint256[]",
          "name": "amounts",
          "type": "uint256[]"
        }
      ],
      "name": "L2ERC1155WithdrawBatch",
      "type": "event"
    },
    {
      "anonymous": false,
      "inputs": [
        {
          "indexed": true,
          "internalType": "address",
          "name": "rootToken",
          "type": "address"
        },
        {
          "indexed": true,
          "internalType": "address",
          "name": "childToken",
          "type": "address"
        }
      ],
      "name": "L2TokenMapped",
      "type": "event"
    },
    {
      "inputs": [],
      "name": "DEPOSIT_BATCH_SIG",
      "outputs": [
        {
          "internalType": "bytes32",
          "name": "",
          "type": "bytes32"
        }
      ],
      "stateMutability": "view",
      "type": "function"
    },
    {
      "inputs": [],
      "name": "DEPOSIT_SIG",
      "outputs": [
        {
          "internalType": "bytes32",
          "name": "",
          "type": "bytes32"
        }
      ],
      "stateMutability": "view",
      "type": "function"
    },
    {
      "inputs": [],
      "name": "MAP_TOKEN_SIG",
      "outputs": [
        {
          "internalType": "bytes32",
          "name": "",
          "type": "bytes32"
        }
      ],
      "stateMutability": "view",
      "type": "function"
    },
    {
      "inputs": [],
      "name": "NATIVE_TOKEN_CONTRACT",
      "outputs": [
        {
          "internalType": "address",
          "name": "",
          "type": "address"
        }
      ],
      "stateMutability": "view",
      "type": "function"
    },
    {
      "inputs": [],
      "name": "NATIVE_TRANSFER_PRECOMPILE",
      "outputs": [
        {
          "internalType": "address",
          "name": "",
          "type": "address"
        }
      ],
      "stateMutability": "view",
      "type": "function"
    },
    {
      "inputs": [],
      "name": "NATIVE_TRANSFER_PRECOMPILE_GAS",
      "outputs": [
        {
          "internalType": "uint256",
          "name": "",
          "type": "uint256"
        }
      ],
      "stateMutability": "view",
      "type": "function"
    },
    {
      "inputs": [],
      "name": "SYSTEM",
      "outputs": [
        {
          "internalType": "address",
          "name": "",
          "type": "address"
        }
      ],
      "stateMutability": "view",
      "type": "function"
    },
    {
      "inputs": [],
      "name": "VALIDATOR_PKCHECK_PRECOMPILE",
      "outputs": [
        {
          "internalType": "address",
          "name": "",
          "type": "address"
        }
      ],
      "stateMutability": "view",
      "type": "function"
    },
    {
      "inputs": [],
      "name": "VALIDATOR_PKCHECK_PRECOMPILE_GAS",
      "outputs": [
        {
          "internalType": "uint256",
          "name": "",
          "type": "uint256"
        }
      ],
      "stateMutability": "view",
      "type": "function"
    },
    {
      "inputs": [],
      "name": "WITHDRAW_BATCH_SIG",
      "outputs": [
        {
          "internalType": "bytes32",
          "name": "",
          "type": "bytes32"
        }
      ],
      "stateMutability": "view",
      "type": "function"
    },
    {
      "inputs": [],
      "name": "WITHDRAW_SIG",
      "outputs": [
        {
          "internalType": "bytes32",
          "name": "",
          "type": "bytes32"
        }
      ],
      "stateMutability": "view",
      "type": "function"
    },
    {
      "inputs": [],
      "name": "childTokenTemplate",
      "outputs": [
        {
          "internalType": "address",
          "name": "",
          "type": "address"
        }
      ],
      "stateMutability": "view",
      "type": "function"
    },
    {
      "inputs": [
        {
          "internalType": "address",
          "name": "newL2StateSender",
          "type": "address"
        },
        {
          "internalType": "address",
          "name": "newStateReceiver",
          "type": "address"
        },
        {
          "internalType": "address",
          "name": "newRootERC1155Predicate",
          "type": "address"
        },
        {
          "internalType": "address",
          "name": "newChildTokenTemplate",
          "type": "address"
        }
      ],
      "name": "initialize",
      "outputs": [],
      "stateMutability": "nonpayable",
      "type": "function"
    },
    {
      "inputs": [],
      "name": "l2StateSender",
      "outputs": [
        {
          "internalType": "contract IStateSender",
          "name": "",
          "type": "address"
        }
      ],
      "stateMutability": "view",
      "type": "function"
    },
    {
      "inputs": [
        {
          "internalType": "uint256",
          "name": "",
          "type": "uint256"
        },
        {
          "internalType": "address",
          "name": "sender",
          "type": "address"
        },
        {
          "internalType": "bytes",
          "name": "data",
          "type": "bytes"
        }
      ],
      "name": "onStateReceive",
      "outputs": [],
      "stateMutability": "nonpayable",
      "type": "function"
    },
    {
      "inputs": [],
      "name": "rootERC1155Predicate",
      "outputs": [
        {
          "internalType": "address",
          "name": "",
          "type": "address"
        }
      ],
      "stateMutability": "view",
      "type": "function"
    },
    {
      "inputs": [
        {
          "internalType": "address",
          "name": "",
          "type": "address"
        }
      ],
      "name": "rootTokenToChildToken",
      "outputs": [
        {
          "internalType": "address",
          "name": "",
          "type": "address"
        }
      ],
      "stateMutability": "view",
      "type": "function"
    },
    {
      "inputs": [],
      "name": "stateReceiver",
      "outputs": [
        {
          "internalType": "address",
          "name": "",
          "type": "address"
        }
      ],
      "stateMutability": "view",
      "type": "function"
    },
    {
      "inputs": [
        {
          "internalType": "contract IChildERC1155",
          "name": "childToken",
          "type": "address"
        },
        {
          "internalType": "uint256",
          "name": "tokenId",
          "type": "uint256"
        },
        {
          "internalType": "uint256",
          "name": "amount",
          "type": "uint256"
        }
      ],
      "name": "withdraw",
      "outputs": [],
      "stateMutability": "nonpayable",
      "type": "function"
    },
    {
      "inputs": [
        {
          "internalType": "contract IChildERC1155",
          "name": "childToken",
          "type": "address"
        },
        {
          "internalType": "address[]",
          "name": "receivers",
          "type": "address[]"
        },
        {
          "internalType": "uint256[]",
          "name": "tokenIds",
          "type": "uint256[]"
        },
        {
          "internalType": "uint256[]",
          "name": "amounts",
          "type": "uint256[]"
        }
      ],
      "name": "withdrawBatch",
      "outputs": [],
      "stateMutability": "nonpayable",
      "type": "function"
    },
    {
      "inputs": [
        {
          "internalType": "contract IChildERC1155",
          "name": "childToken",
          "type": "address"
        },
        {
          "internalType": "address",
          "name": "receiver",
          "type": "address"
        },
        {
          "internalType": "uint256",
          "name": "tokenId",
          "type": "uint256"
        },
        {
          "internalType": "uint256",
          "name": "amount",
          "type": "uint256"
        }
      ],
      "name": "withdrawTo",
      "outputs": [],
      "stateMutability": "nonpayable",
      "type": "function"
    }
  ],
  "bytecode": "0x608060405234801561001057600080fd5b50611fc9806100206000396000f3fe608060405234801561001057600080fd5b50600436106101375760003560e01c8063b1768065116100b8578063d41f17711161007c578063d41f177114610298578063d7c9e3ec146102bf578063e0563ab1146102e6578063eeb49945146102ef578063f645125514610302578063f8c8765e1461032957600080fd5b8063b176806514610211578063b5c5f67214610238578063b68ad1e41461024b578063b8cd3ec01461025e578063c5ac2b1c1461027157600080fd5b806351351d53116100ff57806351351d53146101a45780637efab4f5146101b257806386937eb4146101db578063947287cf146101f057806397e5230d1461020757600080fd5b8063051eb2e21461013c57806305dc2e8f1461016c5780631bc114ba1461017f578063284017f5146101925780633b878c221461019b575b600080fd5b60355461014f906001600160a01b031681565b6040516001600160a01b0390911681526020015b60405180910390f35b60345461014f906001600160a01b031681565b60335461014f906001600160a01b031681565b61014f61202081565b61014f61101081565b61014f6002600160a01b0381565b61014f6101c0366004611574565b6037602052600090815260409020546001600160a01b031681565b6101ee6101e93660046115e3565b61033c565b005b6101f961520881565b604051908152602001610163565b6101f9620249f081565b6101f97f7a8dc26796a1e50e6e190b70259f58f6a4edd5b22280ceecc82b687b8e98286981565b6101ee61024636600461168f565b610354565b60365461014f906001600160a01b031681565b6101ee61026c3660046116c4565b610365565b6101f97faf50c8eab81226bc79eee3a10e3fe25db1a2be7241130e392b0675df839b6d1881565b6101f97f87a7811f4bfedea3d341ad165680ae306b01aaeacc205d227629cf157dd9f82181565b6101f97f5fb452c5a8f2b7c7ef2984e2f1063c7ee9b80b110cdc98ccb98f6654e10b5ed281565b61014f61203081565b6101ee6102fd36600461170a565b610377565b6101f97f2cef46a936bdc5b7e6e8c71aa04560c41cf7d88bb26901a7e7f4936ff02accad81565b6101ee610337366004611792565b610597565b61034b878787878787876107d8565b50505050505050565b61036083338484610aeb565b505050565b61037184848484610aeb565b50505050565b6034546001600160a01b031633146103e95760405162461bcd60e51b815260206004820152602a60248201527f4368696c64455243313135355072656469636174653a204f4e4c595f5354415460448201526922afa922a1a2a4ab22a960b11b60648201526084015b60405180910390fd5b6035546001600160a01b038481169116146104595760405162461bcd60e51b815260206004820152602a60248201527f4368696c64455243313135355072656469636174653a204f4e4c595f524f4f546044820152695f50524544494341544560b01b60648201526084016103e0565b7f87a7811f4bfedea3d341ad165680ae306b01aaeacc205d227629cf157dd9f8216104886020600084866117ee565b61049191611818565b036104b0576104ab6104a682602081866117ee565b610e00565b610371565b7faf50c8eab81226bc79eee3a10e3fe25db1a2be7241130e392b0675df839b6d186104df6020600084866117ee565b6104e891611818565b036104f7576104ab8282611060565b7f2cef46a936bdc5b7e6e8c71aa04560c41cf7d88bb26901a7e7f4936ff02accad6105266020600084866117ee565b61052f91611818565b0361053e576104ab82826112c2565b60405162461bcd60e51b815260206004820152602860248201527f4368696c64455243313135355072656469636174653a20494e56414c49445f5360448201526749474e415455524560c01b60648201526084016103e0565b336002600160a01b03146105db5760405163973d02cb60e01b815260206004820152600a60248201526914d654d5115350d0531360b21b60448201526064016103e0565b600054610100900460ff16158080156105fb5750600054600160ff909116105b806106155750303b158015610615575060005460ff166001145b6106785760405162461bcd60e51b815260206004820152602e60248201527f496e697469616c697a61626c653a20636f6e747261637420697320616c72656160448201526d191e481a5b9a5d1a585b1a5e995960921b60648201526084016103e0565b6000805460ff19166001179055801561069b576000805461ff0019166101001790555b6001600160a01b038516158015906106bb57506001600160a01b03841615155b80156106cf57506001600160a01b03831615155b80156106e357506001600160a01b03821615155b6107415760405162461bcd60e51b815260206004820152602960248201527f4368696c64455243313135355072656469636174653a204241445f494e49544960448201526820a624ad20aa24a7a760b91b60648201526084016103e0565b603380546001600160a01b038088166001600160a01b0319928316179092556034805487841690831617905560358054868416908316179055603680549285169290911691909117905580156107d1576000805461ff0019169055604051600181527f7f26b83ff96e1f2b6a682f133852f6798a09c465da95921460cefb38474024989060200160405180910390a15b5050505050565b866107e281611430565b6107fe5760405162461bcd60e51b81526004016103e090611836565b6000886001600160a01b0316631f2d00656040518163ffffffff1660e01b8152600401602060405180830381865afa15801561083e573d6000803e3d6000fd5b505050506040513d601f19601f820116820180604052508101906108629190611879565b6001600160a01b038181166000908152603760205260409020549192508a81169116146108a15760405162461bcd60e51b81526004016103e090611896565b6001600160a01b0381166108b7576108b76118db565b306001600160a01b0316896001600160a01b031663e61987056040518163ffffffff1660e01b8152600401602060405180830381865afa1580156108ff573d6000803e3d6000fd5b505050506040513d601f19601f820116820180604052508101906109239190611879565b6001600160a01b031614610939576109396118db565b604051631ac8311560e21b81526001600160a01b038a1690636b20c4549061096d9033908a908a908a908a90600401611923565b6020604051808303816000875af115801561098c573d6000803e3d6000fd5b505050506040513d601f19601f820116820180604052508101906109b09190611967565b6109cc5760405162461bcd60e51b81526004016103e090611989565b6033546035546040516001600160a01b03928316926316f19831921690610a23907f5fb452c5a8f2b7c7ef2984e2f1063c7ee9b80b110cdc98ccb98f6654e10b5ed290869033908f908f908f908f90602001611a14565b6040516020818303038152906040526040518363ffffffff1660e01b8152600401610a4f929190611aae565b600060405180830381600087803b158015610a6957600080fd5b505af1158015610a7d573d6000803e3d6000fd5b50505050336001600160a01b0316896001600160a01b0316826001600160a01b03167f7a10660242ca367951ff3777cdb3c2a761e3ccad204bac118501e24693f3683d8b8b8b8b8b8b604051610ad896959493929190611ada565b60405180910390a4505050505050505050565b83610af581611430565b610b115760405162461bcd60e51b81526004016103e090611836565b6000856001600160a01b0316631f2d00656040518163ffffffff1660e01b8152600401602060405180830381865afa158015610b51573d6000803e3d6000fd5b505050506040513d601f19601f82011682018060405250810190610b759190611879565b6001600160a01b03818116600090815260376020526040902054919250878116911614610bb45760405162461bcd60e51b81526004016103e090611896565b6001600160a01b038116610bca57610bca6118db565b306001600160a01b0316866001600160a01b031663e61987056040518163ffffffff1660e01b8152600401602060405180830381865afa158015610c12573d6000803e3d6000fd5b505050506040513d601f19601f82011682018060405250810190610c369190611879565b6001600160a01b031614610c4c57610c4c6118db565b604051637a94c56560e11b81526001600160a01b0387169063f5298aca90610c7c90339088908890600401611b23565b6020604051808303816000875af1158015610c9b573d6000803e3d6000fd5b505050506040513d601f19601f82011682018060405250810190610cbf9190611967565b610cdb5760405162461bcd60e51b81526004016103e090611989565b603354603554604080517f7a8dc26796a1e50e6e190b70259f58f6a4edd5b22280ceecc82b687b8e98286960208201526001600160a01b0385811682840152336060830152898116608083015260a0820189905260c08083018990528351808403909101815260e08301938490526316f1983160e01b909352938416936316f1983193610d6d9391169160e401611aae565b600060405180830381600087803b158015610d8757600080fd5b505af1158015610d9b573d6000803e3d6000fd5b50505050846001600160a01b0316866001600160a01b0316826001600160a01b03167f2ca9093e8b5356801039806c6a08003e5b7013fb8ae48f720fc90fc1c1a8bec2338888604051610df093929190611b23565b60405180910390a4505050505050565b600080808080610e1286880188611b44565b6001600160a01b03808616600090815260376020526040902054959a50939850919650945092501680610e575760405162461bcd60e51b81526004016103e090611896565b610e6081611430565b506000816001600160a01b0316631f2d00656040518163ffffffff1660e01b8152600401602060405180830381865afa158015610ea1573d6000803e3d6000fd5b505050506040513d601f19601f82011682018060405250810190610ec59190611879565b9050866001600160a01b0316816001600160a01b031614610ee857610ee86118db565b6001600160a01b038116610efe57610efe6118db565b306001600160a01b0316826001600160a01b031663e61987056040518163ffffffff1660e01b8152600401602060405180830381865afa158015610f46573d6000803e3d6000fd5b505050506040513d601f19601f82011682018060405250810190610f6a9190611879565b6001600160a01b031614610f8057610f806118db565b604051630ab714fb60e11b81526001600160a01b0383169063156e29f690610fb090889088908890600401611b23565b6020604051808303816000875af1158015610fcf573d6000803e3d6000fd5b505050506040513d601f19601f82011682018060405250810190610ff39190611967565b61100f5760405162461bcd60e51b81526004016103e090611b9f565b846001600160a01b0316826001600160a01b0316886001600160a01b03167f2930d932c1cccd6add2e0e2d706ede9015db8a194405f2a3e1783703515e104f898888604051610ad893929190611b23565b60008080808061107286880188611cb5565b6001600160a01b03808616600090815260376020526040902054959b5093995091975095509350169050806110b95760405162461bcd60e51b81526004016103e090611896565b6110c281611430565b506000816001600160a01b0316631f2d00656040518163ffffffff1660e01b8152600401602060405180830381865afa158015611103573d6000803e3d6000fd5b505050506040513d601f19601f820116820180604052508101906111279190611879565b9050866001600160a01b0316816001600160a01b03161461114a5761114a6118db565b6001600160a01b038116611160576111606118db565b306001600160a01b0316826001600160a01b031663e61987056040518163ffffffff1660e01b8152600401602060405180830381865afa1580156111a8573d6000803e3d6000fd5b505050506040513d601f19601f820116820180604052508101906111cc9190611879565b6001600160a01b0316146111e2576111e26118db565b604051635712868360e01b81526001600160a01b0383169063571286839061121290889088908890600401611dfa565b6020604051808303816000875af1158015611231573d6000803e3d6000fd5b505050506040513d601f19601f820116820180604052508101906112559190611967565b6112715760405162461bcd60e51b81526004016103e090611b9f565b856001600160a01b0316826001600160a01b0316886001600160a01b03167f17304b99f8dfa5a2b8dd5695d82f9947c2abfbc9cb64bab610b9a1a0feadb9a0888888604051610ad893929190611dfa565b600080806112d284860186611ede565b91955093509150506001600160a01b0383166112f0576112f06118db565b6001600160a01b038381166000908152603760205260409020541615611318576113186118db565b6036546040516bffffffffffffffffffffffff19606086901b166020820152600091611368916001600160a01b0390911690603401604051602081830303815290604052805190602001206114c5565b6001600160a01b038581166000908152603760205260409081902080546001600160a01b031916928416928317905551639065714760e01b8152919250906390657147906113be90879087908790600401611f5d565b600060405180830381600087803b1580156113d857600080fd5b505af11580156113ec573d6000803e3d6000fd5b50506040516001600160a01b038085169350871691507f46bd56f98e1b14fd35691959270a6e1edf7cb8fcd489e0f9dda89e46c0d1ff0d90600090a3505050505050565b6000816001600160a01b03163b60000361144c57506000919050565b6040516301ffc9a760e01b8152636cdb3d1360e11b60048201526001600160a01b038316906301ffc9a790602401602060405180830381865afa9250505080156114b3575060408051601f3d908101601f191682019092526114b091810190611967565b60015b6114bf57506000919050565b92915050565b6000763d602d80600a3d3981f3363d3d373d3d3d363d730000008360601b60e81c176000526e5af43d82803e903d91602b57fd5bf38360781b1760205281603760096000f590506001600160a01b0381166114bf5760405162461bcd60e51b8152602060048201526017602482015276115490cc4c4d8dce8818dc99585d194c8819985a5b1959604a1b60448201526064016103e0565b6001600160a01b038116811461157157600080fd5b50565b60006020828403121561158657600080fd5b81356115918161155c565b9392505050565b60008083601f8401126115aa57600080fd5b5081356001600160401b038111156115c157600080fd5b6020830191508360208260051b85010111156115dc57600080fd5b9250929050565b60008060008060008060006080888a0312156115fe57600080fd5b87356116098161155c565b965060208801356001600160401b038082111561162557600080fd5b6116318b838c01611598565b909850965060408a013591508082111561164a57600080fd5b6116568b838c01611598565b909650945060608a013591508082111561166f57600080fd5b5061167c8a828b01611598565b989b979a50959850939692959293505050565b6000806000606084860312156116a457600080fd5b83356116af8161155c565b95602085013595506040909401359392505050565b600080600080608085870312156116da57600080fd5b84356116e58161155c565b935060208501356116f58161155c565b93969395505050506040820135916060013590565b6000806000806060858703121561172057600080fd5b8435935060208501356117328161155c565b925060408501356001600160401b038082111561174e57600080fd5b818701915087601f83011261176257600080fd5b81358181111561177157600080fd5b88602082850101111561178357600080fd5b95989497505060200194505050565b600080600080608085870312156117a857600080fd5b84356117b38161155c565b935060208501356117c38161155c565b925060408501356117d38161155c565b915060608501356117e38161155c565b939692955090935050565b600080858511156117fe57600080fd5b8386111561180b57600080fd5b5050820193919092039150565b803560208310156114bf57600019602084900360031b1b1692915050565b60208082526023908201527f4368696c64455243313135355072656469636174653a204e4f545f434f4e54526040820152621050d560ea1b606082015260800190565b60006020828403121561188b57600080fd5b81516115918161155c565b60208082526025908201527f4368696c64455243313135355072656469636174653a20554e4d41505045445f6040820152642a27a5a2a760d91b606082015260800190565b634e487b7160e01b600052600160045260246000fd5b81835260006001600160fb1b0383111561190a57600080fd5b8260051b80836020870137939093016020019392505050565b6001600160a01b038616815260606020820181905260009061194890830186886118f1565b828103604084015261195b8185876118f1565b98975050505050505050565b60006020828403121561197957600080fd5b8151801515811461159157600080fd5b60208082526022908201527f4368696c64455243313135355072656469636174653a204255524e5f4641494c604082015261115160f21b606082015260800190565b8183526000602080850194508260005b85811015611a095781356119ee8161155c565b6001600160a01b0316875295820195908201906001016119db565b509495945050505050565b8781526001600160a01b0387811660208301528616604082015260a060608201819052600090611a4790830186886119cb565b8281036080840152611a5a8185876118f1565b9a9950505050505050505050565b6000815180845260005b81811015611a8e57602081850181015186830182015201611a72565b506000602082860101526020601f19601f83011685010191505092915050565b6001600160a01b0383168152604060208201819052600090611ad290830184611a68565b949350505050565b606081526000611aee60608301888a6119cb565b8281036020840152611b018187896118f1565b90508281036040840152611b168185876118f1565b9998505050505050505050565b6001600160a01b039390931683526020830191909152604082015260600190565b600080600080600060a08688031215611b5c57600080fd5b8535611b678161155c565b94506020860135611b778161155c565b93506040860135611b878161155c565b94979396509394606081013594506080013592915050565b60208082526022908201527f4368696c64455243313135355072656469636174653a204d494e545f4641494c604082015261115160f21b606082015260800190565b634e487b7160e01b600052604160045260246000fd5b604051601f8201601f191681016001600160401b0381118282101715611c1f57611c1f611be1565b604052919050565b60006001600160401b03821115611c4057611c40611be1565b5060051b60200190565b600082601f830112611c5b57600080fd5b81356020611c70611c6b83611c27565b611bf7565b82815260059290921b84018101918181019086841115611c8f57600080fd5b8286015b84811015611caa5780358352918301918301611c93565b509695505050505050565b60008060008060008060c08789031215611cce57600080fd5b86359550602080880135611ce18161155c565b95506040880135611cf18161155c565b945060608801356001600160401b0380821115611d0d57600080fd5b818a0191508a601f830112611d2157600080fd5b8135611d2f611c6b82611c27565b81815260059190911b8301840190848101908d831115611d4e57600080fd5b938501935b82851015611d75578435611d668161155c565b82529385019390850190611d53565b9750505060808a0135925080831115611d8d57600080fd5b611d998b848c01611c4a565b945060a08a0135925080831115611daf57600080fd5b5050611dbd89828a01611c4a565b9150509295509295509295565b600081518084526020808501945080840160005b83811015611a0957815187529582019590820190600101611dde565b606080825284519082018190526000906020906080840190828801845b82811015611e3c5781516001600160a01b031684529284019290840190600101611e17565b50505083810382850152611e508187611dca565b9150508281036040840152611e658185611dca565b9695505050505050565b600082601f830112611e8057600080fd5b81356001600160401b03811115611e9957611e99611be1565b611eac601f8201601f1916602001611bf7565b818152846020838601011115611ec157600080fd5b816020850160208301376000918101602001919091529392505050565b60008060008060808587031215611ef457600080fd5b843593506020850135611f068161155c565b925060408501356001600160401b0380821115611f2257600080fd5b611f2e88838901611e6f565b93506060870135915080821115611f4457600080fd5b50611f5187828801611e6f565b91505092959194509250565b6001600160a01b0384168152606060208201819052600090611f8190830185611a68565b8281036040840152611e658185611a6856fea26469706673582212201ed89c216eb47fcbbc51cfdbe2b73978014571416bcaced7c409df960042759664736f6c63430008110033",
  "linkReferences": {},
  "deployedLinkReferences": {}
}