{
  "_format": "hh-sol-artifact-1",
  "contractName": "NativeERC20",
  "sourceName": "contracts/child/NativeERC20.sol",
  "abi": [
    {
      "inputs": [
        {
          "internalType": "string",
          "name": "only",
          "type": "string"
        }
      ],
      "name": "Unauthorized",
      "type": "error"
    },
    {
      "anonymous": false,
      "inputs": [
        {
          "indexed": true,
          "internalType": "address",
          "name": "owner",
          "type": "address"
        },
        {
          "indexed": true,
          "internalType": "address",
          "name": "spender",
          "type": "address"
        },
        {
          "indexed": false,
          "internalType": "uint256",
          "name": "value",
          "type": "uint256"
        }
      ],
      "name": "Approval",
      "type": "event"
    },
    {
      "anonymous": false,
      "inputs": [
        {
          "indexed": false,
          "internalType": "uint8",
          "name": "version",
          "type": "uint8"
        }
      ],
      "name": "Initialized",
      "type": "event"
    },
    {
      "anonymous": false,
      "inputs": [
        {
          "indexed": true,
          "internalType": "address",
          "name": "from",
          "type": "address"
        },
        {
          "indexed": true,
          "internalType": "address",
          "name": "to",
          "type": "address"
        },
        {
          "indexed": false,
          "internalType": "uint256",
          "name": "value",
          "type": "uint256"
        }
      ],
      "name": "Transfer",
      "type": "event"
    },
    {
      "inputs": [],
      "name": "NATIVE_TOKEN_CONTRACT",
      "outputs": [
        {
          "internalType": "address",
          "name": "",
          "type": "address"
        }
      ],
      "stateMutability": "view",
      "type": "function"
    },
    {
      "inputs": [],
      "name": "NATIVE_TRANSFER_PRECOMPILE",
      "outputs": [
        {
          "internalType": "address",
          "name": "",
          "type": "address"
        }
      ],
      "stateMutability": "view",
      "type": "function"
    },
    {
      "inputs": [],
      "name": "NATIVE_TRANSFER_PRECOMPILE_GAS",
      "outputs": [
        {
          "internalType": "uint256",
          "name": "",
          "type": "uint256"
        }
      ],
      "stateMutability": "view",
      "type": "function"
    },
    {
      "inputs": [],
      "name": "SYSTEM",
      "outputs": [
        {
          "internalType": "address",
          "name": "",
          "type": "address"
        }
      ],
      "stateMutability": "view",
      "type": "function"
    },
    {
      "inputs": [],
      "name": "VALIDATOR_PKCHECK_PRECOMPILE",
      "outputs": [
        {
          "internalType": "address",
          "name": "",
          "type": "address"
        }
      ],
      "stateMutability": "view",
      "type": "function"
    },
    {
      "inputs": [],
      "name": "VALIDATOR_PKCHECK_PRECOMPILE_GAS",
      "outputs": [
        {
          "internalType": "uint256",
          "name": "",
          "type": "uint256"
        }
      ],
      "stateMutability": "view",
      "type": "function"
    },
    {
      "inputs": [
        {
          "internalType": "address",
          "name": "owner",
          "type": "address"
        },
        {
          "internalType": "address",
          "name": "spender",
          "type": "address"
        }
      ],
      "name": "allowance",
      "outputs": [
        {
          "internalType": "uint256",
          "name": "",
          "type": "uint256"
        }
      ],
      "stateMutability": "view",
      "type": "function"
    },
    {
      "inputs": [
        {
          "internalType": "address",
          "name": "spender",
          "type": "address"
        },
        {
          "internalType": "uint256",
          "name": "amount",
          "type": "uint256"
        }
      ],
      "name": "approve",
      "outputs": [
        {
          "internalType": "bool",
          "name": "",
          "type": "bool"
        }
      ],
      "stateMutability": "nonpayable",
      "type": "function"
    },
    {
      "inputs": [
        {
          "internalType": "address",
          "name": "account",
          "type": "address"
        }
      ],
      "name": "balanceOf",
      "outputs": [
        {
          "internalType": "uint256",
          "name": "",
          "type": "uint256"
        }
      ],
      "stateMutability": "view",
      "type": "function"
    },
    {
      "inputs": [
        {
          "internalType": "address",
          "name": "account",
          "type": "address"
        },
        {
          "internalType": "uint256",
          "name": "amount",
          "type": "uint256"
        }
      ],
      "name": "burn",
      "outputs": [
        {
          "internalType": "bool",
          "name": "",
          "type": "bool"
        }
      ],
      "stateMutability": "nonpayable",
      "type": "function"
    },
    {
      "inputs": [],
      "name": "decimals",
      "outputs": [
        {
          "internalType": "uint8",
          "name": "",
          "type": "uint8"
        }
      ],
      "stateMutability": "view",
      "type": "function"
    },
    {
      "inputs": [
        {
          "internalType": "address",
          "name": "spender",
          "type": "address"
        },
        {
          "internalType": "uint256",
          "name": "subtractedValue",
          "type": "uint256"
        }
      ],
      "name": "decreaseAllowance",
      "outputs": [
        {
          "internalType": "bool",
          "name": "",
          "type": "bool"
        }
      ],
      "stateMutability": "nonpayable",
      "type": "function"
    },
    {
      "inputs": [
        {
          "internalType": "address",
          "name": "spender",
          "type": "address"
        },
        {
          "internalType": "uint256",
          "name": "addedValue",
          "type": "uint256"
        }
      ],
      "name": "increaseAllowance",
      "outputs": [
        {
          "internalType": "bool",
          "name": "",
          "type": "bool"
        }
      ],
      "stateMutability": "nonpayable",
      "type": "function"
    },
    {
      "inputs": [
        {
          "internalType": "address",
          "name": "predicate_",
          "type": "address"
        },
        {
          "internalType": "address",
          "name": "rootToken_",
          "type": "address"
        },
        {
          "internalType": "string",
          "name": "name_",
          "type": "string"
        },
        {
          "internalType": "string",
          "name": "symbol_",
          "type": "string"
        },
        {
          "internalType": "uint8",
          "name": "decimals_",
          "type": "uint8"
        }
      ],
      "name": "initialize",
      "outputs": [],
      "stateMutability": "nonpayable",
      "type": "function"
    },
    {
      "inputs": [
        {
          "internalType": "address",
          "name": "account",
          "type": "address"
        },
        {
          "internalType": "uint256",
          "name": "amount",
          "type": "uint256"
        }
      ],
      "name": "mint",
      "outputs": [
        {
          "internalType": "bool",
          "name": "",
          "type": "bool"
        }
      ],
      "stateMutability": "nonpayable",
      "type": "function"
    },
    {
      "inputs": [],
      "name": "name",
      "outputs": [
        {
          "internalType": "string",
          "name": "",
          "type": "string"
        }
      ],
      "stateMutability": "view",
      "type": "function"
    },
    {
      "inputs": [],
      "name": "predicate",
      "outputs": [
        {
          "internalType": "address",
          "name": "",
          "type": "address"
        }
      ],
      "stateMutability": "view",
      "type": "function"
    },
    {
      "inputs": [],
      "name": "rootToken",
      "outputs": [
        {
          "internalType": "address",
          "name": "",
          "type": "address"
        }
      ],
      "stateMutability": "view",
      "type": "function"
    },
    {
      "inputs": [],
      "name": "symbol",
      "outputs": [
        {
          "internalType": "string",
          "name": "",
          "type": "string"
        }
      ],
      "stateMutability": "view",
      "type": "function"
    },
    {
      "inputs": [],
      "name": "totalSupply",
      "outputs": [
        {
          "internalType": "uint256",
          "name": "",
          "type": "uint256"
        }
      ],
      "stateMutability": "view",
      "type": "function"
    },
    {
      "inputs": [
        {
          "internalType": "address",
          "name": "to",
          "type": "address"
        },
        {
          "internalType": "uint256",
          "name": "amount",
          "type": "uint256"
        }
      ],
      "name": "transfer",
      "outputs": [
        {
          "internalType": "bool",
          "name": "",
          "type": "bool"
        }
      ],
      "stateMutability": "nonpayable",
      "type": "function"
    },
    {
      "inputs": [
        {
          "internalType": "address",
          "name": "from",
          "type": "address"
        },
        {
          "internalType": "address",
          "name": "to",
          "type": "address"
        },
        {
          "internalType": "uint256",
          "name": "amount",
          "type": "uint256"
        }
      ],
      "name": "transferFrom",
      "outputs": [
        {
          "internalType": "bool",
          "name": "",
          "type": "bool"
        }
      ],
      "stateMutability": "nonpayable",
      "type": "function"
    }
  ],
  "bytecode": "0x608060405234801561001057600080fd5b506111c3806100206000396000f3fe608060405234801561001057600080fd5b50600436106101425760003560e01c806370a08231116100b85780639dc29fac1161007c5780639dc29fac14610278578063a457c2d71461028b578063a9059cbb1461029e578063dd62ed3e146102b1578063e0563ab1146102c4578063e6198705146102cd57600080fd5b806370a082311461022d5780638420ce9914610248578063947287cf1461025d57806395d89b411461026657806397e5230d1461026e57600080fd5b8063284017f51161010a578063284017f5146101d2578063313ce567146101db57806339509351146101f05780633b878c221461020357806340c10f191461020c57806351351d531461021f57600080fd5b806306fdde0314610147578063095ea7b31461016557806318160ddd146101885780631f2d00651461019a57806323b872dd146101bf575b600080fd5b61014f6102de565b60405161015c9190610cfd565b60405180910390f35b610178610173366004610d4c565b610370565b604051901515815260200161015c565b6034545b60405190815260200161015c565b6036546001600160a01b03165b6040516001600160a01b03909116815260200161015c565b6101786101cd366004610d76565b61038a565b6101a761202081565b60395460405160ff909116815260200161015c565b6101786101fe366004610d4c565b6103ae565b6101a761101081565b61017861021a366004610d4c565b6103d0565b6101a76002600160a01b0381565b61018c61023b366004610db2565b6001600160a01b03163190565b61025b610256366004610e1d565b610419565b005b61018c61520881565b61014f6105c8565b61018c620249f081565b610178610286366004610d4c565b6105d7565b610178610299366004610d4c565b61060e565b6101786102ac366004610d4c565b610689565b61018c6102bf366004610ec8565b610697565b6101a761203081565b6035546001600160a01b03166101a7565b6060603780546102ed90610efb565b80601f016020809104026020016040519081016040528092919081815260200182805461031990610efb565b80156103665780601f1061033b57610100808354040283529160200191610366565b820191906000526020600020905b81548152906001019060200180831161034957829003601f168201915b5050505050905090565b60003361037e8185856106c2565b60019150505b92915050565b6000336103988582856107e6565b6103a3858585610860565b506001949350505050565b60003361037e8185856103c18383610697565b6103cb9190610f4b565b6106c2565b6035546000906001600160a01b031633146104065760405162461bcd60e51b81526004016103fd90610f5e565b60405180910390fd5b6104108383610a25565b50600192915050565b600054610100900460ff16158080156104395750600054600160ff909116105b806104535750303b158015610453575060005460ff166001145b6104b65760405162461bcd60e51b815260206004820152602e60248201527f496e697469616c697a61626c653a20636f6e747261637420697320616c72656160448201526d191e481a5b9a5d1a585b1a5e995960921b60648201526084016103fd565b6000805460ff1916600117905580156104d9576000805461ff0019166101001790555b336002600160a01b031461051d5760405163973d02cb60e01b815260206004820152600a60248201526914d654d5115350d0531360b21b60448201526064016103fd565b603580546001600160a01b03808b166001600160a01b03199283161790925560368054928a1692909116919091179055603761055a868883611007565b506038610568848683611007565b506039805460ff191660ff841617905580156105be576000805461ff0019169055604051600181527f7f26b83ff96e1f2b6a682f133852f6798a09c465da95921460cefb38474024989060200160405180910390a15b5050505050505050565b6060603880546102ed90610efb565b6035546000906001600160a01b031633146106045760405162461bcd60e51b81526004016103fd90610f5e565b6104108383610b7f565b6000338161061c8286610697565b90508381101561067c5760405162461bcd60e51b815260206004820152602560248201527f45524332303a2064656372656173656420616c6c6f77616e63652062656c6f77604482015264207a65726f60d81b60648201526084016103fd565b6103a382868684036106c2565b60003361037e818585610860565b6001600160a01b03918216600090815260336020908152604080832093909416825291909152205490565b6001600160a01b0383166107245760405162461bcd60e51b8152602060048201526024808201527f45524332303a20617070726f76652066726f6d20746865207a65726f206164646044820152637265737360e01b60648201526084016103fd565b6001600160a01b0382166107855760405162461bcd60e51b815260206004820152602260248201527f45524332303a20617070726f766520746f20746865207a65726f206164647265604482015261737360f01b60648201526084016103fd565b6001600160a01b0383811660008181526033602090815260408083209487168084529482529182902085905590518481527f8c5be1e5ebec7d5bd14f71427d1e84f3dd0314c0f7b2291e5b200ac8c7c3b925910160405180910390a3505050565b60006107f28484610697565b9050600019811461085a578181101561084d5760405162461bcd60e51b815260206004820152601d60248201527f45524332303a20696e73756666696369656e7420616c6c6f77616e636500000060448201526064016103fd565b61085a84848484036106c2565b50505050565b6001600160a01b0383166108c45760405162461bcd60e51b815260206004820152602560248201527f45524332303a207472616e736665722066726f6d20746865207a65726f206164604482015264647265737360d81b60648201526084016103fd565b6001600160a01b0382166109265760405162461bcd60e51b815260206004820152602360248201527f45524332303a207472616e7366657220746f20746865207a65726f206164647260448201526265737360e81b60648201526084016103fd565b6000806120206001600160a01b031685858560405160200161094a939291906110c8565b60408051601f1981840301815290829052610964916110ec565b6000604051808303816000865af19150503d80600081146109a1576040519150601f19603f3d011682016040523d82523d6000602084013e6109a6565b606091505b50915091508180156109c75750808060200190518101906109c79190611108565b6109e35760405162461bcd60e51b81526004016103fd9061112a565b836001600160a01b0316856001600160a01b031660008051602061116e83398151915285604051610a1691815260200190565b60405180910390a35050505050565b6001600160a01b038216610a7b5760405162461bcd60e51b815260206004820152601f60248201527f45524332303a206d696e7420746f20746865207a65726f20616464726573730060448201526064016103fd565b8060346000828254610a8d9190610f4b565b9091555050604051600090819061202090610ab0908390879087906020016110c8565b60408051601f1981840301815290829052610aca916110ec565b6000604051808303816000865af19150503d8060008114610b07576040519150601f19603f3d011682016040523d82523d6000602084013e610b0c565b606091505b5091509150818015610b2d575080806020019051810190610b2d9190611108565b610b495760405162461bcd60e51b81526004016103fd9061112a565b6040518381526001600160a01b0385169060009060008051602061116e833981519152906020015b60405180910390a350505050565b6001600160a01b038216610bdf5760405162461bcd60e51b815260206004820152602160248201527f45524332303a206275726e2066726f6d20746865207a65726f206164647265736044820152607360f81b60648201526084016103fd565b8060346000828254610bf1919061115a565b9091555050604051600090819061202090610c14908690849087906020016110c8565b60408051601f1981840301815290829052610c2e916110ec565b6000604051808303816000865af19150503d8060008114610c6b576040519150601f19603f3d011682016040523d82523d6000602084013e610c70565b606091505b5091509150818015610c91575080806020019051810190610c919190611108565b610cad5760405162461bcd60e51b81526004016103fd9061112a565b6040518381526000906001600160a01b0386169060008051602061116e83398151915290602001610b71565b60005b83811015610cf4578181015183820152602001610cdc565b50506000910152565b6020815260008251806020840152610d1c816040850160208701610cd9565b601f01601f19169190910160400192915050565b80356001600160a01b0381168114610d4757600080fd5b919050565b60008060408385031215610d5f57600080fd5b610d6883610d30565b946020939093013593505050565b600080600060608486031215610d8b57600080fd5b610d9484610d30565b9250610da260208501610d30565b9150604084013590509250925092565b600060208284031215610dc457600080fd5b610dcd82610d30565b9392505050565b60008083601f840112610de657600080fd5b50813567ffffffffffffffff811115610dfe57600080fd5b602083019150836020828501011115610e1657600080fd5b9250929050565b600080600080600080600060a0888a031215610e3857600080fd5b610e4188610d30565b9650610e4f60208901610d30565b9550604088013567ffffffffffffffff80821115610e6c57600080fd5b610e788b838c01610dd4565b909750955060608a0135915080821115610e9157600080fd5b50610e9e8a828b01610dd4565b909450925050608088013560ff81168114610eb857600080fd5b8091505092959891949750929550565b60008060408385031215610edb57600080fd5b610ee483610d30565b9150610ef260208401610d30565b90509250929050565b600181811c90821680610f0f57607f821691505b602082108103610f2f57634e487b7160e01b600052602260045260246000fd5b50919050565b634e487b7160e01b600052601160045260246000fd5b8082018082111561038457610384610f35565b60208082526024908201527f4e617469766545524332303a204f6e6c79207072656469636174652063616e2060408201526318d85b1b60e21b606082015260800190565b634e487b7160e01b600052604160045260246000fd5b601f82111561100257600081815260208120601f850160051c81016020861015610fdf5750805b601f850160051c820191505b81811015610ffe57828155600101610feb565b5050505b505050565b67ffffffffffffffff83111561101f5761101f610fa2565b6110338361102d8354610efb565b83610fb8565b6000601f841160018114611067576000851561104f5750838201355b600019600387901b1c1916600186901b1783556110c1565b600083815260209020601f19861690835b828110156110985786850135825560209485019460019092019101611078565b50868210156110b55760001960f88860031b161c19848701351681555b505060018560011b0183555b5050505050565b6001600160a01b039384168152919092166020820152604081019190915260600190565b600082516110fe818460208701610cd9565b9190910192915050565b60006020828403121561111a57600080fd5b81518015158114610dcd57600080fd5b60208082526016908201527514149150d3d35412531157d0d0531317d1905253115160521b604082015260600190565b8181038181111561038457610384610f3556feddf252ad1be2c89b69c2b068fc378daa952ba7f163c4a11628f55a4df523b3efa26469706673582212201cc2b3ea246b46198f0ff59b53d69a9ac96c47a287d6ed78414118383506ad4264736f6c63430008110033",
  "linkReferences": {},
  "deployedLinkReferences": {}
}