{
  "_format": "hh-sol-artifact-1",
  "contractName": "ChildERC20Predicate",
  "sourceName": "contracts/child/ChildERC20Predicate.sol",
  "abi": [
    {
      "inputs": [
        {
          "internalType": "string",
          "name": "only",
          "type": "string"
        }
      ],
      "name": "Unauthorized",
      "type": "error"
    },
    {
      "anonymous": false,
      "inputs": [
        {
          "indexed": false,
          "internalType": "uint8",
          "name": "version",
          "type": "uint8"
        }
      ],
      "name": "Initialized",
      "type": "event"
    },
    {
      "anonymous": false,
      "inputs": [
        {
          "indexed": true,
          "internalType": "address",
          "name": "rootToken",
          "type": "address"
        },
        {
          "indexed": true,
          "internalType": "address",
          "name": "childToken",
          "type": "address"
        },
        {
          "indexed": false,
          "internalType": "address",
          "name": "sender",
          "type": "address"
        },
        {
          "indexed": true,
          "internalType": "address",
          "name": "receiver",
          "type": "address"
        },
        {
          "indexed": false,
          "internalType": "uint256",
          "name": "amount",
          "type": "uint256"
        }
      ],
      "name": "L2ERC20Deposit",
      "type": "event"
    },
    {
      "anonymous": false,
      "inputs": [
        {
          "indexed": true,
          "internalType": "address",
          "name": "rootToken",
          "type": "address"
        },
        {
          "indexed": true,
          "internalType": "address",
          "name": "childToken",
          "type": "address"
        },
        {
          "indexed": false,
          "internalType": "address",
          "name": "sender",
          "type": "address"
        },
        {
          "indexed": true,
          "internalType": "address",
          "name": "receiver",
          "type": "address"
        },
        {
          "indexed": false,
          "internalType": "uint256",
          "name": "amount",
          "type": "uint256"
        }
      ],
      "name": "L2ERC20Withdraw",
      "type": "event"
    },
    {
      "anonymous": false,
      "inputs": [
        {
          "indexed": true,
          "internalType": "address",
          "name": "rootToken",
          "type": "address"
        },
        {
          "indexed": true,
          "internalType": "address",
          "name": "childToken",
          "type": "address"
        }
      ],
      "name": "L2TokenMapped",
      "type": "event"
    },
    {
      "inputs": [],
      "name": "DEPOSIT_SIG",
      "outputs": [
        {
          "internalType": "bytes32",
          "name": "",
          "type": "bytes32"
        }
      ],
      "stateMutability": "view",
      "type": "function"
    },
    {
      "inputs": [],
      "name": "MAP_TOKEN_SIG",
      "outputs": [
        {
          "internalType": "bytes32",
          "name": "",
          "type": "bytes32"
        }
      ],
      "stateMutability": "view",
      "type": "function"
    },
    {
      "inputs": [],
      "name": "NATIVE_TOKEN_CONTRACT",
      "outputs": [
        {
          "internalType": "address",
          "name": "",
          "type": "address"
        }
      ],
      "stateMutability": "view",
      "type": "function"
    },
    {
      "inputs": [],
      "name": "NATIVE_TRANSFER_PRECOMPILE",
      "outputs": [
        {
          "internalType": "address",
          "name": "",
          "type": "address"
        }
      ],
      "stateMutability": "view",
      "type": "function"
    },
    {
      "inputs": [],
      "name": "NATIVE_TRANSFER_PRECOMPILE_GAS",
      "outputs": [
        {
          "internalType": "uint256",
          "name": "",
          "type": "uint256"
        }
      ],
      "stateMutability": "view",
      "type": "function"
    },
    {
      "inputs": [],
      "name": "SYSTEM",
      "outputs": [
        {
          "internalType": "address",
          "name": "",
          "type": "address"
        }
      ],
      "stateMutability": "view",
      "type": "function"
    },
    {
      "inputs": [],
      "name": "VALIDATOR_PKCHECK_PRECOMPILE",
      "outputs": [
        {
          "internalType": "address",
          "name": "",
          "type": "address"
        }
      ],
      "stateMutability": "view",
      "type": "function"
    },
    {
      "inputs": [],
      "name": "VALIDATOR_PKCHECK_PRECOMPILE_GAS",
      "outputs": [
        {
          "internalType": "uint256",
          "name": "",
          "type": "uint256"
        }
      ],
      "stateMutability": "view",
      "type": "function"
    },
    {
      "inputs": [],
      "name": "WITHDRAW_SIG",
      "outputs": [
        {
          "internalType": "bytes32",
          "name": "",
          "type": "bytes32"
        }
      ],
      "stateMutability": "view",
      "type": "function"
    },
    {
      "inputs": [],
      "name": "childTokenTemplate",
      "outputs": [
        {
          "internalType": "address",
          "name": "",
          "type": "address"
        }
      ],
      "stateMutability": "view",
      "type": "function"
    },
    {
      "inputs": [
        {
          "internalType": "address",
          "name": "newL2StateSender",
          "type": "address"
        },
        {
          "internalType": "address",
          "name": "newStateReceiver",
          "type": "address"
        },
        {
          "internalType": "address",
          "name": "newRootERC20Predicate",
          "type": "address"
        },
        {
          "internalType": "address",
          "name": "newChildTokenTemplate",
          "type": "address"
        },
        {
          "internalType": "address",
          "name": "newNativeTokenRootAddress",
          "type": "address"
        }
      ],
      "name": "initialize",
      "outputs": [],
      "stateMutability": "nonpayable",
      "type": "function"
    },
    {
      "inputs": [],
      "name": "l2StateSender",
      "outputs": [
        {
          "internalType": "contract IStateSender",
          "name": "",
          "type": "address"
        }
      ],
      "stateMutability": "view",
      "type": "function"
    },
    {
      "inputs": [
        {
          "internalType": "uint256",
          "name": "",
          "type": "uint256"
        },
        {
          "internalType": "address",
          "name": "sender",
          "type": "address"
        },
        {
          "internalType": "bytes",
          "name": "data",
          "type": "bytes"
        }
      ],
      "name": "onStateReceive",
      "outputs": [],
      "stateMutability": "nonpayable",
      "type": "function"
    },
    {
      "inputs": [],
      "name": "rootERC20Predicate",
      "outputs": [
        {
          "internalType": "address",
          "name": "",
          "type": "address"
        }
      ],
      "stateMutability": "view",
      "type": "function"
    },
    {
      "inputs": [
        {
          "internalType": "address",
          "name": "",
          "type": "address"
        }
      ],
      "name": "rootTokenToChildToken",
      "outputs": [
        {
          "internalType": "address",
          "name": "",
          "type": "address"
        }
      ],
      "stateMutability": "view",
      "type": "function"
    },
    {
      "inputs": [],
      "name": "stateReceiver",
      "outputs": [
        {
          "internalType": "address",
          "name": "",
          "type": "address"
        }
      ],
      "stateMutability": "view",
      "type": "function"
    },
    {
      "inputs": [
        {
          "internalType": "contract IChildERC20",
          "name": "childToken",
          "type": "address"
        },
        {
          "internalType": "uint256",
          "name": "amount",
          "type": "uint256"
        }
      ],
      "name": "withdraw",
      "outputs": [],
      "stateMutability": "nonpayable",
      "type": "function"
    },
    {
      "inputs": [
        {
          "internalType": "contract IChildERC20",
          "name": "childToken",
          "type": "address"
        },
        {
          "internalType": "address",
          "name": "receiver",
          "type": "address"
        },
        {
          "internalType": "uint256",
          "name": "amount",
          "type": "uint256"
        }
      ],
      "name": "withdrawTo",
      "outputs": [],
      "stateMutability": "nonpayable",
      "type": "function"
    }
  ],
  "bytecode": "0x608060405234801561001057600080fd5b50611490806100206000396000f3fe608060405234801561001057600080fd5b50600436106101165760003560e01c806397e5230d116100a2578063d41f177111610071578063d41f17711461023d578063e0563ab114610264578063eeb499451461026d578063f3fef3a314610280578063f64512551461029357600080fd5b806397e5230d146101e6578063b1768065146101f0578063b68ad1e414610217578063c3b35a7e1461022a57600080fd5b80633b878c22116100e95780633b878c221461017c57806351351d531461018557806371cf93b7146101935780637efab4f5146101a6578063947287cf146101cf57600080fd5b806305dc2e8f1461011b5780631459457a1461014b5780631bc114ba14610160578063284017f514610173575b600080fd5b60345461012e906001600160a01b031681565b6040516001600160a01b0390911681526020015b60405180910390f35b61015e610159366004610f98565b6102ba565b005b60335461012e906001600160a01b031681565b61012e61202081565b61012e61101081565b61012e6002600160a01b0381565b60355461012e906001600160a01b031681565b61012e6101b4366004611009565b6037602052600090815260409020546001600160a01b031681565b6101d861520881565b604051908152602001610142565b6101d8620249f081565b6101d87f7a8dc26796a1e50e6e190b70259f58f6a4edd5b22280ceecc82b687b8e98286981565b60365461012e906001600160a01b031681565b61015e61023836600461102d565b61055a565b6101d87f87a7811f4bfedea3d341ad165680ae306b01aaeacc205d227629cf157dd9f82181565b61012e61203081565b61015e61027b36600461106e565b61056a565b61015e61028e3660046110f7565b61073e565b6101d87f2cef46a936bdc5b7e6e8c71aa04560c41cf7d88bb26901a7e7f4936ff02accad81565b336002600160a01b03146103035760405163973d02cb60e01b815260206004820152600a60248201526914d654d5115350d0531360b21b60448201526064015b60405180910390fd5b600054610100900460ff16158080156103235750600054600160ff909116105b8061033d5750303b15801561033d575060005460ff166001145b6103a05760405162461bcd60e51b815260206004820152602e60248201527f496e697469616c697a61626c653a20636f6e747261637420697320616c72656160448201526d191e481a5b9a5d1a585b1a5e995960921b60648201526084016102fa565b6000805460ff1916600117905580156103c3576000805461ff0019166101001790555b6001600160a01b038616158015906103e357506001600160a01b03851615155b80156103f757506001600160a01b03841615155b801561040b57506001600160a01b03831615155b6104675760405162461bcd60e51b815260206004820152602760248201527f4368696c6445524332305072656469636174653a204241445f494e495449414c60448201526624ad20aa24a7a760c91b60648201526084016102fa565b603380546001600160a01b03199081166001600160a01b03898116919091179092556034805482168884161790556035805482168784161790556036805490911685831617905582161561050c576001600160a01b03821660008181526037602052604080822080546001600160a01b03191661101090811790915590519092917f46bd56f98e1b14fd35691959270a6e1edf7cb8fcd489e0f9dda89e46c0d1ff0d91a35b8015610552576000805461ff0019169055604051600181527f7f26b83ff96e1f2b6a682f133852f6798a09c465da95921460cefb38474024989060200160405180910390a15b505050505050565b61056583838361074d565b505050565b6034546001600160a01b031633146105d55760405162461bcd60e51b815260206004820152602860248201527f4368696c6445524332305072656469636174653a204f4e4c595f53544154455f6044820152672922a1a2a4ab22a960c11b60648201526084016102fa565b6035546001600160a01b038481169116146106435760405162461bcd60e51b815260206004820152602860248201527f4368696c6445524332305072656469636174653a204f4e4c595f524f4f545f50604482015267524544494341544560c01b60648201526084016102fa565b7f87a7811f4bfedea3d341ad165680ae306b01aaeacc205d227629cf157dd9f821610672602060008486611123565b61067b9161114d565b0361069a576106956106908260208186611123565b610ac3565b610738565b7f2cef46a936bdc5b7e6e8c71aa04560c41cf7d88bb26901a7e7f4936ff02accad6106c9602060008486611123565b6106d29161114d565b036106e1576106958282610d6e565b60405162461bcd60e51b815260206004820152602660248201527f4368696c6445524332305072656469636174653a20494e56414c49445f5349476044820152654e415455524560d01b60648201526084016102fa565b50505050565b61074982338361074d565b5050565b826001600160a01b03163b6000036107b15760405162461bcd60e51b815260206004820152602160248201527f4368696c6445524332305072656469636174653a204e4f545f434f4e545241436044820152601560fa1b60648201526084016102fa565b6000836001600160a01b0316631f2d00656040518163ffffffff1660e01b8152600401602060405180830381865afa1580156107f1573d6000803e3d6000fd5b505050506040513d601f19601f82011682018060405250810190610815919061116b565b6001600160a01b038181166000908152603760205260409020549192508581169116146108545760405162461bcd60e51b81526004016102fa90611188565b6001600160a01b03811661086a5761086a6111cb565b306001600160a01b0316846001600160a01b031663e61987056040518163ffffffff1660e01b8152600401602060405180830381865afa1580156108b2573d6000803e3d6000fd5b505050506040513d601f19601f820116820180604052508101906108d6919061116b565b6001600160a01b0316146108ec576108ec6111cb565b604051632770a7eb60e21b81526001600160a01b03851690639dc29fac9061091a90339086906004016111e1565b6020604051808303816000875af1158015610939573d6000803e3d6000fd5b505050506040513d601f19601f8201168201806040525081019061095d91906111fa565b6109a95760405162461bcd60e51b815260206004820181905260248201527f4368696c6445524332305072656469636174653a204255524e5f4641494c454460448201526064016102fa565b603354603554604080517f7a8dc26796a1e50e6e190b70259f58f6a4edd5b22280ceecc82b687b8e98286960208201526001600160a01b0385811682840152336060830152878116608083015260a08083018890528351808403909101815260c08301938490526316f1983160e01b909352938416936316f1983193610a349391169160c401611262565b600060405180830381600087803b158015610a4e57600080fd5b505af1158015610a62573d6000803e3d6000fd5b50505050826001600160a01b0316846001600160a01b0316826001600160a01b03167fa0923f060a16fc784558d43de424ffde7b01643de5e5d335851b9df94c76bb273386604051610ab59291906111e1565b60405180910390a450505050565b6000808080610ad48587018761128e565b6001600160a01b0380851660009081526037602052604090205494985092965090945092501680610b175760405162461bcd60e51b81526004016102fa90611188565b806001600160a01b03163b600003610b3157610b316111cb565b6000816001600160a01b0316631f2d00656040518163ffffffff1660e01b8152600401602060405180830381865afa158015610b71573d6000803e3d6000fd5b505050506040513d601f19601f82011682018060405250810190610b95919061116b565b9050856001600160a01b0316816001600160a01b031614610bb857610bb86111cb565b6001600160a01b038116610bce57610bce6111cb565b306001600160a01b0316826001600160a01b031663e61987056040518163ffffffff1660e01b8152600401602060405180830381865afa158015610c16573d6000803e3d6000fd5b505050506040513d601f19601f82011682018060405250810190610c3a919061116b565b6001600160a01b031614610c5057610c506111cb565b6040516340c10f1960e01b81526001600160a01b038316906340c10f1990610c7e90879087906004016111e1565b6020604051808303816000875af1158015610c9d573d6000803e3d6000fd5b505050506040513d601f19601f82011682018060405250810190610cc191906111fa565b610d0d5760405162461bcd60e51b815260206004820181905260248201527f4368696c6445524332305072656469636174653a204d494e545f4641494c454460448201526064016102fa565b836001600160a01b0316826001600160a01b0316876001600160a01b03167fdf34f3a3ed8bedc14a4b284ebaee5374d55b64bac6a84c270dabe8fd6b4cdafd8887604051610d5c9291906111e1565b60405180910390a45050505050505050565b6000808080610d7f85870187611382565b92975090955093509150506001600160a01b038416610da057610da06111cb565b6001600160a01b038481166000908152603760205260409020541615610dc857610dc86111cb565b6036546040516bffffffffffffffffffffffff19606087901b166020820152600091610e18916001600160a01b039091169060340160405160208183030381529060405280519060200120610ee3565b6001600160a01b038681166000908152603760205260409081902080546001600160a01b031916928416928317905551637b69774360e11b81529192509063f6d2ee8690610e7090889088908890889060040161140f565b600060405180830381600087803b158015610e8a57600080fd5b505af1158015610e9e573d6000803e3d6000fd5b50506040516001600160a01b038085169350881691507f46bd56f98e1b14fd35691959270a6e1edf7cb8fcd489e0f9dda89e46c0d1ff0d90600090a350505050505050565b6000763d602d80600a3d3981f3363d3d373d3d3d363d730000008360601b60e81c176000526e5af43d82803e903d91602b57fd5bf38360781b1760205281603760096000f590506001600160a01b038116610f7a5760405162461bcd60e51b8152602060048201526017602482015276115490cc4c4d8dce8818dc99585d194c8819985a5b1959604a1b60448201526064016102fa565b92915050565b6001600160a01b0381168114610f9557600080fd5b50565b600080600080600060a08688031215610fb057600080fd5b8535610fbb81610f80565b94506020860135610fcb81610f80565b93506040860135610fdb81610f80565b92506060860135610feb81610f80565b91506080860135610ffb81610f80565b809150509295509295909350565b60006020828403121561101b57600080fd5b813561102681610f80565b9392505050565b60008060006060848603121561104257600080fd5b833561104d81610f80565b9250602084013561105d81610f80565b929592945050506040919091013590565b6000806000806060858703121561108457600080fd5b84359350602085013561109681610f80565b9250604085013567ffffffffffffffff808211156110b357600080fd5b818701915087601f8301126110c757600080fd5b8135818111156110d657600080fd5b8860208285010111156110e857600080fd5b95989497505060200194505050565b6000806040838503121561110a57600080fd5b823561111581610f80565b946020939093013593505050565b6000808585111561113357600080fd5b8386111561114057600080fd5b5050820193919092039150565b80356020831015610f7a57600019602084900360031b1b1692915050565b60006020828403121561117d57600080fd5b815161102681610f80565b60208082526023908201527f4368696c6445524332305072656469636174653a20554e4d41505045445f544f60408201526225a2a760e91b606082015260800190565b634e487b7160e01b600052600160045260246000fd5b6001600160a01b03929092168252602082015260400190565b60006020828403121561120c57600080fd5b8151801515811461102657600080fd5b6000815180845260005b8181101561124257602081850181015186830182015201611226565b506000602082860101526020601f19601f83011685010191505092915050565b6001600160a01b03831681526040602082018190526000906112869083018461121c565b949350505050565b600080600080608085870312156112a457600080fd5b84356112af81610f80565b935060208501356112bf81610f80565b925060408501356112cf81610f80565b9396929550929360600135925050565b634e487b7160e01b600052604160045260246000fd5b600082601f83011261130657600080fd5b813567ffffffffffffffff80821115611321576113216112df565b604051601f8301601f19908116603f01168101908282118183101715611349576113496112df565b8160405283815286602085880101111561136257600080fd5b836020870160208301376000602085830101528094505050505092915050565b600080600080600060a0868803121561139a57600080fd5b8535945060208601356113ac81610f80565b9350604086013567ffffffffffffffff808211156113c957600080fd5b6113d589838a016112f5565b945060608801359150808211156113eb57600080fd5b506113f8888289016112f5565b925050608086013560ff81168114610ffb57600080fd5b6001600160a01b03851681526080602082018190526000906114339083018661121c565b8281036040840152611445818661121c565b91505060ff831660608301529594505050505056fea2646970667358221220826f58ea208b8a100d3343999582bb4813e24a5dd686101ad5da8213058bdfaf64736f6c63430008110033",
  "linkReferences": {},
  "deployedLinkReferences": {}
}