{
  "_format": "hh-sol-artifact-1",
  "contractName": "BLS",
  "sourceName": "contracts/common/BLS.sol",
  "abi": [
    {
      "inputs": [
        {
          "internalType": "bytes32",
          "name": "domain",
          "type": "bytes32"
        },
        {
          "internalType": "bytes",
          "name": "message",
          "type": "bytes"
        }
      ],
      "name": "expandMsgTo96",
      "outputs": [
        {
          "internalType": "bytes",
          "name": "",
          "type": "bytes"
        }
      ],
      "stateMutability": "pure",
      "type": "function"
    },
    {
      "inputs": [
        {
          "internalType": "bytes32",
          "name": "domain",
          "type": "bytes32"
        },
        {
          "internalType": "bytes",
          "name": "messages",
          "type": "bytes"
        }
      ],
      "name": "hashToField",
      "outputs": [
        {
          "internalType": "uint256[2]",
          "name": "",
          "type": "uint256[2]"
        }
      ],
      "stateMutability": "view",
      "type": "function"
    },
    {
      "inputs": [
        {
          "internalType": "bytes32",
          "name": "domain",
          "type": "bytes32"
        },
        {
          "internalType": "bytes",
          "name": "message",
          "type": "bytes"
        }
      ],
      "name": "hashToPoint",
      "outputs": [
        {
          "internalType": "uint256[2]",
          "name": "",
          "type": "uint256[2]"
        }
      ],
      "stateMutability": "view",
      "type": "function"
    },
    {
      "inputs": [
        {
          "internalType": "uint256[2]",
          "name": "point",
          "type": "uint256[2]"
        }
      ],
      "name": "isOnCurveG1",
      "outputs": [
        {
          "internalType": "bool",
          "name": "_isOnCurve",
          "type": "bool"
        }
      ],
      "stateMutability": "pure",
      "type": "function"
    },
    {
      "inputs": [
        {
          "internalType": "uint256[4]",
          "name": "point",
          "type": "uint256[4]"
        }
      ],
      "name": "isOnCurveG2",
      "outputs": [
        {
          "internalType": "bool",
          "name": "_isOnCurve",
          "type": "bool"
        }
      ],
      "stateMutability": "pure",
      "type": "function"
    },
    {
      "inputs": [
        {
          "internalType": "uint256[2]",
          "name": "signature",
          "type": "uint256[2]"
        }
      ],
      "name": "isValidSignature",
      "outputs": [
        {
          "internalType": "bool",
          "name": "",
          "type": "bool"
        }
      ],
      "stateMutability": "view",
      "type": "function"
    },
    {
      "inputs": [
        {
          "internalType": "uint256",
          "name": "_x",
          "type": "uint256"
        }
      ],
      "name": "mapToPoint",
      "outputs": [
        {
          "internalType": "uint256[2]",
          "name": "p",
          "type": "uint256[2]"
        }
      ],
      "stateMutability": "pure",
      "type": "function"
    },
    {
      "inputs": [
        {
          "internalType": "uint256[2]",
          "name": "signature",
          "type": "uint256[2]"
        },
        {
          "internalType": "uint256[4][]",
          "name": "pubkeys",
          "type": "uint256[4][]"
        },
        {
          "internalType": "uint256[2][]",
          "name": "messages",
          "type": "uint256[2][]"
        }
      ],
      "name": "verifyMultiple",
      "outputs": [
        {
          "internalType": "bool",
          "name": "checkResult",
          "type": "bool"
        },
        {
          "internalType": "bool",
          "name": "callSuccess",
          "type": "bool"
        }
      ],
      "stateMutability": "view",
      "type": "function"
    },
    {
      "inputs": [
        {
          "internalType": "uint256[2]",
          "name": "signature",
          "type": "uint256[2]"
        },
        {
          "internalType": "uint256[4][]",
          "name": "pubkeys",
          "type": "uint256[4][]"
        },
        {
          "internalType": "uint256[2]",
          "name": "message",
          "type": "uint256[2]"
        }
      ],
      "name": "verifyMultipleSameMsg",
      "outputs": [
        {
          "internalType": "bool",
          "name": "checkResult",
          "type": "bool"
        },
        {
          "internalType": "bool",
          "name": "callSuccess",
          "type": "bool"
        }
      ],
      "stateMutability": "view",
      "type": "function"
    },
    {
      "inputs": [
        {
          "internalType": "uint256[2]",
          "name": "signature",
          "type": "uint256[2]"
        },
        {
          "internalType": "uint256[4]",
          "name": "pubkey",
          "type": "uint256[4]"
        },
        {
          "internalType": "uint256[2]",
          "name": "message",
          "type": "uint256[2]"
        }
      ],
      "name": "verifySingle",
      "outputs": [
        {
          "internalType": "bool",
          "name": "",
          "type": "bool"
        },
        {
          "internalType": "bool",
          "name": "",
          "type": "bool"
        }
      ],
      "stateMutability": "view",
      "type": "function"
    }
  ],
  "bytecode": "0x608060405234801561001057600080fd5b50612df8806100206000396000f3fe608060405234801561001057600080fd5b506004361061009e5760003560e01c806391ec2d2b1161006657806391ec2d2b1461013b578063a850a9091461015b578063d58e77331461016e578063e242cce914610181578063ebbdac911461019457600080fd5b8063115000fe146100a3578063247dd9fb146100cb5780633e5476ce146100de5780638669026f146101085780639141376314610128575b600080fd5b6100b66100b1366004612708565b6101a7565b60405190151581526020015b60405180910390f35b6100b66100d9366004612785565b61030e565b6100f16100ec366004612841565b6103b8565b6040805192151583529015156020830152016100c2565b61011b6101163660046128ce565b61079f565b6040516100c29190612957565b6100f1610136366004612988565b6108bb565b61014e6101493660046128ce565b610d5c565b6040516100c29190612a86565b61011b6101693660046128ce565b610ff8565b61011b61017c366004612aa0565b6111d4565b6100b661018f366004612785565b6115aa565b6100f16101a2366004612ab9565b611609565b600081516020830151600080516020612d63833981519152828309600080516020612d638339815191528283098182830101600080516020612d638339815191528283840108600080516020612d638339815191528682600080516020612d6383398151915203860109935050600080516020612d638339815191528483600080516020612d63833981519152038301099150600080516020612d638339815191527f2b149d40ceb8aaae81be18991be06ac3b5b4c5e559dbefa33267e6dc24a138e584089450600080516020612d638339815191527e9713b03af0fed4cd2cafadeed8fdf4a74fa084e52d1852e4a2bd0685c315d2830893506040870151925060608701519150600080516020612d638339815191528083600080516020612d63833981519152038508600080516020612d63833981519152848608099050600080516020612d63833981519152828460011b0994149290931491909116949350505050565b8051600090600080516020612d6383398151915211158061034157506020820151600080516020612d6383398151915211155b1561034e57506000919050565b60405163e242cce960e01b8152309063e242cce990610371908590600401612957565b602060405180830381865afa15801561038e573d6000803e3d6000fd5b505050506040513d601f19601f820116820180604052508101906103b29190612b1c565b92915050565b60008083806103e25760405162461bcd60e51b81526004016103d990612b3e565b60405180910390fd5b60006103ef826001612b95565b6103fa906006612ba8565b90506000816001600160401b038111156104165761041661269a565b60405190808252806020026020018201604052801561043f578160200160208202803683370190505b50905088600060200201358160008151811061045d5761045d612b06565b602090810291909101015288600160200201358160018151811061048357610483612b06565b602002602001018181525050600080516020612d43833981519152816002815181106104b1576104b1612b06565b602002602001018181525050600080516020612d23833981519152816003815181106104df576104df612b06565b602002602001018181525050600080516020612d838339815191528160048151811061050d5761050d612b06565b602002602001018181525050600080516020612da38339815191528160058151811061053b5761053b612b06565b60200260200101818152505060005b8381101561075a57863582610560836006612ba8565b61056b906006612b95565b8151811061057b5761057b612b06565b602090810291909101015286600160200201358261059a836006612ba8565b6105a5906007612b95565b815181106105b5576105b5612b06565b6020026020010181815250508888828181106105d3576105d3612b06565b9050608002016001600481106105eb576105eb612b06565b6020020135826105fc836006612ba8565b610607906008612b95565b8151811061061757610617612b06565b60200260200101818152505088888281811061063557610635612b06565b90506080020160006004811061064d5761064d612b06565b60200201358261065e836006612ba8565b610669906009612b95565b8151811061067957610679612b06565b60200260200101818152505088888281811061069757610697612b06565b9050608002016003600481106106af576106af612b06565b6020020135826106c0836006612ba8565b6106cb90600a612b95565b815181106106db576106db612b06565b6020026020010181815250508888828181106106f9576106f9612b06565b90506080020160026004811061071157610711612b06565b602002013582610722836006612ba8565b61072d90600b612b95565b8151811061073d5761073d612b06565b60209081029190910101528061075281612bbf565b91505061054a565b50610763612640565b602081602085026020850160085afa945084610789576000809550955050505050610796565b5115159450600193505050505b94509492505050565b6107a761265e565b6040516391ec2d2b60e01b815260009030906391ec2d2b906107cf9087908790600401612bd8565b600060405180830381865afa1580156107ec573d6000803e3d6000fd5b505050506040513d6000823e601f3d908101601f191682016040526108149190810190612bf9565b9050600080600080601885016001600160c01b0381511693506030860190506001600160c01b038151169450600080516020612d6383398151915285600080516020612d63833981519152600160c01b870908604887015160608801516001600160c01b0390811697501694509250600080516020612d6383398151915290508481600160c01b860908604080518082019091529283526020830152509695505050505050565b60008084806108dc5760405162461bcd60e51b81526004016103d990612b3e565b8084146109495760405162461bcd60e51b815260206004820152603560248201527f424c533a206e756d626572206f66207075626c6963206b65797320616e64206d604482015274195cdcd859d95cc81b5d5cdd08189948195c5d585b605a1b60648201526084016103d9565b6000610956826001612b95565b610961906006612ba8565b90506000816001600160401b0381111561097d5761097d61269a565b6040519080825280602002602001820160405280156109a6578160200160208202803683370190505b5090508960006020020135816000815181106109c4576109c4612b06565b60209081029190910101528960016020020135816001815181106109ea576109ea612b06565b602002602001018181525050600080516020612d4383398151915281600281518110610a1857610a18612b06565b602002602001018181525050600080516020612d2383398151915281600381518110610a4657610a46612b06565b602002602001018181525050600080516020612d8383398151915281600481518110610a7457610a74612b06565b602002602001018181525050600080516020612da383398151915281600581518110610aa257610aa2612b06565b60200260200101818152505060005b83811015610d1657878782818110610acb57610acb612b06565b905060400201600060028110610ae357610ae3612b06565b602002013582610af4836006612ba8565b610aff906006612b95565b81518110610b0f57610b0f612b06565b602002602001018181525050878782818110610b2d57610b2d612b06565b905060400201600160028110610b4557610b45612b06565b602002013582610b56836006612ba8565b610b61906007612b95565b81518110610b7157610b71612b06565b602002602001018181525050898982818110610b8f57610b8f612b06565b905060800201600160048110610ba757610ba7612b06565b602002013582610bb8836006612ba8565b610bc3906008612b95565b81518110610bd357610bd3612b06565b602002602001018181525050898982818110610bf157610bf1612b06565b905060800201600060048110610c0957610c09612b06565b602002013582610c1a836006612ba8565b610c25906009612b95565b81518110610c3557610c35612b06565b602002602001018181525050898982818110610c5357610c53612b06565b905060800201600360048110610c6b57610c6b612b06565b602002013582610c7c836006612ba8565b610c8790600a612b95565b81518110610c9757610c97612b06565b602002602001018181525050898982818110610cb557610cb5612b06565b905060800201600260048110610ccd57610ccd612b06565b602002013582610cde836006612ba8565b610ce990600b612b95565b81518110610cf957610cf9612b06565b602090810291909101015280610d0e81612bbf565b915050610ab1565b50610d1f612640565b602081602085026020850160085afa945084610d45576000809550955050505050610d52565b5115159450600193505050505b9550959350505050565b80516060906000610d6e826020612b95565b610d79906040612b95565b610d84906004612b95565b6001600160401b03811115610d9b57610d9b61269a565b6040519080825280601f01601f191660200182016040528015610dc5576020820181803683370190505b5060408051606080825260808201909252919250600091906020820181803683370190505090506060820160005b84811015610e0d5760208188018101518383015201610df3565b5083016000815360010160608153600101600081536001810187905260210160208153506000600283604051610e439190612c6f565b602060405180830381855afa158015610e60573d6000803e3d6000fd5b5050506040513d601f19601f82011682018060405250810190610e839190612c8b565b9050600060429450848452816020850152600160408501536041840188905260206061850153600284604051610eb99190612c6f565b602060405180830381855afa158015610ed6573d6000803e3d6000fd5b5050506040513d601f19601f82011682018060405250810190610ef99190612c8b565b905080602084015280821880602086015250600260408501536041840188905260206061850153600284604051610f309190612c6f565b602060405180830381855afa158015610f4d573d6000803e3d6000fd5b5050506040513d601f19601f82011682018060405250810190610f709190612c8b565b905080604084015280821880602086015250600360408501536041840188905260206061850153600284604051610fa79190612c6f565b602060405180830381855afa158015610fc4573d6000803e3d6000fd5b5050506040513d601f19601f82011682018060405250810190610fe79190612c8b565b606084015250909695505050505050565b61100061265e565b604051638669026f60e01b81526000903090638669026f906110289087908790600401612bd8565b6040805180830381865afa158015611044573d6000803e3d6000fd5b505050506040513d601f19601f820116820180604052508101906110689190612ca4565b805160405163d58e773360e01b81526004810191909152909150600090309063d58e7733906024016040805180830381865afa1580156110ac573d6000803e3d6000fd5b505050506040513d601f19601f820116820180604052508101906110d09190612ca4565b602083015160405163d58e773360e01b81526004810191909152909150600090309063d58e7733906024016040805180830381865afa158015611117573d6000803e3d6000fd5b505050506040513d601f19601f8201168201806040525081019061113b9190612ca4565b905061114561267c565b825181526020808401518282015282516040808401919091529083015160608301526000908460808460066107d05a03fa9050808061118057fe5b50806111c85760405162461bcd60e51b8152602060048201526017602482015276109314ce88189b881859190818d85b1b0819985a5b1959604a1b60448201526064016103d9565b50919695505050505050565b6111dc61265e565b600080516020612d6383398151915282106112455760405162461bcd60e51b815260206004820152602360248201527f6d6170546f506f696e7446543a20696e76616c6964206669656c6420656c656d604482015262195b9d60ea1b60648201526084016103d9565b81600061125182611790565b9150506000600080516020612d638339815191528061127257611272612cf9565b8384099050600080516020612d638339815191526004820890506000600080516020612d6383398151915277b3c4d79d41a91759a9e4c7e359b6b89eaec68e62effffffd850990506000600080516020612d6383398151915283830990506112d9816117b9565b9050600080516020612d638339815191528283099150600080516020612d638339815191528183099150600080516020612d638339815191528286099150600080516020612d6383398151915261133e83600080516020612d63833981519152612d0f565b7759e26bcea0d48bacd4f263f1acdb5c4f5763473177fffffe089450600080516020612d638339815191528586099150600080516020612d638339815191528583099150600080516020612d6383398151915260038308915060006113a283611790565b909350905080156113ea57846113cd576113ca83600080516020612d63833981519152612d0f565b92505b505060408051808201909152938452602084015250909392505050565b600080516020612d638339815191526001870861141590600080516020612d63833981519152612d0f565b9550600080516020612d638339815191528687099250600080516020612d638339815191528684099250600080516020612d6383398151915260038408925061145d83611790565b9093509050801561148557846113cd576113ca83600080516020612d63833981519152612d0f565b600080516020612d638339815191528485099550600080516020612d638339815191528687099550600080516020612d638339815191528287099550600080516020612d638339815191528287099550600080516020612d63833981519152600187089550600080516020612d638339815191528687099250600080516020612d638339815191528684099250600080516020612d6383398151915260038408925061153083611790565b90935090508061158d5760405162461bcd60e51b815260206004820152602260248201527f424c533a20626164206674206d617070696e6720696d706c656d656e7461746960448201526137b760f11b60648201526084016103d9565b846113cd576113ca83600080516020612d63833981519152612d0f565b600081516020830151600080516020612d63833981519152828309600080516020612d638339815191528382099050600080516020612d63833981519152600382089050600080516020612d6383398151915282830914949350505050565b60008060006040518061018001604052808760006002811061162d5761162d612b06565b602002013581526020018760016002811061164a5761164a612b06565b60200201358152602001600080516020612d438339815191528152602001600080516020612d238339815191528152602001600080516020612d838339815191528152602001600080516020612da38339815191528152602001856000600281106116b7576116b7612b06565b60200201358152602001856001600281106116d4576116d4612b06565b60200201358152602001866001600481106116f1576116f1612b06565b602002013581526020018660006004811061170e5761170e612b06565b602002013581526020018660036004811061172b5761172b612b06565b602002013581526020018660026004811061174857611748612b06565b602002013590529050611759612640565b60006020826101808560085afa90508061177c5760008094509450505050611788565b50511515925060019150505b935093915050565b60008061179c836117c4565b915082600080516020612d63833981519152838409149050915091565b60006103b282611ef9565b6000600080516020612d638339815191528083840991508083830981838209828283098385830984848309858484098684850997508684840987858409945087898a09985087898a09985087898a09985087898a09985087898a09985087878a09985087898a09985087898a09985087898a099850878a8a09985087898a09985087898a09985087898a09985087898a099850878a8a09985087898a09985087898a09985087898a09985087898a09985087898a09985087848a09985087898a09985087898a09985087898a09985087898a09985087898a09985087848a09985087898a09985087898a09985087898a099850878a8a09985087898a09985087898a09985087898a09985087898a09985087848a09985087898a09985087898a09985087898a09985087898a09985087898a099850878a8a09985087898a09985087898a09985087898a09985087898a09985087878a09985087898a09985087898a09985087898a09985087898a09985087898a09985087898a09985087898a09985087818a09985087898a09985087898a09985087898a09985087898a09985087898a09985087898a09985087898a09985087898a09985087898a09985087898a09985087868a09985087898a09985087898a09985087898a09985087898a09985087878a09985087898a09985087898a09985087898a09985087898a09985087848a09985087898a09985087898a09985087898a09985087898a09985087898a09985087898a09985087898a09985087868a09985087898a09985087898a09985087898a09985087898a09985087898a09985087898a099850878a8a09985087898a09985087898a09985087898a09985087898a09985087898a09985087898a09985087898a09985087828a09985087898a09985087898a09985087898a09985087898a09985087898a09985087818a09985087898a09985087898a09985087898a09985087868a09985087898a09985087898a09985087898a09985087898a09985087898a09985087898a09985087898a09985087898a09985087878a09985087898a09985087898a09985087898a09985087898a09985087898a09985087898a09985087898a09985087898a09985087898a09985087868a09985087898a09985087898a09985087898a09985087878a09985087898a09985087898a09985087898a09985087898a09985087898a09985087898a09985087898a09985087898a09985087828a09985087898a09985087898a09985087898a09985087898a09985087828a09985087898a09985087898a09985087898a09985087898a09985087898a09985087868a09985087898a09985087898a09985087898a09985087848a09985087898a09985087898a09985087898a09985087898a09985087898a09985087898a09985087898a09985087898a09985087898a09985087898a09985087828a09985087898a09985087898a09985087898a09985087898a09985087868a09985087898a09985087898a09985087898a09985087898a09985087898a09985087838a09985087898a09985087898a09985087898a09985087898a09985087898a09985087898a09985087898a09985087828a09985087898a09985087898a099850878a8a09985087898a09985087898a09985087898a09985087898a09985087898a09985087898a09985087898a09985087848a09985087898a09985087898a09985087898a09985087898a09985087898a09985087898a09985087848a09985087898a09985087898a09985087898a09985087898a09985087898a09985087868a09985087898a09985087898a099850878a8a09985087898a09985087898a09985087898a09985087898a09985087898a09985087898a09985087898a09985087818a09985050868889099750868889099750868889099750868889099750868889099750868889099750868489099750868889099750868889099750868889099750868889099750868889099750868989099750868889099750868889099750868889099750868889099750868889099750868889099750868989099750868889099750868889099750868889099750868889099750868889099750868689099750868889099750868889099750868889099750868889099750868889099750868889099750868889099750868889099750868889099750868189099750508587880996508587880996508587880996508585880996508587880996508587880996508587880996508585880996508587880996508587880996508587880996508587880996508587880996508587880996508587880996508587880996508583880996508587880996508587880996508587880996508587880996508581880996508587880996508587880996508587880996508587880996508583880996508587880996508587880996508587880996508584880996508587880996508587880996508587880996508587880996508587880996508581880996505050505050808283099392505050565b6000600080516020612d638339815191528083840991508083830981838209828283098385830984848309858484098684850997508684840987858409945087898a09985087898a09985087898a09985087898a09985087898a09985087878a09985087898a09985087898a09985087898a099850878a8a09985087898a09985087898a09985087898a09985087898a099850878a8a09985087898a09985087898a09985087898a09985087898a09985087898a09985087848a09985087898a09985087898a09985087898a09985087898a09985087898a09985087848a09985087898a09985087898a09985087898a099850878a8a09985087898a09985087898a09985087898a09985087898a09985087848a09985087898a09985087898a09985087898a09985087898a09985087898a099850878a8a09985087898a09985087898a09985087898a09985087898a09985087878a09985087898a09985087898a09985087898a09985087898a09985087898a09985087898a09985087898a09985087818a09985087898a09985087898a09985087898a09985087898a09985087898a09985087898a09985087898a09985087898a09985087898a09985087898a09985087868a09985087898a09985087898a09985087898a09985087898a09985087878a09985087898a09985087898a09985087898a09985087898a09985087848a09985087898a09985087898a09985087898a09985087898a09985087898a09985087898a09985087898a09985087868a09985087898a09985087898a09985087898a09985087898a09985087898a09985087898a099850878a8a09985087898a09985087898a09985087898a09985087898a09985087898a09985087898a09985087898a09985087828a09985087898a09985087898a09985087898a09985087898a09985087898a09985087818a09985087898a09985087898a09985087898a09985087868a09985087898a09985087898a09985087898a09985087898a09985087898a09985087898a09985087898a09985087898a09985087878a09985087898a09985087898a09985087898a09985087898a09985087898a09985087898a09985087898a09985087898a09985087898a09985087868a09985087898a09985087898a09985087898a09985087878a09985087898a09985087898a09985087898a09985087898a09985087898a09985087898a09985087898a09985087898a09985087828a09985087898a09985087898a09985087898a09985087898a09985087828a09985087898a09985087898a09985087898a09985087898a09985087898a09985087868a09985087898a09985087898a09985087898a09985087848a09985087898a09985087898a09985087898a09985087898a09985087898a09985087898a09985087898a09985087898a09985087898a09985087898a09985087828a09985087898a09985087898a09985087898a09985087898a09985087868a09985087898a09985087898a09985087898a09985087898a09985087898a09985087838a09985087898a09985087898a09985087898a09985087898a09985087898a09985087898a09985087898a09985087828a09985087898a09985087898a099850878a8a09985087898a09985087898a09985087898a09985087898a09985087898a09985087898a09985087898a09985087848a09985087898a09985087898a09985087898a09985087898a09985087898a09985087898a09985087848a09985087898a09985087898a09985087898a09985087898a09985087898a09985087868a09985087898a09985087898a099850878a8a09985087898a09985087898a09985087898a09985087898a09985087898a09985087898a09985087898a09985087818a09985050868889099750868889099750868889099750868889099750868889099750868889099750868489099750868889099750868889099750868889099750868889099750868889099750868989099750868889099750868889099750868889099750868889099750868889099750868889099750868989099750868889099750868889099750868889099750868889099750868889099750868689099750868889099750868889099750868889099750868889099750868889099750868889099750868889099750868889099750868889099750868189099750508587880996508587880996508587880996508585880996508587880996508587880996508587880996508585880996508587880996508587880996508587880996508587880996508587880996508587880996508587880996508587880996508583880996508587880996508587880996508587880996508587880996508581880996505050838586099450838586099450838586099450838586099450838186099450508284850993508284850993508284850993508281850993508284850993508284850993508285850993508284850993508284850993508284850993508284850993508284850993508284850993508281850995945050505050565b60405180602001604052806001906020820280368337509192915050565b60405180604001604052806002906020820280368337509192915050565b60405180608001604052806004906020820280368337509192915050565b634e487b7160e01b600052604160045260246000fd5b604080519081016001600160401b03811182821017156126d2576126d261269a565b60405290565b604051601f8201601f191681016001600160401b03811182821017156127005761270061269a565b604052919050565b60006080828403121561271a57600080fd5b82601f83011261272957600080fd5b604051608081018181106001600160401b038211171561274b5761274b61269a565b60405280608084018581111561276057600080fd5b845b8181101561277a578035835260209283019201612762565b509195945050505050565b60006040828403121561279757600080fd5b82601f8301126127a657600080fd5b6127ae6126b0565b8060408401858111156127c057600080fd5b845b818110156127da5780358452602093840193016127c2565b509095945050505050565b80604081018310156103b257600080fd5b60008083601f84011261280857600080fd5b5081356001600160401b0381111561281f57600080fd5b6020830191508360208260071b850101111561283a57600080fd5b9250929050565b60008060008060a0858703121561285757600080fd5b61286186866127e5565b935060408501356001600160401b0381111561287c57600080fd5b612888878288016127f6565b909450925061289c905086606087016127e5565b905092959194509250565b60006001600160401b038211156128c0576128c061269a565b50601f01601f191660200190565b600080604083850312156128e157600080fd5b8235915060208301356001600160401b038111156128fe57600080fd5b8301601f8101851361290f57600080fd5b803561292261291d826128a7565b6126d8565b81815286602083850101111561293757600080fd5b816020840160208301376000602083830101528093505050509250929050565b60408101818360005b600281101561297f578151835260209283019290910190600101612960565b50505092915050565b6000806000806000608086880312156129a057600080fd5b6129aa87876127e5565b945060408601356001600160401b03808211156129c657600080fd5b6129d289838a016127f6565b909650945060608801359150808211156129eb57600080fd5b818801915088601f8301126129ff57600080fd5b813581811115612a0e57600080fd5b8960208260061b8501011115612a2357600080fd5b9699959850939650602001949392505050565b60005b83811015612a51578181015183820152602001612a39565b50506000910152565b60008151808452612a72816020860160208601612a36565b601f01601f19169290920160200192915050565b602081526000612a996020830184612a5a565b9392505050565b600060208284031215612ab257600080fd5b5035919050565b60008060006101008486031215612acf57600080fd5b612ad985856127e5565b925060c0840185811115612aec57600080fd5b604085019250612afc86826127e5565b9150509250925092565b634e487b7160e01b600052603260045260246000fd5b600060208284031215612b2e57600080fd5b81518015158114612a9957600080fd5b60208082526021908201527f424c533a206e756d626572206f66207075626c6963206b6579206973207a65726040820152606f60f81b606082015260800190565b634e487b7160e01b600052601160045260246000fd5b808201808211156103b2576103b2612b7f565b80820281158282048414176103b2576103b2612b7f565b600060018201612bd157612bd1612b7f565b5060010190565b828152604060208201526000612bf16040830184612a5a565b949350505050565b600060208284031215612c0b57600080fd5b81516001600160401b03811115612c2157600080fd5b8201601f81018413612c3257600080fd5b8051612c4061291d826128a7565b818152856020838501011115612c5557600080fd5b612c66826020830160208601612a36565b95945050505050565b60008251612c81818460208701612a36565b9190910192915050565b600060208284031215612c9d57600080fd5b5051919050565b600060408284031215612cb657600080fd5b82601f830112612cc557600080fd5b612ccd6126b0565b806040840185811115612cdf57600080fd5b845b818110156127da578051845260209384019301612ce1565b634e487b7160e01b600052601260045260246000fd5b818103818111156103b2576103b2612b7f56fe1800deef121f1e76426a00665e5c4479674322d4f75edadd46debd5cd992f6ed198e9393920d483a7260bfb731fb5d25f1aa493335a9e71297e485b7aef312c230644e72e131a029b85045b68181585d97816a916871ca8d3c208c16d87cfd47275dc4a288d1afb3cbb1ac09187524c7db36395df7be3b99e673b13a075a65ec1d9befcd05a5323e6da4d435f3b617cdb3af83285c2df711ef39c01571827f9da264697066735822122026307d7712f2d905c1e8d78be9a5b3a609a6d61f5bdebb114a32bfdb7fdfb8ce64736f6c63430008110033",
  "linkReferences": {},
  "deployedLinkReferences": {}
}